{
  "_format": "hh-sol-artifact-1",
  "contractName": "ViolasNft721",
  "sourceName": "contracts/ViolasNft721.sol",
  "abi": [
    {
      "anonymous": false,
      "inputs": [
        {
          "indexed": true,
          "internalType": "address",
          "name": "owner",
          "type": "address"
        },
        {
          "indexed": true,
          "internalType": "address",
          "name": "approved",
          "type": "address"
        },
        {
          "indexed": true,
          "internalType": "uint256",
          "name": "tokenId",
          "type": "uint256"
        }
      ],
      "name": "Approval",
      "type": "event"
    },
    {
      "anonymous": false,
      "inputs": [
        {
          "indexed": true,
          "internalType": "address",
          "name": "owner",
          "type": "address"
        },
        {
          "indexed": true,
          "internalType": "address",
          "name": "operator",
          "type": "address"
        },
        {
          "indexed": false,
          "internalType": "bool",
          "name": "approved",
          "type": "bool"
        }
      ],
      "name": "ApprovalForAll",
      "type": "event"
    },
    {
      "anonymous": false,
      "inputs": [
        {
          "indexed": false,
          "internalType": "address",
          "name": "account",
          "type": "address"
        }
      ],
      "name": "Paused",
      "type": "event"
    },
    {
      "anonymous": false,
      "inputs": [
        {
          "indexed": true,
          "internalType": "bytes32",
          "name": "role",
          "type": "bytes32"
        },
        {
          "indexed": true,
          "internalType": "bytes32",
          "name": "previousAdminRole",
          "type": "bytes32"
        },
        {
          "indexed": true,
          "internalType": "bytes32",
          "name": "newAdminRole",
          "type": "bytes32"
        }
      ],
      "name": "RoleAdminChanged",
      "type": "event"
    },
    {
      "anonymous": false,
      "inputs": [
        {
          "indexed": true,
          "internalType": "bytes32",
          "name": "role",
          "type": "bytes32"
        },
        {
          "indexed": true,
          "internalType": "address",
          "name": "account",
          "type": "address"
        },
        {
          "indexed": true,
          "internalType": "address",
          "name": "sender",
          "type": "address"
        }
      ],
      "name": "RoleGranted",
      "type": "event"
    },
    {
      "anonymous": false,
      "inputs": [
        {
          "indexed": true,
          "internalType": "bytes32",
          "name": "role",
          "type": "bytes32"
        },
        {
          "indexed": true,
          "internalType": "address",
          "name": "account",
          "type": "address"
        },
        {
          "indexed": true,
          "internalType": "address",
          "name": "sender",
          "type": "address"
        }
      ],
      "name": "RoleRevoked",
      "type": "event"
    },
    {
      "anonymous": false,
      "inputs": [
        {
          "indexed": true,
          "internalType": "address",
          "name": "from",
          "type": "address"
        },
        {
          "indexed": true,
          "internalType": "address",
          "name": "to",
          "type": "address"
        },
        {
          "indexed": true,
          "internalType": "uint256",
          "name": "tokenId",
          "type": "uint256"
        }
      ],
      "name": "Transfer",
      "type": "event"
    },
    {
      "anonymous": false,
      "inputs": [
        {
          "indexed": false,
          "internalType": "address",
          "name": "account",
          "type": "address"
        }
      ],
      "name": "Unpaused",
      "type": "event"
    },
    {
      "inputs": [],
      "name": "DEFAULT_ADMIN_ROLE",
      "outputs": [
        {
          "internalType": "bytes32",
          "name": "",
          "type": "bytes32"
        }
      ],
      "stateMutability": "view",
      "type": "function"
    },
    {
      "inputs": [],
      "name": "MINTER_ROLE",
      "outputs": [
        {
          "internalType": "bytes32",
          "name": "",
          "type": "bytes32"
        }
      ],
      "stateMutability": "view",
      "type": "function"
    },
    {
      "inputs": [],
      "name": "PAUSER_ROLE",
      "outputs": [
        {
          "internalType": "bytes32",
          "name": "",
          "type": "bytes32"
        }
      ],
      "stateMutability": "view",
      "type": "function"
    },
    {
      "inputs": [
        {
          "internalType": "uint256",
          "name": "typeId",
          "type": "uint256"
        },
        {
          "internalType": "uint256",
          "name": "capacity",
          "type": "uint256"
        },
        {
          "internalType": "string",
          "name": "datas",
          "type": "string"
        }
      ],
      "name": "appendType",
      "outputs": [],
      "stateMutability": "nonpayable",
      "type": "function"
    },
    {
      "inputs": [
        {
          "internalType": "address",
          "name": "to",
          "type": "address"
        },
        {
          "internalType": "uint256",
          "name": "tokenId",
          "type": "uint256"
        }
      ],
      "name": "approve",
      "outputs": [],
      "stateMutability": "nonpayable",
      "type": "function"
    },
    {
      "inputs": [
        {
          "internalType": "address",
          "name": "owner",
          "type": "address"
        }
      ],
      "name": "balanceOf",
      "outputs": [
        {
          "internalType": "uint256",
          "name": "",
          "type": "uint256"
        }
      ],
      "stateMutability": "view",
      "type": "function"
    },
    {
      "inputs": [
        {
          "internalType": "uint256",
          "name": "tokenId",
          "type": "uint256"
        }
      ],
      "name": "burn",
      "outputs": [],
      "stateMutability": "nonpayable",
      "type": "function"
    },
    {
      "inputs": [],
      "name": "countOfType",
      "outputs": [
        {
          "internalType": "uint256",
          "name": "",
          "type": "uint256"
        }
      ],
      "stateMutability": "view",
      "type": "function"
    },
    {
      "inputs": [
        {
          "internalType": "uint256",
          "name": "tokenId",
          "type": "uint256"
        }
      ],
      "name": "getApproved",
      "outputs": [
        {
          "internalType": "address",
          "name": "",
          "type": "address"
        }
      ],
      "stateMutability": "view",
      "type": "function"
    },
    {
      "inputs": [
        {
          "internalType": "bytes32",
          "name": "role",
          "type": "bytes32"
        }
      ],
      "name": "getRoleAdmin",
      "outputs": [
        {
          "internalType": "bytes32",
          "name": "",
          "type": "bytes32"
        }
      ],
      "stateMutability": "view",
      "type": "function"
    },
    {
      "inputs": [
        {
          "internalType": "bytes32",
          "name": "role",
          "type": "bytes32"
        },
        {
          "internalType": "uint256",
          "name": "index",
          "type": "uint256"
        }
      ],
      "name": "getRoleMember",
      "outputs": [
        {
          "internalType": "address",
          "name": "",
          "type": "address"
        }
      ],
      "stateMutability": "view",
      "type": "function"
    },
    {
      "inputs": [
        {
          "internalType": "bytes32",
          "name": "role",
          "type": "bytes32"
        }
      ],
      "name": "getRoleMemberCount",
      "outputs": [
        {
          "internalType": "uint256",
          "name": "",
          "type": "uint256"
        }
      ],
      "stateMutability": "view",
      "type": "function"
    },
    {
      "inputs": [
        {
          "internalType": "bytes32",
          "name": "role",
          "type": "bytes32"
        },
        {
          "internalType": "address",
          "name": "account",
          "type": "address"
        }
      ],
      "name": "grantRole",
      "outputs": [],
      "stateMutability": "nonpayable",
      "type": "function"
    },
    {
      "inputs": [
        {
          "internalType": "bytes32",
          "name": "role",
          "type": "bytes32"
        },
        {
          "internalType": "address",
          "name": "account",
          "type": "address"
        }
      ],
      "name": "hasRole",
      "outputs": [
        {
          "internalType": "bool",
          "name": "",
          "type": "bool"
        }
      ],
      "stateMutability": "view",
      "type": "function"
    },
    {
      "inputs": [
        {
          "internalType": "uint256",
          "name": "typeId",
          "type": "uint256"
        },
        {
          "internalType": "uint256",
          "name": "count",
          "type": "uint256"
        }
      ],
      "name": "incrementTypeCapacity",
      "outputs": [],
      "stateMutability": "nonpayable",
      "type": "function"
    },
    {
      "inputs": [
        {
          "internalType": "string",
          "name": "name",
          "type": "string"
        },
        {
          "internalType": "string",
          "name": "symbol",
          "type": "string"
        },
        {
          "internalType": "string",
          "name": "baseTokenURI",
          "type": "string"
        }
      ],
      "name": "initialize",
      "outputs": [],
      "stateMutability": "nonpayable",
      "type": "function"
    },
    {
      "inputs": [
        {
          "internalType": "address",
          "name": "owner",
          "type": "address"
        },
        {
          "internalType": "address",
          "name": "operator",
          "type": "address"
        }
      ],
      "name": "isApprovedForAll",
      "outputs": [
        {
          "internalType": "bool",
          "name": "",
          "type": "bool"
        }
      ],
      "stateMutability": "view",
      "type": "function"
    },
    {
      "inputs": [
        {
          "internalType": "uint256",
          "name": "typeId",
          "type": "uint256"
        }
      ],
      "name": "lockType",
      "outputs": [],
      "stateMutability": "nonpayable",
      "type": "function"
    },
    {
      "inputs": [
        {
          "internalType": "address",
          "name": "to",
          "type": "address"
        },
        {
          "internalType": "uint256",
          "name": "tokenId",
          "type": "uint256"
        },
        {
          "internalType": "uint256",
          "name": "typeId",
          "type": "uint256"
        }
      ],
      "name": "mint",
      "outputs": [],
      "stateMutability": "nonpayable",
      "type": "function"
    },
    {
      "inputs": [],
      "name": "name",
      "outputs": [
        {
          "internalType": "string",
          "name": "",
          "type": "string"
        }
      ],
      "stateMutability": "view",
      "type": "function"
    },
    {
      "inputs": [
        {
          "internalType": "uint256",
          "name": "tokenId",
          "type": "uint256"
        }
      ],
      "name": "ownerOf",
      "outputs": [
        {
          "internalType": "address",
          "name": "",
          "type": "address"
        }
      ],
      "stateMutability": "view",
      "type": "function"
    },
    {
      "inputs": [],
      "name": "pause",
      "outputs": [],
      "stateMutability": "nonpayable",
      "type": "function"
    },
    {
      "inputs": [],
      "name": "paused",
      "outputs": [
        {
          "internalType": "bool",
          "name": "",
          "type": "bool"
        }
      ],
      "stateMutability": "view",
      "type": "function"
    },
    {
      "inputs": [
        {
          "internalType": "bytes32",
          "name": "role",
          "type": "bytes32"
        },
        {
          "internalType": "address",
          "name": "account",
          "type": "address"
        }
      ],
      "name": "renounceRole",
      "outputs": [],
      "stateMutability": "nonpayable",
      "type": "function"
    },
    {
      "inputs": [
        {
          "internalType": "bytes32",
          "name": "role",
          "type": "bytes32"
        },
        {
          "internalType": "address",
          "name": "account",
          "type": "address"
        }
      ],
      "name": "revokeRole",
      "outputs": [],
      "stateMutability": "nonpayable",
      "type": "function"
    },
    {
      "inputs": [
        {
          "internalType": "address",
          "name": "from",
          "type": "address"
        },
        {
          "internalType": "address",
          "name": "to",
          "type": "address"
        },
        {
          "internalType": "uint256",
          "name": "tokenId",
          "type": "uint256"
        }
      ],
      "name": "safeTransferFrom",
      "outputs": [],
      "stateMutability": "nonpayable",
      "type": "function"
    },
    {
      "inputs": [
        {
          "internalType": "address",
          "name": "from",
          "type": "address"
        },
        {
          "internalType": "address",
          "name": "to",
          "type": "address"
        },
        {
          "internalType": "uint256",
          "name": "tokenId",
          "type": "uint256"
        },
        {
          "internalType": "bytes",
          "name": "_data",
          "type": "bytes"
        }
      ],
      "name": "safeTransferFrom",
      "outputs": [],
      "stateMutability": "nonpayable",
      "type": "function"
    },
    {
      "inputs": [
        {
          "internalType": "address",
          "name": "operator",
          "type": "address"
        },
        {
          "internalType": "bool",
          "name": "approved",
          "type": "bool"
        }
      ],
      "name": "setApprovalForAll",
      "outputs": [],
      "stateMutability": "nonpayable",
      "type": "function"
    },
    {
      "inputs": [
        {
          "internalType": "bytes4",
          "name": "interfaceId",
          "type": "bytes4"
        }
      ],
      "name": "supportsInterface",
      "outputs": [
        {
          "internalType": "bool",
          "name": "",
          "type": "bool"
        }
      ],
      "stateMutability": "view",
      "type": "function"
    },
    {
      "inputs": [],
      "name": "symbol",
      "outputs": [
        {
          "internalType": "string",
          "name": "",
          "type": "string"
        }
      ],
      "stateMutability": "view",
      "type": "function"
    },
    {
      "inputs": [
        {
          "internalType": "uint256",
          "name": "index",
          "type": "uint256"
        }
      ],
      "name": "tokenByIndex",
      "outputs": [
        {
          "internalType": "uint256",
          "name": "",
          "type": "uint256"
        }
      ],
      "stateMutability": "view",
      "type": "function"
    },
    {
      "inputs": [
        {
          "internalType": "address",
          "name": "owner",
          "type": "address"
        },
        {
          "internalType": "uint256",
          "name": "index",
          "type": "uint256"
        }
      ],
      "name": "tokenOfOwnerByIndex",
      "outputs": [
        {
          "internalType": "uint256",
          "name": "",
          "type": "uint256"
        }
      ],
      "stateMutability": "view",
      "type": "function"
    },
    {
      "inputs": [
        {
          "internalType": "uint256",
          "name": "tokenId",
          "type": "uint256"
        }
      ],
      "name": "tokenURI",
      "outputs": [
        {
          "internalType": "string",
          "name": "",
          "type": "string"
        }
      ],
      "stateMutability": "view",
      "type": "function"
    },
    {
      "inputs": [],
      "name": "totalSupply",
      "outputs": [
        {
          "internalType": "uint256",
          "name": "",
          "type": "uint256"
        }
      ],
      "stateMutability": "view",
      "type": "function"
    },
    {
      "inputs": [
        {
          "internalType": "address",
          "name": "from",
          "type": "address"
        },
        {
          "internalType": "address",
          "name": "to",
          "type": "address"
        },
        {
          "internalType": "uint256",
          "name": "tokenId",
          "type": "uint256"
        }
      ],
      "name": "transferFrom",
      "outputs": [],
      "stateMutability": "nonpayable",
      "type": "function"
    },
    {
      "inputs": [
        {
          "internalType": "uint256",
          "name": "index",
          "type": "uint256"
        }
      ],
      "name": "typeByIndex",
      "outputs": [
        {
          "internalType": "uint256",
          "name": "",
          "type": "uint256"
        }
      ],
      "stateMutability": "view",
      "type": "function"
    },
    {
      "inputs": [
        {
          "internalType": "uint256",
          "name": "typeId",
          "type": "uint256"
        }
      ],
      "name": "typeDatasOfType",
      "outputs": [
        {
          "internalType": "string",
          "name": "",
          "type": "string"
        }
      ],
      "stateMutability": "view",
      "type": "function"
    },
    {
      "inputs": [
        {
          "internalType": "uint256",
          "name": "typeId",
          "type": "uint256"
        }
      ],
      "name": "typeIsExists",
      "outputs": [
        {
          "internalType": "bool",
          "name": "",
          "type": "bool"
        }
      ],
      "stateMutability": "view",
      "type": "function"
    },
    {
      "inputs": [
        {
          "internalType": "uint256",
          "name": "typeId",
          "type": "uint256"
        }
      ],
      "name": "typeIsLocked",
      "outputs": [
        {
          "internalType": "bool",
          "name": "",
          "type": "bool"
        }
      ],
      "stateMutability": "view",
      "type": "function"
    },
    {
      "inputs": [
        {
          "internalType": "uint256",
          "name": "tokenId",
          "type": "uint256"
        }
      ],
      "name": "typeOfToken",
      "outputs": [
        {
          "internalType": "uint256",
          "name": "",
          "type": "uint256"
        }
      ],
      "stateMutability": "view",
      "type": "function"
    },
    {
      "inputs": [
        {
          "internalType": "uint256",
          "name": "typeId",
          "type": "uint256"
        }
      ],
      "name": "unlockType",
      "outputs": [],
      "stateMutability": "nonpayable",
      "type": "function"
    },
    {
      "inputs": [],
      "name": "unpause",
      "outputs": [],
      "stateMutability": "nonpayable",
      "type": "function"
    }
  ],
  "bytecode": "0x608060405234801561001057600080fd5b50613624806100206000396000f3fe608060405234801561001057600080fd5b506004361061025e5760003560e01c80636352211e11610146578063a6487c53116100c3578063ce33c0c611610087578063ce33c0c6146104f6578063d539139314610509578063d547741f14610511578063e63ab1e914610524578063e985e9c51461052c578063ea4455951461053f5761025e565b8063a6487c5314610497578063b6eeeb22146104aa578063b88d4fde146104bd578063c87b56dd146104d0578063ca15c873146104e35761025e565b80639010d07c1161010a5780639010d07c1461044e57806391d148541461046157806395d89b4114610474578063a217fddf1461047c578063a22cb465146104845761025e565b80636352211e146103fa57806368bcc3fd1461040d57806370a082311461042057806374a48738146104335780638456cb59146104465761025e565b80632e643fa3116101df57806342842e0e116101a357806342842e0e1461039357806342966c68146103a65780634ed0181b146103b95780634f6ccce7146103cc5780635b7852c9146103df5780635c975abb146103f25761025e565b80632e643fa31461034a5780632f2ff15d146103525780632f745c591461036557806336568abe146103785780633f4ba83a1461038b5761025e565b806310f33ee71161022657806310f33ee7146102f6578063156e29f61461030957806318160ddd1461031c57806323b872dd14610324578063248a9ca3146103375761025e565b8063016c71bd1461026357806301ffc9a71461028c57806306fdde03146102ac578063081812fc146102c1578063095ea7b3146102e1575b600080fd5b61027661027136600461287d565b610552565b6040516102839190612b3b565b60405180910390f35b61029f61029a3660046128d8565b610568565b6040516102839190612b30565b6102b4610579565b6040516102839190612b44565b6102d46102cf36600461287d565b61060b565b6040516102839190612adf565b6102f46102ef366004612822565b610657565b005b61029f61030436600461287d565b6106ef565b6102f461031736600461284b565b610705565b610276610761565b6102f4610332366004612734565b610767565b61027661034536600461287d565b61079f565b6102766107b4565b6102f4610360366004612895565b6107bb565b610276610373366004612822565b6107dd565b6102f4610386366004612895565b61082f565b6102f4610851565b6102f46103a1366004612734565b610891565b6102f46103b436600461287d565b6108ac565b6102f46103c73660046128b7565b6108df565b6102766103da36600461287d565b6109b9565b6102766103ed36600461287d565b610a14565b61029f610a38565b6102d461040836600461287d565b610a42565b6102f461041b36600461287d565b610a77565b61027661042e3660046126e8565b610abc565b61029f61044136600461287d565b610b00565b6102f4610b16565b6102d461045c3660046128b7565b610b54565b61029f61046f366004612895565b610b73565b6102b4610b9e565b610276610bad565b6102f46104923660046127e8565b610bb2565b6102f46104a5366004612910565b610c80565b6102f46104b836600461287d565b610d03565b6102f46104cb36600461276f565b610d45565b6102b46104de36600461287d565b610d7e565b6102766104f136600461287d565b610e00565b6102f4610504366004612994565b610e17565b610276610f1e565b6102f461051f366004612895565b610f42565b610276610f4c565b61029f61053a366004612702565b610f5e565b6102b461054d36600461287d565b610f8c565b60008181526101cb60205260409020545b919050565b60006105738261105d565b92915050565b606060c980546105889061350c565b80601f01602080910402602001604051908101604052809291908181526020018280546105b49061350c565b80156106015780601f106105d657610100808354040283529160200191610601565b820191906000526020600020905b8154815290600101906020018083116105e457829003601f168201915b5050505050905090565b600061061682611082565b61063b5760405162461bcd60e51b81526004016106329061311b565b60405180910390fd5b50600090815260cd60205260409020546001600160a01b031690565b600061066282610a42565b9050806001600160a01b0316836001600160a01b031614156106965760405162461bcd60e51b815260040161063290613293565b806001600160a01b03166106a861109f565b6001600160a01b031614806106c457506106c48161053a61109f565b6106e05760405162461bcd60e51b815260040161063290612f2d565b6106ea83836110a3565b505050565b60009081526101c7602052604090205460ff1690565b6107317f9f2df0fed2c77648de5860a4cc508cd0818c85b8b8a1ab4ceeef8d981c8956a661046f61109f565b61074d5760405162461bcd60e51b81526004016106329061306b565b6107578383611111565b6106ea828261112f565b60fd5490565b61077861077261109f565b826111f9565b6107945760405162461bcd60e51b8152600401610632906132d4565b6106ea83838361127e565b60009081526065602052604090206001015490565b6101c55490565b6107c582826113ab565b60008281526097602052604090206106ea90826113cf565b60006107e883610abc565b82106108065760405162461bcd60e51b815260040161063290612c71565b506001600160a01b0391909116600090815260fb60209081526040808320938352929052205490565b61083982826113e4565b60008281526097602052604090206106ea9082611426565b61086b6000805160206135cf83398151915261046f61109f565b6108875760405162461bcd60e51b815260040161063290612e1d565b61088f61143b565b565b6106ea83838360405180602001604052806000815250610d45565b6108b761077261109f565b6108d35760405162461bcd60e51b81526004016106329061339a565b6108dc816114aa565b50565b6108ec600061046f61109f565b6109085760405162461bcd60e51b815260040161063290613167565b60008281526101c6602052604090205460ff166109375760405162461bcd60e51b815260040161063290612d73565b61093f610a38565b1561095c5760405162461bcd60e51b81526004016106329061324a565b60008281526101c860205260409020546000196109798383613467565b11156109975760405162461bcd60e51b815260040161063290613371565b6109a18282613467565b60009384526101c86020526040909320929092555050565b60006109c3610761565b82106109e15760405162461bcd60e51b815260040161063290613325565b60fd8281548110610a0257634e487b7160e01b600052603260045260246000fd5b90600052602060002001549050919050565b60006101c58281548110610a0257634e487b7160e01b600052603260045260246000fd5b61015f5460ff1690565b600081815260cb60205260408120546001600160a01b0316806105735760405162461bcd60e51b815260040161063290612fd4565b610a84600061046f61109f565b610aa05760405162461bcd60e51b815260040161063290613167565b60009081526101c760205260409020805460ff19166001179055565b60006001600160a01b038216610ae45760405162461bcd60e51b815260040161063290612f8a565b506001600160a01b0316600090815260cc602052604090205490565b60009081526101c6602052604090205460ff1690565b610b306000805160206135cf83398151915261046f61109f565b610b4c5760405162461bcd60e51b815260040161063290612e6b565b61088f6114c5565b6000828152609760205260408120610b6c9083611521565b9392505050565b60009182526065602090815260408084206001600160a01b0393909316845291905290205460ff1690565b606060ca80546105889061350c565b600081565b610bba61109f565b6001600160a01b0316826001600160a01b03161415610beb5760405162461bcd60e51b815260040161063290612de6565b8060ce6000610bf861109f565b6001600160a01b03908116825260208083019390935260409182016000908120918716808252919093529120805460ff191692151592909217909155610c3c61109f565b6001600160a01b03167f17307eab39ab6107e8899845ad3d59bd9653f200f220920489ca2b5937696c3183604051610c749190612b30565b60405180910390a35050565b600054610100900460ff1680610c99575060005460ff16155b610cb55760405162461bcd60e51b81526004016106329061301d565b600054610100900460ff16158015610ce0576000805460ff1961ff0019909116610100171660011790555b610ceb84848461152d565b8015610cfd576000805461ff00191690555b50505050565b610d10600061046f61109f565b610d2c5760405162461bcd60e51b815260040161063290613167565b60009081526101c760205260409020805460ff19169055565b610d56610d5061109f565b836111f9565b610d725760405162461bcd60e51b8152600401610632906132d4565b610cfd848484846115e0565b6060610d8982611082565b610da55760405162461bcd60e51b8152600401610632906131fb565b6000610daf611613565b90506000815111610dcf5760405180602001604052806000815250610b6c565b80610dd984611623565b604051602001610dea929190612a3b565b6040516020818303038152906040529392505050565b60008181526097602052604081206105739061173e565b610e24600061046f61109f565b610e405760405162461bcd60e51b815260040161063290613167565b60008481526101c6602052604090205460ff1615610e705760405162461bcd60e51b815260040161063290613439565b610e78610a38565b15610e955760405162461bcd60e51b81526004016106329061324a565b60008481526101c660209081526040808320805460ff199081166001179091556101c78352818420805490911690556101ca9091529020610ed790838361252f565b50506101c58054600181019091557f818f40e4590a6f2c3ec1caee0533b9960911937d8dd67c8f1447b1392a84f253018390555060009182526101c8602052604090912055565b7f9f2df0fed2c77648de5860a4cc508cd0818c85b8b8a1ab4ceeef8d981c8956a681565b6108398282611749565b6000805160206135cf83398151915281565b6001600160a01b03918216600090815260ce6020908152604080832093909416825291909152205460ff1690565b60008181526101c6602052604090205460609060ff16610fbe5760405162461bcd60e51b8152600401610632906130eb565b60008281526101ca602052604090208054610fd89061350c565b80601f01602080910402602001604051908101604052809291908181526020018280546110049061350c565b80156110515780601f1061102657610100808354040283529160200191611051565b820191906000526020600020905b81548152906001019060200180831161103457829003601f168201915b50505050509050919050565b60006001600160e01b0319821663780e9d6360e01b1480610573575061057382611768565b600090815260cb60205260409020546001600160a01b0316151590565b3390565b600081815260cd6020526040902080546001600160a01b0319166001600160a01b03841690811790915581906110d882610a42565b6001600160a01b03167f8c5be1e5ebec7d5bd14f71427d1e84f3dd0314c0f7b2291e5b200ac8c7c3b92560405160405180910390a45050565b61112b8282604051806020016040528060008152506117a8565b5050565b60008181526101c6602052604090205460ff1661115e5760405162461bcd60e51b8152600401610632906130eb565b60008181526101c7602052604090205460ff161561118e5760405162461bcd60e51b815260040161063290612b57565b60008181526101c860209081526040808320546101c99092529091206111b3906117db565b106111d05760405162461bcd60e51b815260040161063290612cbc565b60008281526101cb602090815260408083208490558383526101c9909152902061112b906117df565b600061120482611082565b6112205760405162461bcd60e51b815260040161063290612eb7565b600061122b83610a42565b9050806001600160a01b0316846001600160a01b031614806112665750836001600160a01b031661125b8461060b565b6001600160a01b0316145b8061127657506112768185610f5e565b949350505050565b826001600160a01b031661129182610a42565b6001600160a01b0316146112b75760405162461bcd60e51b8152600401610632906131b2565b6001600160a01b0382166112dd5760405162461bcd60e51b815260040161063290612da2565b6112e88383836117e8565b6112f36000826110a3565b6001600160a01b038316600090815260cc6020526040812080546001929061131c9084906134b2565b90915550506001600160a01b038216600090815260cc6020526040812080546001929061134a908490613467565b9091555050600081815260cb602052604080822080546001600160a01b0319166001600160a01b0386811691821790925591518493918716917fddf252ad1be2c89b69c2b068fc378daa952ba7f163c4a11628f55a4df523b3ef91a4505050565b6113b48261079f565b6113c5816113c061109f565b6117f3565b6106ea8383611857565b6000610b6c836001600160a01b0384166118de565b6113ec61109f565b6001600160a01b0316816001600160a01b03161461141c5760405162461bcd60e51b8152600401610632906133ea565b61112b8282611928565b6000610b6c836001600160a01b0384166119ad565b611443610a38565b61145f5760405162461bcd60e51b815260040161063290612c43565b61015f805460ff191690557f5db9ee0a495bf2e6ff9c91a7834c1ba4fdd244a5e8aa4e537bd38aeae4b073aa61149361109f565b6040516114a09190612adf565b60405180910390a1565b6114b381611ac4565b60009081526101cb6020526040812055565b6114cd610a38565b156114ea5760405162461bcd60e51b815260040161063290612f03565b61015f805460ff191660011790557f62e78cea01bee320cd4e420270b5ea74000d11b0c9f74754ebdbfc544b05a25861149361109f565b6000610b6c8383611b6b565b600054610100900460ff1680611546575060005460ff16155b6115625760405162461bcd60e51b81526004016106329061301d565b600054610100900460ff1615801561158d576000805460ff1961ff0019909116610100171660011790555b611595611bc4565b61159d611bc4565b6115a5611bc4565b6115ad611bc4565b6115b78484611c38565b6115bf611bc4565b6115c7611bc4565b6115cf611cd6565b6115d7611bc4565b610ceb82611d55565b6115eb84848461127e565b6115f784848484611e37565b610cfd5760405162461bcd60e51b815260040161063290612cea565b60606101c380546105889061350c565b60608161164857506040805180820190915260018152600360fc1b6020820152610563565b8160005b8115611672578061165c81613547565b915061166b9050600a8361347f565b915061164c565b60008167ffffffffffffffff81111561169b57634e487b7160e01b600052604160045260246000fd5b6040519080825280601f01601f1916602001820160405280156116c5576020820181803683370190505b5090505b8415611276576116da6001836134b2565b91506116e7600a86613562565b6116f2906030613467565b60f81b81838151811061171557634e487b7160e01b600052603260045260246000fd5b60200101906001600160f81b031916908160001a905350611737600a8661347f565b94506116c9565b6000610573826117db565b6117528261079f565b61175e816113c061109f565b6106ea8383611928565b60006001600160e01b031982166380ac58cd60e01b148061179957506001600160e01b03198216635b5e139f60e01b145b80610573575061057382611f52565b6117b28383611f77565b6117bf6000848484611e37565b6106ea5760405162461bcd60e51b815260040161063290612cea565b5490565b80546001019055565b6106ea838383612056565b6117fd8282610b73565b61112b57611815816001600160a01b03166014612086565b611820836020612086565b604051602001611831929190612a6a565b60408051601f198184030181529082905262461bcd60e51b825261063291600401612b44565b6118618282610b73565b61112b5760008281526065602090815260408083206001600160a01b03851684529091529020805460ff1916600117905561189a61109f565b6001600160a01b0316816001600160a01b0316837f2f8788117e7eff1d82e926ec794901d17c78024a50270940304540a733656f0d60405160405180910390a45050565b60006118ea8383612238565b61192057508154600181810184556000848152602080822090930184905584548482528286019093526040902091909155610573565b506000610573565b6119328282610b73565b1561112b5760008281526065602090815260408083206001600160a01b03851684529091529020805460ff1916905561196961109f565b6001600160a01b0316816001600160a01b0316837ff6391f5c32d9c69d2a47ea670b442974b53935d1edc7fd64eb21e047a839171b60405160405180910390a45050565b60008181526001830160205260408120548015611aba5760006119d16001836134b2565b85549091506000906119e5906001906134b2565b90506000866000018281548110611a0c57634e487b7160e01b600052603260045260246000fd5b9060005260206000200154905080876000018481548110611a3d57634e487b7160e01b600052603260045260246000fd5b600091825260208083209091019290925582815260018901909152604090208490558654879080611a7e57634e487b7160e01b600052603160045260246000fd5b60019003818190600052602060002001600090559055866001016000878152602001908152602001600020600090556001945050505050610573565b6000915050610573565b6000611acf82610a42565b9050611add816000846117e8565b611ae86000836110a3565b6001600160a01b038116600090815260cc60205260408120805460019290611b119084906134b2565b9091555050600082815260cb602052604080822080546001600160a01b0319169055518391906001600160a01b038416907fddf252ad1be2c89b69c2b068fc378daa952ba7f163c4a11628f55a4df523b3ef908390a45050565b81546000908210611b8e5760405162461bcd60e51b815260040161063290612b81565b826000018281548110611bb157634e487b7160e01b600052603260045260246000fd5b9060005260206000200154905092915050565b600054610100900460ff1680611bdd575060005460ff16155b611bf95760405162461bcd60e51b81526004016106329061301d565b600054610100900460ff16158015611c24576000805460ff1961ff0019909116610100171660011790555b80156108dc576000805461ff001916905550565b600054610100900460ff1680611c51575060005460ff16155b611c6d5760405162461bcd60e51b81526004016106329061301d565b600054610100900460ff16158015611c98576000805460ff1961ff0019909116610100171660011790555b8251611cab9060c99060208601906125b3565b508151611cbf9060ca9060208501906125b3565b5080156106ea576000805461ff0019169055505050565b600054610100900460ff1680611cef575060005460ff16155b611d0b5760405162461bcd60e51b81526004016106329061301d565b600054610100900460ff16158015611d36576000805460ff1961ff0019909116610100171660011790555b61015f805460ff1916905580156108dc576000805461ff001916905550565b600054610100900460ff1680611d6e575060005460ff16155b611d8a5760405162461bcd60e51b81526004016106329061301d565b600054610100900460ff16158015611db5576000805460ff1961ff0019909116610100171660011790555b8151611dc9906101c39060208501906125b3565b50611ddc6000611dd761109f565b612250565b611e087f9f2df0fed2c77648de5860a4cc508cd0818c85b8b8a1ab4ceeef8d981c8956a6611dd761109f565b611e226000805160206135cf833981519152611dd761109f565b801561112b576000805461ff00191690555050565b6000611e4b846001600160a01b031661225a565b15611f4757836001600160a01b031663150b7a02611e6761109f565b8786866040518563ffffffff1660e01b8152600401611e899493929190612af3565b602060405180830381600087803b158015611ea357600080fd5b505af1925050508015611ed3575060408051601f3d908101601f19168201909252611ed0918101906128f4565b60015b611f2d573d808015611f01576040519150601f19603f3d011682016040523d82523d6000602084013e611f06565b606091505b508051611f255760405162461bcd60e51b815260040161063290612cea565b805181602001fd5b6001600160e01b031916630a85bd0160e11b149050611276565b506001949350505050565b60006001600160e01b03198216635a05180f60e01b1480610573575061057382612260565b6001600160a01b038216611f9d5760405162461bcd60e51b8152600401610632906130b6565b611fa681611082565b15611fc35760405162461bcd60e51b815260040161063290612d3c565b611fcf600083836117e8565b6001600160a01b038216600090815260cc60205260408120805460019290611ff8908490613467565b9091555050600081815260cb602052604080822080546001600160a01b0319166001600160a01b03861690811790915590518392907fddf252ad1be2c89b69c2b068fc378daa952ba7f163c4a11628f55a4df523b3ef908290a45050565b612061838383612285565b612069610a38565b156106ea5760405162461bcd60e51b815260040161063290612bf8565b60606000612095836002613493565b6120a0906002613467565b67ffffffffffffffff8111156120c657634e487b7160e01b600052604160045260246000fd5b6040519080825280601f01601f1916602001820160405280156120f0576020820181803683370190505b509050600360fc1b8160008151811061211957634e487b7160e01b600052603260045260246000fd5b60200101906001600160f81b031916908160001a905350600f60fb1b8160018151811061215657634e487b7160e01b600052603260045260246000fd5b60200101906001600160f81b031916908160001a905350600061217a846002613493565b612185906001613467565b90505b6001811115612219576f181899199a1a9b1b9c1cb0b131b232b360811b85600f16601081106121c757634e487b7160e01b600052603260045260246000fd5b1a60f81b8282815181106121eb57634e487b7160e01b600052603260045260246000fd5b60200101906001600160f81b031916908160001a90535060049490941c93612212816134f5565b9050612188565b508315610b6c5760405162461bcd60e51b815260040161063290612bc3565b60009081526001919091016020526040902054151590565b6107c5828261230e565b3b151590565b60006001600160e01b03198216637965db0b60e01b1480610573575061057382612318565b6122908383836106ea565b6001600160a01b0383166122ac576122a781612331565b6122cf565b816001600160a01b0316836001600160a01b0316146122cf576122cf8382612375565b6001600160a01b0382166122eb576122e681612412565b6106ea565b826001600160a01b0316826001600160a01b0316146106ea576106ea82826124eb565b61112b8282611857565b6001600160e01b031981166301ffc9a760e01b14919050565b60fd8054600083815260fe60205260408120829055600182018355919091527f9346ac6dd7de6b96975fec380d4d994c4c12e6a8897544f22915316cc6cca2800155565b6000600161238284610abc565b61238c91906134b2565b600083815260fc60205260409020549091508082146123df576001600160a01b038416600090815260fb60209081526040808320858452825280832054848452818420819055835260fc90915290208190555b50600091825260fc602090815260408084208490556001600160a01b03909416835260fb81528383209183525290812055565b60fd54600090612424906001906134b2565b600083815260fe602052604081205460fd805493945090928490811061245a57634e487b7160e01b600052603260045260246000fd5b906000526020600020015490508060fd838154811061248957634e487b7160e01b600052603260045260246000fd5b600091825260208083209091019290925582815260fe909152604080822084905585825281205560fd8054806124cf57634e487b7160e01b600052603160045260246000fd5b6001900381819060005260206000200160009055905550505050565b60006124f683610abc565b6001600160a01b03909316600090815260fb60209081526040808320868452825280832085905593825260fc9052919091209190915550565b82805461253b9061350c565b90600052602060002090601f01602090048101928261255d57600085556125a3565b82601f106125765782800160ff198235161785556125a3565b828001600101855582156125a3579182015b828111156125a3578235825591602001919060010190612588565b506125af929150612627565b5090565b8280546125bf9061350c565b90600052602060002090601f0160209004810192826125e157600085556125a3565b82601f106125fa57805160ff19168380011785556125a3565b828001600101855582156125a3579182015b828111156125a357825182559160200191906001019061260c565b5b808211156125af5760008155600101612628565b600067ffffffffffffffff80841115612657576126576135a2565b604051601f8501601f19908116603f0116810190828211818310171561267f5761267f6135a2565b8160405280935085815286868601111561269857600080fd5b858560208301376000602087830101525050509392505050565b80356001600160a01b038116811461056357600080fd5b600082601f8301126126d9578081fd5b610b6c8383356020850161263c565b6000602082840312156126f9578081fd5b610b6c826126b2565b60008060408385031215612714578081fd5b61271d836126b2565b915061272b602084016126b2565b90509250929050565b600080600060608486031215612748578081fd5b612751846126b2565b925061275f602085016126b2565b9150604084013590509250925092565b60008060008060808587031215612784578081fd5b61278d856126b2565b935061279b602086016126b2565b925060408501359150606085013567ffffffffffffffff8111156127bd578182fd5b8501601f810187136127cd578182fd5b6127dc8782356020840161263c565b91505092959194509250565b600080604083850312156127fa578182fd5b612803836126b2565b915060208301358015158114612817578182fd5b809150509250929050565b60008060408385031215612834578182fd5b61283d836126b2565b946020939093013593505050565b60008060006060848603121561285f578283fd5b612868846126b2565b95602085013595506040909401359392505050565b60006020828403121561288e578081fd5b5035919050565b600080604083850312156128a7578182fd5b8235915061272b602084016126b2565b600080604083850312156128c9578182fd5b50508035926020909101359150565b6000602082840312156128e9578081fd5b8135610b6c816135b8565b600060208284031215612905578081fd5b8151610b6c816135b8565b600080600060608486031215612924578081fd5b833567ffffffffffffffff8082111561293b578283fd5b612947878388016126c9565b9450602086013591508082111561295c578283fd5b612968878388016126c9565b9350604086013591508082111561297d578283fd5b5061298a868287016126c9565b9150509250925092565b600080600080606085870312156129a9578182fd5b8435935060208501359250604085013567ffffffffffffffff808211156129ce578384fd5b818701915087601f8301126129e1578384fd5b8135818111156129ef578485fd5b886020828501011115612a00578485fd5b95989497505060200194505050565b60008151808452612a278160208601602086016134c9565b601f01601f19169290920160200192915050565b60008351612a4d8184602088016134c9565b835190830190612a618183602088016134c9565b01949350505050565b60007f416363657373436f6e74726f6c3a206163636f756e742000000000000000000082528351612aa28160178501602088016134c9565b7001034b99036b4b9b9b4b733903937b6329607d1b6017918401918201528351612ad38160288401602088016134c9565b01602801949350505050565b6001600160a01b0391909116815260200190565b6001600160a01b0385811682528416602082015260408101839052608060608201819052600090612b2690830184612a0f565b9695505050505050565b901515815260200190565b90815260200190565b600060208252610b6c6020830184612a0f565b60208082526010908201526f1d1e5c195259081a5cc81b1bd8dad95960821b604082015260600190565b60208082526022908201527f456e756d657261626c655365743a20696e646578206f7574206f6620626f756e604082015261647360f01b606082015260800190565b6020808252818101527f537472696e67733a20686578206c656e67746820696e73756666696369656e74604082015260600190565b6020808252602b908201527f4552433732315061757361626c653a20746f6b656e207472616e73666572207760408201526a1a1a5b19481c185d5cd95960aa1b606082015260800190565b60208082526014908201527314185d5cd8589b194e881b9bdd081c185d5cd95960621b604082015260600190565b6020808252602b908201527f455243373231456e756d657261626c653a206f776e657220696e646578206f7560408201526a74206f6620626f756e647360a81b606082015260800190565b60208082526014908201527374797065206973206d617820636170616369747960601b604082015260600190565b60208082526032908201527f4552433732313a207472616e7366657220746f206e6f6e20455243373231526560408201527131b2b4bb32b91034b6b83632b6b2b73a32b960711b606082015260800190565b6020808252601c908201527f4552433732313a20746f6b656e20616c7265616479206d696e74656400000000604082015260600190565b6020808252601590820152743a3cb832903237b2b9903737ba1032bc34b9ba399760591b604082015260600190565b60208082526024908201527f4552433732313a207472616e7366657220746f20746865207a65726f206164646040820152637265737360e01b606082015260800190565b60208082526019908201527f4552433732313a20617070726f766520746f2063616c6c657200000000000000604082015260600190565b6020808252602e908201527f56696f6c61734e66743732313a206d757374206861766520706175736572207260408201526d6f6c6520746f20756e706175736560901b606082015260800190565b6020808252602c908201527f56696f6c61734e66743732313a206d757374206861766520706175736572207260408201526b6f6c6520746f20706175736560a01b606082015260800190565b6020808252602c908201527f4552433732313a206f70657261746f7220717565727920666f72206e6f6e657860408201526b34b9ba32b73a103a37b5b2b760a11b606082015260800190565b60208082526010908201526f14185d5cd8589b194e881c185d5cd95960821b604082015260600190565b60208082526038908201527f4552433732313a20617070726f76652063616c6c6572206973206e6f74206f7760408201527f6e6572206e6f7220617070726f76656420666f7220616c6c0000000000000000606082015260800190565b6020808252602a908201527f4552433732313a2062616c616e636520717565727920666f7220746865207a65604082015269726f206164647265737360b01b606082015260800190565b60208082526029908201527f4552433732313a206f776e657220717565727920666f72206e6f6e657869737460408201526832b73a103a37b5b2b760b91b606082015260800190565b6020808252602e908201527f496e697469616c697a61626c653a20636f6e747261637420697320616c72656160408201526d191e481a5b9a5d1a585b1a5e995960921b606082015260800190565b6020808252602b908201527f56696f6c61734e66743732313a206d7573742068617665206d696e746572207260408201526a1bdb19481d1bc81b5a5b9d60aa1b606082015260800190565b6020808252818101527f4552433732313a206d696e7420746f20746865207a65726f2061646472657373604082015260600190565b60208082526016908201527574797065496420646f6573206e6f742065786973747360501b604082015260600190565b6020808252602c908201527f4552433732313a20617070726f76656420717565727920666f72206e6f6e657860408201526b34b9ba32b73a103a37b5b2b760a11b606082015260800190565b6020808252602b908201527f56696f6c61734e66743732313a206d75737420686176652061646d696e20726f60408201526a1b19481d1bc819dc985b9d60aa1b606082015260800190565b60208082526029908201527f4552433732313a207472616e73666572206f6620746f6b656e2074686174206960408201526839903737ba1037bbb760b91b606082015260800190565b6020808252602f908201527f4552433732314d657461646174613a2055524920717565727920666f72206e6f60408201526e3732bc34b9ba32b73a103a37b5b2b760891b606082015260800190565b60208082526029908201527f56696f6c61734e66743732313a20746f6b656e207472616e73666572207768696040820152681b19481c185d5cd95960ba1b606082015260800190565b60208082526021908201527f4552433732313a20617070726f76616c20746f2063757272656e74206f776e656040820152603960f91b606082015260800190565b60208082526031908201527f4552433732313a207472616e736665722063616c6c6572206973206e6f74206f6040820152701ddb995c881b9bdc88185c1c1c9bdd9959607a1b606082015260800190565b6020808252602c908201527f455243373231456e756d657261626c653a20676c6f62616c20696e646578206f60408201526b7574206f6620626f756e647360a01b606082015260800190565b6020808252600f908201526e3b30b63ab29037bb32b9333637bb9760891b604082015260600190565b60208082526030908201527f4552433732314275726e61626c653a2063616c6c6572206973206e6f74206f7760408201526f1b995c881b9bdc88185c1c1c9bdd995960821b606082015260800190565b6020808252602f908201527f416363657373436f6e74726f6c3a2063616e206f6e6c792072656e6f756e636560408201526e103937b632b9903337b91039b2b63360891b606082015260800190565b6020808252601490820152733a3cb8329030b63932b0b23c9032bc34b9ba399760611b604082015260600190565b6000821982111561347a5761347a613576565b500190565b60008261348e5761348e61358c565b500490565b60008160001904831182151516156134ad576134ad613576565b500290565b6000828210156134c4576134c4613576565b500390565b60005b838110156134e45781810151838201526020016134cc565b83811115610cfd5750506000910152565b60008161350457613504613576565b506000190190565b60028104600182168061352057607f821691505b6020821081141561354157634e487b7160e01b600052602260045260246000fd5b50919050565b600060001982141561355b5761355b613576565b5060010190565b6000826135715761357161358c565b500690565b634e487b7160e01b600052601160045260246000fd5b634e487b7160e01b600052601260045260246000fd5b634e487b7160e01b600052604160045260246000fd5b6001600160e01b0319811681146108dc57600080fdfe65d7a28e3265b37a6474929f336521b332c1681b933f6cb9f3376673440d862aa26469706673582212205ad8f9bf1c35b1608a27e9646b28ac3486ae7853cf5c024d6edce7f545995a0764736f6c63430008010033",
  "linkReferences": {},
  "deployedLinkReferences": {}
}