{
  "_format": "hh-sol-artifact-1",
  "contractName": "ViolasNft1155",
  "sourceName": "contracts/ViolasNft1155.sol",
  "abi": [
    {
      "anonymous": false,
      "inputs": [
        {
          "indexed": true,
          "internalType": "address",
          "name": "account",
          "type": "address"
        },
        {
          "indexed": true,
          "internalType": "address",
          "name": "operator",
          "type": "address"
        },
        {
          "indexed": false,
          "internalType": "bool",
          "name": "approved",
          "type": "bool"
        }
      ],
      "name": "ApprovalForAll",
      "type": "event"
    },
    {
      "anonymous": false,
      "inputs": [
        {
          "indexed": false,
          "internalType": "address",
          "name": "account",
          "type": "address"
        }
      ],
      "name": "Paused",
      "type": "event"
    },
    {
      "anonymous": false,
      "inputs": [
        {
          "indexed": true,
          "internalType": "bytes32",
          "name": "role",
          "type": "bytes32"
        },
        {
          "indexed": true,
          "internalType": "bytes32",
          "name": "previousAdminRole",
          "type": "bytes32"
        },
        {
          "indexed": true,
          "internalType": "bytes32",
          "name": "newAdminRole",
          "type": "bytes32"
        }
      ],
      "name": "RoleAdminChanged",
      "type": "event"
    },
    {
      "anonymous": false,
      "inputs": [
        {
          "indexed": true,
          "internalType": "bytes32",
          "name": "role",
          "type": "bytes32"
        },
        {
          "indexed": true,
          "internalType": "address",
          "name": "account",
          "type": "address"
        },
        {
          "indexed": true,
          "internalType": "address",
          "name": "sender",
          "type": "address"
        }
      ],
      "name": "RoleGranted",
      "type": "event"
    },
    {
      "anonymous": false,
      "inputs": [
        {
          "indexed": true,
          "internalType": "bytes32",
          "name": "role",
          "type": "bytes32"
        },
        {
          "indexed": true,
          "internalType": "address",
          "name": "account",
          "type": "address"
        },
        {
          "indexed": true,
          "internalType": "address",
          "name": "sender",
          "type": "address"
        }
      ],
      "name": "RoleRevoked",
      "type": "event"
    },
    {
      "anonymous": false,
      "inputs": [
        {
          "indexed": true,
          "internalType": "address",
          "name": "operator",
          "type": "address"
        },
        {
          "indexed": true,
          "internalType": "address",
          "name": "from",
          "type": "address"
        },
        {
          "indexed": true,
          "internalType": "address",
          "name": "to",
          "type": "address"
        },
        {
          "indexed": false,
          "internalType": "uint256[]",
          "name": "ids",
          "type": "uint256[]"
        },
        {
          "indexed": false,
          "internalType": "uint256[]",
          "name": "values",
          "type": "uint256[]"
        }
      ],
      "name": "TransferBatch",
      "type": "event"
    },
    {
      "anonymous": false,
      "inputs": [
        {
          "indexed": true,
          "internalType": "address",
          "name": "operator",
          "type": "address"
        },
        {
          "indexed": true,
          "internalType": "address",
          "name": "from",
          "type": "address"
        },
        {
          "indexed": true,
          "internalType": "address",
          "name": "to",
          "type": "address"
        },
        {
          "indexed": false,
          "internalType": "uint256",
          "name": "id",
          "type": "uint256"
        },
        {
          "indexed": false,
          "internalType": "uint256",
          "name": "value",
          "type": "uint256"
        }
      ],
      "name": "TransferSingle",
      "type": "event"
    },
    {
      "anonymous": false,
      "inputs": [
        {
          "indexed": false,
          "internalType": "string",
          "name": "value",
          "type": "string"
        },
        {
          "indexed": true,
          "internalType": "uint256",
          "name": "id",
          "type": "uint256"
        }
      ],
      "name": "URI",
      "type": "event"
    },
    {
      "anonymous": false,
      "inputs": [
        {
          "indexed": false,
          "internalType": "address",
          "name": "account",
          "type": "address"
        }
      ],
      "name": "Unpaused",
      "type": "event"
    },
    {
      "inputs": [],
      "name": "DEFAULT_ADMIN_ROLE",
      "outputs": [
        {
          "internalType": "bytes32",
          "name": "",
          "type": "bytes32"
        }
      ],
      "stateMutability": "view",
      "type": "function"
    },
    {
      "inputs": [],
      "name": "MINTER_ROLE",
      "outputs": [
        {
          "internalType": "bytes32",
          "name": "",
          "type": "bytes32"
        }
      ],
      "stateMutability": "view",
      "type": "function"
    },
    {
      "inputs": [],
      "name": "PAUSER_ROLE",
      "outputs": [
        {
          "internalType": "bytes32",
          "name": "",
          "type": "bytes32"
        }
      ],
      "stateMutability": "view",
      "type": "function"
    },
    {
      "inputs": [
        {
          "internalType": "string",
          "name": "nfttype",
          "type": "string"
        }
      ],
      "name": "appendBlindBoxId",
      "outputs": [
        {
          "internalType": "uint16",
          "name": "",
          "type": "uint16"
        }
      ],
      "stateMutability": "payable",
      "type": "function"
    },
    {
      "inputs": [
        {
          "internalType": "address",
          "name": "account",
          "type": "address"
        },
        {
          "internalType": "uint256",
          "name": "id",
          "type": "uint256"
        }
      ],
      "name": "balanceOf",
      "outputs": [
        {
          "internalType": "uint256",
          "name": "",
          "type": "uint256"
        }
      ],
      "stateMutability": "view",
      "type": "function"
    },
    {
      "inputs": [
        {
          "internalType": "address[]",
          "name": "accounts",
          "type": "address[]"
        },
        {
          "internalType": "uint256[]",
          "name": "ids",
          "type": "uint256[]"
        }
      ],
      "name": "balanceOfBatch",
      "outputs": [
        {
          "internalType": "uint256[]",
          "name": "",
          "type": "uint256[]"
        }
      ],
      "stateMutability": "view",
      "type": "function"
    },
    {
      "inputs": [],
      "name": "brandCount",
      "outputs": [
        {
          "internalType": "uint32",
          "name": "",
          "type": "uint32"
        }
      ],
      "stateMutability": "view",
      "type": "function"
    },
    {
      "inputs": [
        {
          "internalType": "string",
          "name": "name",
          "type": "string"
        }
      ],
      "name": "brandId",
      "outputs": [
        {
          "internalType": "uint32",
          "name": "",
          "type": "uint32"
        }
      ],
      "stateMutability": "view",
      "type": "function"
    },
    {
      "inputs": [
        {
          "internalType": "uint32",
          "name": "id",
          "type": "uint32"
        }
      ],
      "name": "brandName",
      "outputs": [
        {
          "internalType": "string",
          "name": "",
          "type": "string"
        }
      ],
      "stateMutability": "view",
      "type": "function"
    },
    {
      "inputs": [
        {
          "internalType": "address",
          "name": "account",
          "type": "address"
        },
        {
          "internalType": "uint256",
          "name": "id",
          "type": "uint256"
        },
        {
          "internalType": "uint256",
          "name": "value",
          "type": "uint256"
        }
      ],
      "name": "burn",
      "outputs": [],
      "stateMutability": "nonpayable",
      "type": "function"
    },
    {
      "inputs": [
        {
          "internalType": "address",
          "name": "account",
          "type": "address"
        },
        {
          "internalType": "uint256[]",
          "name": "ids",
          "type": "uint256[]"
        },
        {
          "internalType": "uint256[]",
          "name": "values",
          "type": "uint256[]"
        }
      ],
      "name": "burnBatch",
      "outputs": [],
      "stateMutability": "nonpayable",
      "type": "function"
    },
    {
      "inputs": [
        {
          "internalType": "string",
          "name": "nfttype",
          "type": "string"
        }
      ],
      "name": "cancelBlindBoxId",
      "outputs": [
        {
          "internalType": "uint16",
          "name": "",
          "type": "uint16"
        }
      ],
      "stateMutability": "payable",
      "type": "function"
    },
    {
      "inputs": [
        {
          "internalType": "address",
          "name": "to",
          "type": "address"
        },
        {
          "internalType": "uint256",
          "name": "id",
          "type": "uint256"
        },
        {
          "internalType": "bytes",
          "name": "data",
          "type": "bytes"
        }
      ],
      "name": "exchangeBlindBox",
      "outputs": [
        {
          "internalType": "uint256",
          "name": "",
          "type": "uint256"
        }
      ],
      "stateMutability": "payable",
      "type": "function"
    },
    {
      "inputs": [
        {
          "internalType": "bytes32",
          "name": "role",
          "type": "bytes32"
        }
      ],
      "name": "getRoleAdmin",
      "outputs": [
        {
          "internalType": "bytes32",
          "name": "",
          "type": "bytes32"
        }
      ],
      "stateMutability": "view",
      "type": "function"
    },
    {
      "inputs": [
        {
          "internalType": "bytes32",
          "name": "role",
          "type": "bytes32"
        },
        {
          "internalType": "uint256",
          "name": "index",
          "type": "uint256"
        }
      ],
      "name": "getRoleMember",
      "outputs": [
        {
          "internalType": "address",
          "name": "",
          "type": "address"
        }
      ],
      "stateMutability": "view",
      "type": "function"
    },
    {
      "inputs": [
        {
          "internalType": "bytes32",
          "name": "role",
          "type": "bytes32"
        }
      ],
      "name": "getRoleMemberCount",
      "outputs": [
        {
          "internalType": "uint256",
          "name": "",
          "type": "uint256"
        }
      ],
      "stateMutability": "view",
      "type": "function"
    },
    {
      "inputs": [
        {
          "internalType": "bytes32",
          "name": "role",
          "type": "bytes32"
        },
        {
          "internalType": "address",
          "name": "account",
          "type": "address"
        }
      ],
      "name": "grantRole",
      "outputs": [],
      "stateMutability": "nonpayable",
      "type": "function"
    },
    {
      "inputs": [
        {
          "internalType": "bytes32",
          "name": "role",
          "type": "bytes32"
        },
        {
          "internalType": "address",
          "name": "account",
          "type": "address"
        }
      ],
      "name": "hasRole",
      "outputs": [
        {
          "internalType": "bool",
          "name": "",
          "type": "bool"
        }
      ],
      "stateMutability": "view",
      "type": "function"
    },
    {
      "inputs": [
        {
          "internalType": "string",
          "name": "uri",
          "type": "string"
        }
      ],
      "name": "initialize",
      "outputs": [],
      "stateMutability": "nonpayable",
      "type": "function"
    },
    {
      "inputs": [
        {
          "internalType": "address",
          "name": "account",
          "type": "address"
        },
        {
          "internalType": "address",
          "name": "operator",
          "type": "address"
        }
      ],
      "name": "isApprovedForAll",
      "outputs": [
        {
          "internalType": "bool",
          "name": "",
          "type": "bool"
        }
      ],
      "stateMutability": "view",
      "type": "function"
    },
    {
      "inputs": [
        {
          "internalType": "uint16",
          "name": "nfttype",
          "type": "uint16"
        }
      ],
      "name": "isBlindBox",
      "outputs": [
        {
          "internalType": "bool",
          "name": "",
          "type": "bool"
        }
      ],
      "stateMutability": "view",
      "type": "function"
    },
    {
      "inputs": [
        {
          "internalType": "uint16",
          "name": "nfttype",
          "type": "uint16"
        }
      ],
      "name": "isExchange",
      "outputs": [
        {
          "internalType": "bool",
          "name": "",
          "type": "bool"
        }
      ],
      "stateMutability": "view",
      "type": "function"
    },
    {
      "inputs": [
        {
          "internalType": "address",
          "name": "to",
          "type": "address"
        },
        {
          "internalType": "uint256",
          "name": "id",
          "type": "uint256"
        },
        {
          "internalType": "uint256",
          "name": "amount",
          "type": "uint256"
        },
        {
          "internalType": "bytes",
          "name": "data",
          "type": "bytes"
        }
      ],
      "name": "mint",
      "outputs": [],
      "stateMutability": "nonpayable",
      "type": "function"
    },
    {
      "inputs": [
        {
          "internalType": "address",
          "name": "to",
          "type": "address"
        },
        {
          "internalType": "uint256[]",
          "name": "ids",
          "type": "uint256[]"
        },
        {
          "internalType": "uint256[]",
          "name": "amounts",
          "type": "uint256[]"
        },
        {
          "internalType": "bytes",
          "name": "data",
          "type": "bytes"
        }
      ],
      "name": "mintBatch",
      "outputs": [],
      "stateMutability": "nonpayable",
      "type": "function"
    },
    {
      "inputs": [
        {
          "internalType": "address",
          "name": "to",
          "type": "address"
        },
        {
          "internalType": "string",
          "name": "brand",
          "type": "string"
        },
        {
          "internalType": "bytes",
          "name": "data",
          "type": "bytes"
        }
      ],
      "name": "mintBrand",
      "outputs": [
        {
          "internalType": "uint256",
          "name": "",
          "type": "uint256"
        }
      ],
      "stateMutability": "payable",
      "type": "function"
    },
    {
      "inputs": [
        {
          "internalType": "address",
          "name": "to",
          "type": "address"
        },
        {
          "internalType": "string",
          "name": "brand",
          "type": "string"
        },
        {
          "internalType": "string",
          "name": "btype",
          "type": "string"
        },
        {
          "internalType": "string",
          "name": "quality",
          "type": "string"
        },
        {
          "internalType": "string",
          "name": "nfttype",
          "type": "string"
        },
        {
          "internalType": "bytes",
          "name": "data",
          "type": "bytes"
        }
      ],
      "name": "mintQuality",
      "outputs": [
        {
          "internalType": "uint256",
          "name": "",
          "type": "uint256"
        }
      ],
      "stateMutability": "payable",
      "type": "function"
    },
    {
      "inputs": [
        {
          "internalType": "address",
          "name": "to",
          "type": "address"
        },
        {
          "internalType": "uint256",
          "name": "qualityid",
          "type": "uint256"
        },
        {
          "internalType": "uint256",
          "name": "amount",
          "type": "uint256"
        },
        {
          "internalType": "bytes",
          "name": "data",
          "type": "bytes"
        }
      ],
      "name": "mintSubToken",
      "outputs": [
        {
          "internalType": "uint256",
          "name": "",
          "type": "uint256"
        }
      ],
      "stateMutability": "payable",
      "type": "function"
    },
    {
      "inputs": [
        {
          "internalType": "address",
          "name": "to",
          "type": "address"
        },
        {
          "internalType": "string",
          "name": "brand",
          "type": "string"
        },
        {
          "internalType": "string",
          "name": "btype",
          "type": "string"
        },
        {
          "internalType": "bytes",
          "name": "data",
          "type": "bytes"
        }
      ],
      "name": "mintType",
      "outputs": [
        {
          "internalType": "uint256",
          "name": "",
          "type": "uint256"
        }
      ],
      "stateMutability": "payable",
      "type": "function"
    },
    {
      "inputs": [],
      "name": "nftTypeCount",
      "outputs": [
        {
          "internalType": "uint16",
          "name": "",
          "type": "uint16"
        }
      ],
      "stateMutability": "view",
      "type": "function"
    },
    {
      "inputs": [
        {
          "internalType": "uint16",
          "name": "id",
          "type": "uint16"
        }
      ],
      "name": "nftTypeName",
      "outputs": [
        {
          "internalType": "string",
          "name": "",
          "type": "string"
        }
      ],
      "stateMutability": "view",
      "type": "function"
    },
    {
      "inputs": [],
      "name": "pause",
      "outputs": [],
      "stateMutability": "nonpayable",
      "type": "function"
    },
    {
      "inputs": [],
      "name": "paused",
      "outputs": [
        {
          "internalType": "bool",
          "name": "",
          "type": "bool"
        }
      ],
      "stateMutability": "view",
      "type": "function"
    },
    {
      "inputs": [],
      "name": "qualityCount",
      "outputs": [
        {
          "internalType": "uint16",
          "name": "",
          "type": "uint16"
        }
      ],
      "stateMutability": "view",
      "type": "function"
    },
    {
      "inputs": [
        {
          "internalType": "string",
          "name": "name",
          "type": "string"
        }
      ],
      "name": "qualityId",
      "outputs": [
        {
          "internalType": "uint16",
          "name": "",
          "type": "uint16"
        }
      ],
      "stateMutability": "view",
      "type": "function"
    },
    {
      "inputs": [
        {
          "internalType": "uint16",
          "name": "id",
          "type": "uint16"
        }
      ],
      "name": "qualityName",
      "outputs": [
        {
          "internalType": "string",
          "name": "",
          "type": "string"
        }
      ],
      "stateMutability": "view",
      "type": "function"
    },
    {
      "inputs": [
        {
          "internalType": "bytes32",
          "name": "role",
          "type": "bytes32"
        },
        {
          "internalType": "address",
          "name": "account",
          "type": "address"
        }
      ],
      "name": "renounceRole",
      "outputs": [],
      "stateMutability": "nonpayable",
      "type": "function"
    },
    {
      "inputs": [
        {
          "internalType": "bytes32",
          "name": "role",
          "type": "bytes32"
        },
        {
          "internalType": "address",
          "name": "account",
          "type": "address"
        }
      ],
      "name": "revokeRole",
      "outputs": [],
      "stateMutability": "nonpayable",
      "type": "function"
    },
    {
      "inputs": [
        {
          "internalType": "address",
          "name": "from",
          "type": "address"
        },
        {
          "internalType": "address",
          "name": "to",
          "type": "address"
        },
        {
          "internalType": "uint256[]",
          "name": "ids",
          "type": "uint256[]"
        },
        {
          "internalType": "uint256[]",
          "name": "amounts",
          "type": "uint256[]"
        },
        {
          "internalType": "bytes",
          "name": "data",
          "type": "bytes"
        }
      ],
      "name": "safeBatchTransferFrom",
      "outputs": [],
      "stateMutability": "nonpayable",
      "type": "function"
    },
    {
      "inputs": [
        {
          "internalType": "address",
          "name": "from",
          "type": "address"
        },
        {
          "internalType": "address",
          "name": "to",
          "type": "address"
        },
        {
          "internalType": "uint256",
          "name": "id",
          "type": "uint256"
        },
        {
          "internalType": "uint256",
          "name": "amount",
          "type": "uint256"
        },
        {
          "internalType": "bytes",
          "name": "data",
          "type": "bytes"
        }
      ],
      "name": "safeTransferFrom",
      "outputs": [],
      "stateMutability": "nonpayable",
      "type": "function"
    },
    {
      "inputs": [
        {
          "internalType": "address",
          "name": "operator",
          "type": "address"
        },
        {
          "internalType": "bool",
          "name": "approved",
          "type": "bool"
        }
      ],
      "name": "setApprovalForAll",
      "outputs": [],
      "stateMutability": "nonpayable",
      "type": "function"
    },
    {
      "inputs": [
        {
          "internalType": "bytes4",
          "name": "interfaceId",
          "type": "bytes4"
        }
      ],
      "name": "supportsInterface",
      "outputs": [
        {
          "internalType": "bool",
          "name": "",
          "type": "bool"
        }
      ],
      "stateMutability": "view",
      "type": "function"
    },
    {
      "inputs": [],
      "name": "tokenCount",
      "outputs": [
        {
          "internalType": "uint256",
          "name": "",
          "type": "uint256"
        }
      ],
      "stateMutability": "view",
      "type": "function"
    },
    {
      "inputs": [
        {
          "internalType": "uint256",
          "name": "id",
          "type": "uint256"
        }
      ],
      "name": "tokenExists",
      "outputs": [
        {
          "internalType": "bool",
          "name": "",
          "type": "bool"
        }
      ],
      "stateMutability": "view",
      "type": "function"
    },
    {
      "inputs": [
        {
          "internalType": "uint256",
          "name": "index",
          "type": "uint256"
        }
      ],
      "name": "tokenId",
      "outputs": [
        {
          "internalType": "uint256",
          "name": "",
          "type": "uint256"
        }
      ],
      "stateMutability": "view",
      "type": "function"
    },
    {
      "inputs": [
        {
          "internalType": "uint256",
          "name": "id",
          "type": "uint256"
        }
      ],
      "name": "tokenTotleAmount",
      "outputs": [
        {
          "internalType": "uint256",
          "name": "",
          "type": "uint256"
        }
      ],
      "stateMutability": "view",
      "type": "function"
    },
    {
      "inputs": [],
      "name": "typeCount",
      "outputs": [
        {
          "internalType": "uint16",
          "name": "",
          "type": "uint16"
        }
      ],
      "stateMutability": "view",
      "type": "function"
    },
    {
      "inputs": [
        {
          "internalType": "string",
          "name": "name",
          "type": "string"
        }
      ],
      "name": "typeId",
      "outputs": [
        {
          "internalType": "uint16",
          "name": "",
          "type": "uint16"
        }
      ],
      "stateMutability": "view",
      "type": "function"
    },
    {
      "inputs": [
        {
          "internalType": "uint16",
          "name": "id",
          "type": "uint16"
        }
      ],
      "name": "typeName",
      "outputs": [
        {
          "internalType": "string",
          "name": "",
          "type": "string"
        }
      ],
      "stateMutability": "view",
      "type": "function"
    },
    {
      "inputs": [],
      "name": "unpause",
      "outputs": [],
      "stateMutability": "nonpayable",
      "type": "function"
    },
    {
      "inputs": [
        {
          "internalType": "uint256",
          "name": "",
          "type": "uint256"
        }
      ],
      "name": "uri",
      "outputs": [
        {
          "internalType": "string",
          "name": "",
          "type": "string"
        }
      ],
      "stateMutability": "view",
      "type": "function"
    }
  ],
  "bytecode": "0x608060405234801561001057600080fd5b5061524e806100206000396000f3fe6080604052600436106102c65760003560e01c8063731133e911610175578063c7e339ca116100dc578063e767aea411610095578063f242432a1161006f578063f242432a1461082a578063f5298aca1461084a578063f62d18881461086a578063f70cc9481461088a576102c6565b8063e767aea4146107ca578063e985e9c5146107ea578063f226947a1461080a576102c6565b8063c7e339ca1461072b578063c7f57ecf14610740578063ca15c87314610760578063d539139314610780578063d547741f14610795578063e63ab1e9146107b5576102c6565b806391d148541161012e57806391d148541461067f578063992cc7c21461069f5780639aa3491f146106bf5780639f181b5e146106e1578063a217fddf146106f6578063a22cb4651461070b576102c6565b8063731133e9146105c857806376c67e23146105e85780637dcb0e5f146106085780638456cb59146106285780639010d07c1461063d578063913d9e1b1461066a576102c6565b8063348a032c11610234578063565f6819116101ed578063602d7fe6116101c7578063602d7fe614610560578063683808e2146105755780636b20c454146105885780636fa971a5146105a8576102c6565b8063565f68191461052557806357c9ede3146105385780635c975abb1461054b576102c6565b8063348a032c1461048a57806336568abe1461049d5780633ef093c7146104bd5780633f4ba83a146104d0578063403298a1146104e55780634e1273f4146104f8576102c6565b80631f7fdffa116102865780631f7fdffa146103bb578063212caabd146103dd578063248a9ca3146103fd5780632eb2c2d61461041d5780632f2ff15d1461043d578063310037381461045d576102c6565b8062923f9e146102cb57806293f1a414610301578062fdd58e1461032e57806301ffc9a71461035b5780630e89341c1461037b5780631d0c9cf81461039b575b600080fd5b3480156102d757600080fd5b506102eb6102e63660046142b3565b61089d565b6040516102f89190614600565b60405180910390f35b34801561030d57600080fd5b5061032161031c3660046143d2565b6108b6565b6040516102f89190614614565b34801561033a57600080fd5b5061034e61034936600461409e565b61095e565b6040516102f8919061460b565b34801561036757600080fd5b506102eb61037636600461430e565b6109ba565b34801561038757600080fd5b506103216103963660046142b3565b6109c5565b3480156103a757600080fd5b5061034e6103b63660046142b3565b6109d4565b3480156103c757600080fd5b506103db6103d6366004613dad565b6109e7565b005b3480156103e957600080fd5b506103216103f83660046143d2565b610a2f565b34801561040957600080fd5b5061034e6104183660046142b3565b610a52565b34801561042957600080fd5b506103db610438366004613c36565b610a67565b34801561044957600080fd5b506103db6104583660046142cb565b610cd0565b34801561046957600080fd5b5061047d610478366004614346565b610cf7565b6040516102f89190614ef2565b61034e610498366004613f9e565b610d28565b3480156104a957600080fd5b506103db6104b83660046142cb565b610ff1565b61034e6104cb3660046140c7565b611013565b3480156104dc57600080fd5b506103db6111e3565b61034e6104f3366004613ef8565b611223565b34801561050457600080fd5b506105186105133660046141f6565b611388565b6040516102f891906145bf565b61047d610533366004614346565b6114a7565b61034e610546366004614150565b61154e565b34801561055757600080fd5b506102eb611615565b34801561056c57600080fd5b5061047d611620565b61034e610583366004613e7b565b61162b565b34801561059457600080fd5b506103db6105a3366004613d3d565b611720565b3480156105b457600080fd5b5061047d6105c3366004614346565b611775565b3480156105d457600080fd5b506103db6105e33660046141a4565b61178a565b3480156105f457600080fd5b506102eb6106033660046143d2565b6117cc565b34801561061457600080fd5b5061034e6106233660046142b3565b61181f565b34801561063457600080fd5b506103db611832565b34801561064957600080fd5b5061065d6106583660046142ed565b611870565b6040516102f8919061451f565b34801561067657600080fd5b5061047d61188f565b34801561068b57600080fd5b506102eb61069a3660046142cb565b61189a565b3480156106ab57600080fd5b506103216106ba3660046143f4565b6118c5565b3480156106cb57600080fd5b506106d46118ea565b6040516102f89190614f0f565b3480156106ed57600080fd5b5061034e6118fe565b34801561070257600080fd5b5061034e611905565b34801561071757600080fd5b506103db610726366004613e41565b61190a565b34801561073757600080fd5b5061047d6119d8565b34801561074c57600080fd5b5061032161075b3660046143d2565b6119e3565b34801561076c57600080fd5b5061034e61077b3660046142b3565b611a06565b34801561078c57600080fd5b5061034e611a1d565b3480156107a157600080fd5b506103db6107b03660046142cb565b611a2f565b3480156107c157600080fd5b5061034e611a39565b3480156107d657600080fd5b506106d46107e5366004614346565b611a4b565b3480156107f657600080fd5b506102eb610805366004613c04565b611a7e565b34801561081657600080fd5b506102eb6108253660046143d2565b611aac565b34801561083657600080fd5b506103db610845366004613cdb565b611ac6565b34801561085657600080fd5b506103db61086536600461411e565b611c60565b34801561087657600080fd5b506103db610885366004614385565b611cb5565b61047d610898366004614346565b611d34565b60008181526101c6602052604090205460ff165b919050565b61ffff811660009081526101ce602052604090208054606091906108d990615064565b80601f016020809104026020016040519081016040528092919081815260200182805461090590615064565b80156109525780601f1061092757610100808354040283529160200191610952565b820191906000526020600020905b81548152906001019060200180831161093557829003601f168201915b50505050509050919050565b60006001600160a01b03831661098f5760405162461bcd60e51b815260040161098690614768565b60405180910390fd5b50600081815260c9602090815260408083206001600160a01b03861684529091529020545b92915050565b60006109b482611d95565b606060cb80546108d990615064565b60009081526101c5602052604090205490565b610a016000805160206151f983398151915261069a611dd5565b610a1d5760405162461bcd60e51b815260040161098690614af7565b610a2984848484611dd9565b50505050565b61ffff811660009081526101cb602052604090208054606091906108d990615064565b60009081526065602052604090206001015490565b8151835114610a885760405162461bcd60e51b815260040161098690614e1a565b6001600160a01b038416610aae5760405162461bcd60e51b81526004016109869061496f565b610ab6611dd5565b6001600160a01b0316856001600160a01b03161480610adc5750610adc85610805611dd5565b610af85760405162461bcd60e51b8152600401610986906149b4565b6000610b02611dd5565b9050610b12818787878787611f62565b60005b8451811015610c62576000858281518110610b4057634e487b7160e01b600052603260045260246000fd5b602002602001015190506000858381518110610b6c57634e487b7160e01b600052603260045260246000fd5b602090810291909101810151600084815260c9835260408082206001600160a01b038e168352909352919091205490915081811015610bbd5760405162461bcd60e51b815260040161098690614b54565b610bc7828261500a565b60c9600085815260200190815260200160002060008c6001600160a01b03166001600160a01b03168152602001908152602001600020819055508160c9600085815260200190815260200160002060008b6001600160a01b03166001600160a01b031681526020019081526020016000206000828254610c479190614f92565b9250508190555050505080610c5b9061509f565b9050610b15565b50846001600160a01b0316866001600160a01b0316826001600160a01b03167f4a39dc06d4c0dbc64b70af90fd698a233a518aa5d07e595d983b8c0526c8f7fb8787604051610cb29291906145d2565b60405180910390a4610cc8818787878787612175565b505050505050565b610cda8282612283565b6000828152609760205260409020610cf290826122a7565b505050565b60006101cc8383604051610d0c92919061447e565b9081526040519081900360200190205461ffff16905092915050565b6000806101c98c8c604051610d3e92919061447e565b9081526040519081900360200190205463ffffffff1611610d715760405162461bcd60e51b815260040161098690614d43565b60006101cc8a8a604051610d8692919061447e565b9081526040519081900360200190205461ffff1611610db75760405162461bcd60e51b81526004016109869061492c565b6000610e8f6101c98d8d604051610dcf92919061447e565b9081526040519081900360200181205463ffffffff16906101cc90610df7908e908e9061447e565b90815260408051918290036020908101832054601f8d018290048202840182019092528b835261ffff90911691610e48918d908d90819084018382808284376000920191909152506122bc92505050565b610e878a8a8080601f0160208091040260200160405190810160405280939291908181526020018383808284376000920191909152506123aa92505050565b600080612678565b9050610f6f6101c98d8d604051610ea792919061447e565b9081526040519081900360200181205463ffffffff16906101cc90610ecf908e908e9061447e565b90815260408051918290036020908101832054601f8d018290048202840182019092528b835261ffff90911691610f20918d908d90819084018382808284376000920191909152506122bc92505050565b610f5f8a8a8080601f0160208091040260200160405190810160405280939291908181526020018383808284376000920191909152506123aa92505050565b610f68866127de565b6000612678565b905060016101d6600083815260200190815260200160002060006101000a81548160ff021916908315150217905550610fe18d82600187878080601f01602080910402602001604051908101604052809392919081815260200183838082843760009201919091525061178a92505050565b9c9b505050505050505050505050565b610ffb828261282d565b6000828152609760205260409020610cf2908261286f565b60008061101f85612884565b9050600061102b611dd5565b90506000611052836060015184608001518560a001518660c001518760e001516000612678565b610100840151909150429063ffffffff1661107f5760405162461bcd60e51b815260040161098690614bca565b60008281526101d6602052604090205460ff1615156001146110b35760405162461bcd60e51b815260040161098690614a8b565b60c084015161ffff1660009081526101d3602052604090205460ff1615156001146110f05760405162461bcd60e51b815260040161098690614caf565b6110fa838961095e565b6001146111195760405162461bcd60e51b815260040161098690614c01565b61112583896001611c60565b611174846060015161113683612908565b61113f84612928565b6111686040518060400160405280600881526020016765786368616e676560c01b8152506123aa565b8860e001516000612678565b915060006111818361293d565b6111919063ffffffff1684614f92565b90506111d68a8260018b8b8080601f01602080910402602001604051908101604052809392919081815260200183838082843760009201919091525061298c92505050565b9998505050505050505050565b6111fd6000805160206151d983398151915261069a611dd5565b6112195760405162461bcd60e51b815260040161098690614c52565b611221612a6e565b565b6000806101c9888860405161123992919061447e565b9081526040519081900360200190205463ffffffff1690508061126e5760405162461bcd60e51b815260040161098690614d43565b60006112af87878080601f016020809104026020016040519081016040528093929190818152602001838380828437600092019190915250612add92505050565b905060008161ffff16116112d55760405162461bcd60e51b815260040161098690614c2c565b60006112e78383600080600080612678565b60008181526101d6602052604090205490915060ff161561131a5760405162461bcd60e51b8152600401610986906147f7565b60008181526101d66020908152604091829020805460ff191660019081179091558251601f890183900483028101830190935287835261137a928e92859291908b908b908190840183828082843760009201919091525061178a92505050565b9a9950505050505050505050565b606081518351146113ab5760405162461bcd60e51b815260040161098690614dd1565b600083516001600160401b038111156113d457634e487b7160e01b600052604160045260246000fd5b6040519080825280602002602001820160405280156113fd578160200160208202803683370190505b50905060005b845181101561149f5761146485828151811061142f57634e487b7160e01b600052603260045260246000fd5b602002602001015185838151811061145757634e487b7160e01b600052603260045260246000fd5b602002602001015161095e565b82828151811061148457634e487b7160e01b600052603260045260246000fd5b60209081029190910101526114988161509f565b9050611403565b509392505050565b6000806101d284846040516114bd92919061447e565b9081526040519081900360200190205461ffff16116114ee5760405162461bcd60e51b8152600401610986906148b6565b60016101d360006101d2868660405161150892919061447e565b90815260408051602092819003830190205461ffff168352908201929092528101600020805460ff191692151592909217909155516101d290610d0c908590859061447e565b60008481526101d6602052604081205460ff1615156001146115825760405162461bcd60e51b815260040161098690614a54565b6000805b8581101561160a5760006115998861293d565b6115a99063ffffffff1689614f92565b9050826115b4578092505b6115f78982600189898080601f01602080910402602001604051908101604052809392919081815260200183838082843760009201919091525061178a92505050565b50806116028161509f565b915050611586565b509695505050505050565b61012d5460ff165b90565b6101ca5461ffff1690565b60008061166d86868080601f016020809104026020016040519081016040528093929190818152602001838380828437600092019190915250612bb092505050565b90506000611682826000806000806000612678565b60008181526101d6602052604090205490915060ff16156116b55760405162461bcd60e51b815260040161098690614b9e565b60008181526101d66020908152604091829020805460ff191660019081179091558251601f8801839004830281018301909352868352611715928b92859291908a908a908190840183828082843760009201919091525061178a92505050565b979650505050505050565b611728611dd5565b6001600160a01b0316836001600160a01b0316148061174e575061174e83610805611dd5565b61176a5760405162461bcd60e51b81526004016109869061486d565b610cf2838383612cd1565b60006101cf8383604051610d0c92919061447e565b6117a46000805160206151f983398151915261069a611dd5565b6117c05760405162461bcd60e51b815260040161098690614af7565b610a298484848461298c565b60006101d26040518060400160405280600881526020016765786368616e676560c01b8152506040516117ff919061448e565b9081526040519081900360200190205461ffff8381169116149050919050565b60009081526101c4602052604090205490565b61184c6000805160206151d983398151915261069a611dd5565b6118685760405162461bcd60e51b815260040161098690614ce6565b611221612e92565b60008281526097602052604081206118889083612eee565b9392505050565b6101d05461ffff1690565b60009182526065602090815260408084206001600160a01b0393909316845291905290205460ff1690565b63ffffffff811660009081526101c8602052604090208054606091906108d990615064565b6101c754600160701b900463ffffffff1690565b6101c35490565b600081565b816001600160a01b031661191c611dd5565b6001600160a01b031614156119435760405162461bcd60e51b815260040161098690614d88565b8060ca6000611950611dd5565b6001600160a01b03908116825260208083019390935260409182016000908120918716808252919093529120805460ff191692151592909217909155611994611dd5565b6001600160a01b03167f17307eab39ab6107e8899845ad3d59bd9653f200f220920489ca2b5937696c31836040516119cc9190614600565b60405180910390a35050565b6101cd5461ffff1690565b61ffff811660009081526101d1602052604090208054606091906108d990615064565b60008181526097602052604081206109b490612efa565b6000805160206151f983398151915281565b610ffb8282612f05565b6000805160206151d983398151915281565b60006101c98383604051611a6092919061447e565b9081526040519081900360200190205463ffffffff16905092915050565b6001600160a01b03918216600090815260ca6020908152604080832093909416825291909152205460ff1690565b61ffff1660009081526101d3602052604090205460ff1690565b6001600160a01b038416611aec5760405162461bcd60e51b81526004016109869061496f565b611af4611dd5565b6001600160a01b0316856001600160a01b03161480611b1a5750611b1a85610805611dd5565b611b365760405162461bcd60e51b81526004016109869061486d565b6000611b40611dd5565b9050611b60818787611b5188612f24565b611b5a88612f24565b87611f62565b600084815260c9602090815260408083206001600160a01b038a16845290915290205483811015611ba35760405162461bcd60e51b815260040161098690614b54565b611bad848261500a565b600086815260c9602090815260408083206001600160a01b038c81168552925280832093909355881681529081208054869290611beb908490614f92565b92505081905550856001600160a01b0316876001600160a01b0316836001600160a01b03167fc3d58168c5ae7397731d063d5bbf3d657854427343f4c083240f7aacaa2d0f628888604051611c41929190614f01565b60405180910390a4611c57828888888888612f7d565b50505050505050565b611c68611dd5565b6001600160a01b0316836001600160a01b03161480611c8e5750611c8e83610805611dd5565b611caa5760405162461bcd60e51b81526004016109869061486d565b610cf283838361304e565b600054610100900460ff1680611cce575060005460ff16155b611cea5760405162461bcd60e51b815260040161098690614a06565b600054610100900460ff16158015611d15576000805460ff1961ff0019909116610100171660011790555b611d1e8261316b565b8015611d30576000805461ff00191690555b5050565b6000806101d28484604051611d4a92919061447e565b9081526040519081900360200190205461ffff1611611d7b5760405162461bcd60e51b8152600401610986906148b6565b60006101d360006101d2868660405161150892919061447e565b60006001600160e01b03198216636cdb3d1360e11b1480611dc657506001600160e01b031982166303a24d0760e21b145b806109b457506109b482613215565b3390565b6001600160a01b038416611dff5760405162461bcd60e51b815260040161098690614e62565b8151835114611e205760405162461bcd60e51b815260040161098690614e1a565b6000611e2a611dd5565b9050611e3b81600087878787611f62565b60005b8451811015611ef357838181518110611e6757634e487b7160e01b600052603260045260246000fd5b602002602001015160c96000878481518110611e9357634e487b7160e01b600052603260045260246000fd5b602002602001015181526020019081526020016000206000886001600160a01b03166001600160a01b031681526020019081526020016000206000828254611edb9190614f92565b90915550819050611eeb8161509f565b915050611e3e565b50846001600160a01b031660006001600160a01b0316826001600160a01b03167f4a39dc06d4c0dbc64b70af90fd698a233a518aa5d07e595d983b8c0526c8f7fb8787604051611f449291906145d2565b60405180910390a4611f5b81600087878787612175565b5050505050565b611f7086868686868661323a565b6001600160a01b038516158015611f8f57506001600160a01b03841615155b156120975760005b8351811015612091576000848281518110611fc257634e487b7160e01b600052603260045260246000fd5b60209081029190910181015160008181526101c690925260409091205490915060ff1661202c576101c3805460009081526101c4602090815260408083208590558483526101c69091529020805460ff19166001908117909155905461202791614f92565b6101c3555b83828151811061204c57634e487b7160e01b600052603260045260246000fd5b60200260200101516101c5600083815260200190815260200160002060008282546120779190614f92565b9091555082915061208990508161509f565b915050611f97565b50610cc8565b6001600160a01b038516158015906120b657506001600160a01b038416155b15610cc85760005b8351811015611c575760008482815181106120e957634e487b7160e01b600052603260045260246000fd5b60209081029190910181015160008181526101c690925260409091205490915060ff16156121625783828151811061213157634e487b7160e01b600052603260045260246000fd5b60200260200101516101c56000838152602001908152602001600020600082825461215c919061500a565b90915550505b508061216d8161509f565b9150506120be565b612187846001600160a01b0316613248565b15610cc85760405163bc197c8160e01b81526001600160a01b0385169063bc197c81906121c09089908990889088908890600401614533565b602060405180830381600087803b1580156121da57600080fd5b505af192505050801561220a575060408051601f3d908101601f191682019092526122079181019061432a565b60015b6122535761221661511e565b80612221575061223b565b8060405162461bcd60e51b81526004016109869190614614565b60405162461bcd60e51b815260040161098690614627565b6001600160e01b0319811663bc197c8160e01b14611c575760405162461bcd60e51b8152600401610986906146f2565b61228c82610a52565b61229d81612298611dd5565b61324e565b610cf283836132b2565b6000611888836001600160a01b038416613339565b6000806101cf836040516122d0919061448e565b9081526040519081900360200190205461ffff161115612316576101cf826040516122fb919061448e565b9081526040519081900360200190205461ffff1690506108b1565b6101cd546123299061ffff166001614f6c565b6101cd805461ffff191661ffff92831617908190551660009081526101ce60209081526040909120835161235f928501906139e0565b506101cd5460405161ffff909116906101cf9061237d90859061448e565b908152604051908190036020019020805461ffff92831661ffff199091161790556101cd54169050919050565b60006101d2604051806040016040528060068152602001651b9bdc9b585b60d21b8152506040516123db919061448e565b9081526040519081900360200190205461ffff166124a8576101d0546124069061ffff166001614f6c565b6101d0805461ffff191661ffff928316179081905560408051808201825260068152651b9bdc9b585b60d21b6020820152905191909216916101d29161244c919061448e565b9081526040805160209281900383018120805461ffff191661ffff958616179055808201825260068152651b9bdc9b585b60d21b8382019081526101d05490941660009081526101d1909352912090516124a692906139e0565b505b604080518082018252600881526765786368616e676560c01b602082015290516101d2916124d59161448e565b9081526040519081900360200190205461ffff166125a6576101d0546125009061ffff166001614f6c565b6101d0805461ffff191661ffff9283161790819055604080518082018252600881526765786368616e676560c01b6020820152905191909216916101d291612548919061448e565b9081526040805160209281900383018120805461ffff191661ffff9586161790558082018252600881526765786368616e676560c01b8382019081526101d05490941660009081526101d1909352912090516125a492906139e0565b505b60006101d2836040516125b9919061448e565b9081526040519081900360200190205461ffff1611156125e4576101d2826040516122fb919061448e565b6101d0546125f79061ffff166001614f6c565b6101d0805461ffff191661ffff92831617908190551660009081526101d160209081526040909120835161262d928501906139e0565b506101d05460405161ffff909116906101d29061264b90859061448e565b908152604051908190036020019020805461ffff92831661ffff199091161790556101d054169050919050565b60006780000000000000006101c760006101000a8154816001600160401b0302191690836001600160401b0316021790555060006101c760086101000a81548163ffffffff021916908363ffffffff16021790555060006101c7600c6101000a81548161ffff021916908361ffff16021790555060008263ffffffff1660208563ffffffff16901b60408761ffff16901b60508961ffff16901b60608b61ffff16901b60708d63ffffffff16901b60906101c7600c9054906101000a900461ffff1661ffff16901b60a06101c760089054906101000a900463ffffffff1663ffffffff16901b60c06101c760009054906101000a90046001600160401b03166001600160401b0316901b61278c9190614f92565b6127969190614f92565b6127a09190614f92565b6127aa9190614f92565b6127b49190614f92565b6127be9190614f92565b6127c89190614f92565b6127d29190614f92565b98975050505050505050565b60008181526101d460205260408120546127ff9063ffffffff166001614faa565b60009283526101d46020526040909220805463ffffffff191663ffffffff9384161790819055909116919050565b612835611dd5565b6001600160a01b0316816001600160a01b0316146128655760405162461bcd60e51b815260040161098690614ea3565b611d308282613383565b6000611888836001600160a01b038416613408565b61288c613a64565b60c082811c825263ffffffff60a084811c821660208086019190915261ffff609087901c8116604080880191909152607088901c851660608089019190915288901c82166080880152605088901c8216938701939093529186901c909116928401929092529083901c811660e083015290911661010082015290565b6101ca5460009061291d9061ffff16836150ba565b6109b4906001614fc9565b6101cd5460009061291d9061ffff16836150ba565b60008181526101d5602052604081205461295e9063ffffffff166001614faa565b60009283526101d56020526040909220805463ffffffff191663ffffffff9384161790819055909116919050565b6001600160a01b0384166129b25760405162461bcd60e51b815260040161098690614e62565b60006129bc611dd5565b90506129ce81600087611b5188612f24565b600084815260c9602090815260408083206001600160a01b038916845290915281208054859290612a00908490614f92565b92505081905550846001600160a01b031660006001600160a01b0316826001600160a01b03167fc3d58168c5ae7397731d063d5bbf3d657854427343f4c083240f7aacaa2d0f628787604051612a57929190614f01565b60405180910390a4611f5b81600087878787612f7d565b612a76611615565b612a925760405162461bcd60e51b81526004016109869061473a565b61012d805460ff191690557f5db9ee0a495bf2e6ff9c91a7834c1ba4fdd244a5e8aa4e537bd38aeae4b073aa612ac6611dd5565b604051612ad3919061451f565b60405180910390a1565b6000806101cc83604051612af1919061448e565b9081526040519081900360200190205461ffff161115612b1c576101cc826040516122fb919061448e565b6101ca54612b2f9061ffff166001614f6c565b6101ca805461ffff191661ffff92831617908190551660009081526101cb602090815260409091208351612b65928501906139e0565b506101ca5460405161ffff909116906101cc90612b8390859061448e565b908152604051908190036020019020805461ffff92831661ffff199091161790556101ca54169050919050565b6000806101c983604051612bc4919061448e565b9081526040519081900360200190205463ffffffff161115612c0e576101c982604051612bf1919061448e565b9081526040519081900360200190205463ffffffff1690506108b1565b6101c754612c2a90600160701b900463ffffffff166001614faa565b6101c7805463ffffffff60701b1916600160701b63ffffffff9384168102919091179182905590041660009081526101c8602090815260409091208351612c73928501906139e0565b506101c7600e9054906101000a900463ffffffff166101c983604051612c99919061448e565b908152604051908190036020019020805463ffffffff92831663ffffffff199091161790556101c754600160701b9004169050919050565b6001600160a01b038316612cf75760405162461bcd60e51b815260040161098690614ab4565b8051825114612d185760405162461bcd60e51b815260040161098690614e1a565b6000612d22611dd5565b9050612d4281856000868660405180602001604052806000815250611f62565b60005b8351811015612e33576000848281518110612d7057634e487b7160e01b600052603260045260246000fd5b602002602001015190506000848381518110612d9c57634e487b7160e01b600052603260045260246000fd5b602090810291909101810151600084815260c9835260408082206001600160a01b038c168352909352919091205490915081811015612ded5760405162461bcd60e51b8152600401610986906147b3565b612df7828261500a565b600093845260c9602090815260408086206001600160a01b038c1687529091529093209290925550819050612e2b8161509f565b915050612d45565b5060006001600160a01b0316846001600160a01b0316826001600160a01b03167f4a39dc06d4c0dbc64b70af90fd698a233a518aa5d07e595d983b8c0526c8f7fb8686604051612e849291906145d2565b60405180910390a450505050565b612e9a611615565b15612eb75760405162461bcd60e51b815260040161098690614902565b61012d805460ff191660011790557f62e78cea01bee320cd4e420270b5ea74000d11b0c9f74754ebdbfc544b05a258612ac6611dd5565b6000611888838361351f565b60006109b482613578565b612f0e82610a52565b612f1a81612298611dd5565b610cf28383613383565b60408051600180825281830190925260609160009190602080830190803683370190505090508281600081518110612f6c57634e487b7160e01b600052603260045260246000fd5b602090810291909101015292915050565b612f8f846001600160a01b0316613248565b15610cc85760405163f23a6e6160e01b81526001600160a01b0385169063f23a6e6190612fc89089908990889088908890600401614585565b602060405180830381600087803b158015612fe257600080fd5b505af1925050508015613012575060408051601f3d908101601f1916820190925261300f9181019061432a565b60015b61301e5761221661511e565b6001600160e01b0319811663f23a6e6160e01b14611c575760405162461bcd60e51b8152600401610986906146f2565b6001600160a01b0383166130745760405162461bcd60e51b815260040161098690614ab4565b600061307e611dd5565b90506130ae8185600061309087612f24565b61309987612f24565b60405180602001604052806000815250611f62565b600083815260c9602090815260408083206001600160a01b0388168452909152902054828110156130f15760405162461bcd60e51b8152600401610986906147b3565b6130fb838261500a565b600085815260c9602090815260408083206001600160a01b03808b16808652919093528184209490945551919291908516907fc3d58168c5ae7397731d063d5bbf3d657854427343f4c083240f7aacaa2d0f629061315c9089908990614f01565b60405180910390a45050505050565b600054610100900460ff1680613184575060005460ff16155b6131a05760405162461bcd60e51b815260040161098690614a06565b600054610100900460ff161580156131cb576000805460ff1961ff0019909116610100171660011790555b6131d361357c565b6131db61357c565b6131e361357c565b6131eb61357c565b6131f4826135f1565b6131fc61357c565b61320461365a565b61320c61357c565b611d1e826136d9565b60006001600160e01b03198216635a05180f60e01b14806109b457506109b48261377f565b610cc88686868686866137a4565b3b151590565b613258828261189a565b611d3057613270816001600160a01b031660146137d7565b61327b8360206137d7565b60405160200161328c9291906144aa565b60408051601f198184030181529082905262461bcd60e51b825261098691600401614614565b6132bc828261189a565b611d305760008281526065602090815260408083206001600160a01b03851684529091529020805460ff191660011790556132f5611dd5565b6001600160a01b0316816001600160a01b0316837f2f8788117e7eff1d82e926ec794901d17c78024a50270940304540a733656f0d60405160405180910390a45050565b60006133458383613988565b61337b575081546001818101845560008481526020808220909301849055845484825282860190935260409020919091556109b4565b5060006109b4565b61338d828261189a565b15611d305760008281526065602090815260408083206001600160a01b03851684529091529020805460ff191690556133c4611dd5565b6001600160a01b0316816001600160a01b0316837ff6391f5c32d9c69d2a47ea670b442974b53935d1edc7fd64eb21e047a839171b60405160405180910390a45050565b6000818152600183016020526040812054801561351557600061342c60018361500a565b85549091506000906134409060019061500a565b9050600086600001828154811061346757634e487b7160e01b600052603260045260246000fd5b906000526020600020015490508087600001848154811061349857634e487b7160e01b600052603260045260246000fd5b6000918252602080832090910192909255828152600189019091526040902084905586548790806134d957634e487b7160e01b600052603160045260246000fd5b600190038181906000526020600020016000905590558660010160008781526020019081526020016000206000905560019450505050506109b4565b60009150506109b4565b815460009082106135425760405162461bcd60e51b81526004016109869061467b565b82600001828154811061356557634e487b7160e01b600052603260045260246000fd5b9060005260206000200154905092915050565b5490565b600054610100900460ff1680613595575060005460ff16155b6135b15760405162461bcd60e51b815260040161098690614a06565b600054610100900460ff161580156135dc576000805460ff1961ff0019909116610100171660011790555b80156135ee576000805461ff00191690555b50565b600054610100900460ff168061360a575060005460ff16155b6136265760405162461bcd60e51b815260040161098690614a06565b600054610100900460ff16158015613651576000805460ff1961ff0019909116610100171660011790555b611d1e826139a0565b600054610100900460ff1680613673575060005460ff16155b61368f5760405162461bcd60e51b815260040161098690614a06565b600054610100900460ff161580156136ba576000805460ff1961ff0019909116610100171660011790555b61012d805460ff1916905580156135ee576000805461ff001916905550565b600054610100900460ff16806136f2575060005460ff16155b61370e5760405162461bcd60e51b815260040161098690614a06565b600054610100900460ff16158015613739576000805460ff1961ff0019909116610100171660011790555b61374b6000613746611dd5565b6139b3565b6137656000805160206151f9833981519152613746611dd5565b611d1e6000805160206151d9833981519152613746611dd5565b60006001600160e01b03198216637965db0b60e01b14806109b457506109b4826139bd565b6137b2868686868686610cc8565b6137ba611615565b15610cc85760405162461bcd60e51b815260040161098690614821565b606060006137e6836002614feb565b6137f1906002614f92565b6001600160401b0381111561381657634e487b7160e01b600052604160045260246000fd5b6040519080825280601f01601f191660200182016040528015613840576020820181803683370190505b509050600360fc1b8160008151811061386957634e487b7160e01b600052603260045260246000fd5b60200101906001600160f81b031916908160001a905350600f60fb1b816001815181106138a657634e487b7160e01b600052603260045260246000fd5b60200101906001600160f81b031916908160001a90535060006138ca846002614feb565b6138d5906001614f92565b90505b6001811115613969576f181899199a1a9b1b9c1cb0b131b232b360811b85600f166010811061391757634e487b7160e01b600052603260045260246000fd5b1a60f81b82828151811061393b57634e487b7160e01b600052603260045260246000fd5b60200101906001600160f81b031916908160001a90535060049490941c936139628161504d565b90506138d8565b5083156118885760405162461bcd60e51b8152600401610986906146bd565b60009081526001919091016020526040902054151590565b8051611d309060cb9060208401906139e0565b610cda82826139d6565b6001600160e01b031981166301ffc9a760e01b14919050565b611d3082826132b2565b8280546139ec90615064565b90600052602060002090601f016020900481019282613a0e5760008555613a54565b82601f10613a2757805160ff1916838001178555613a54565b82800160010185558215613a54579182015b82811115613a54578251825591602001919060010190613a39565b50613a60929150613ab0565b5090565b6040805161012081018252600080825260208201819052918101829052606081018290526080810182905260a0810182905260c0810182905260e0810182905261010081019190915290565b5b80821115613a605760008155600101613ab1565b60006001600160401b03831115613ade57613ade615102565b613af1601f8401601f1916602001614f20565b9050828152838383011115613b0557600080fd5b828260208301376000602084830101529392505050565b80356001600160a01b03811681146108b157600080fd5b600082601f830112613b43578081fd5b81356020613b58613b5383614f49565b614f20565b8281528181019085830183850287018401881015613b74578586fd5b855b85811015613b9257813584529284019290840190600101613b76565b5090979650505050505050565b60008083601f840112613bb0578182fd5b5081356001600160401b03811115613bc6578182fd5b602083019150836020828501011115613bde57600080fd5b9250929050565b600082601f830112613bf5578081fd5b61188883833560208501613ac5565b60008060408385031215613c16578182fd5b613c1f83613b1c565b9150613c2d60208401613b1c565b90509250929050565b600080600080600060a08688031215613c4d578081fd5b613c5686613b1c565b9450613c6460208701613b1c565b935060408601356001600160401b0380821115613c7f578283fd5b613c8b89838a01613b33565b94506060880135915080821115613ca0578283fd5b613cac89838a01613b33565b93506080880135915080821115613cc1578283fd5b50613cce88828901613be5565b9150509295509295909350565b600080600080600060a08688031215613cf2578081fd5b613cfb86613b1c565b9450613d0960208701613b1c565b9350604086013592506060860135915060808601356001600160401b03811115613d31578182fd5b613cce88828901613be5565b600080600060608486031215613d51578283fd5b613d5a84613b1c565b925060208401356001600160401b0380821115613d75578384fd5b613d8187838801613b33565b93506040860135915080821115613d96578283fd5b50613da386828701613b33565b9150509250925092565b60008060008060808587031215613dc2578182fd5b613dcb85613b1c565b935060208501356001600160401b0380821115613de6578384fd5b613df288838901613b33565b94506040870135915080821115613e07578384fd5b613e1388838901613b33565b93506060870135915080821115613e28578283fd5b50613e3587828801613be5565b91505092959194509250565b60008060408385031215613e53578182fd5b613e5c83613b1c565b915060208301358015158114613e70578182fd5b809150509250929050565b600080600080600060608688031215613e92578283fd5b613e9b86613b1c565b945060208601356001600160401b0380821115613eb6578485fd5b613ec289838a01613b9f565b90965094506040880135915080821115613eda578283fd5b50613ee788828901613b9f565b969995985093965092949392505050565b60008060008060008060006080888a031215613f12578485fd5b613f1b88613b1c565b965060208801356001600160401b0380821115613f36578687fd5b613f428b838c01613b9f565b909850965060408a0135915080821115613f5a578384fd5b613f668b838c01613b9f565b909650945060608a0135915080821115613f7e578384fd5b50613f8b8a828b01613b9f565b989b979a50959850939692959293505050565b600080600080600080600080600080600060c08c8e031215613fbe578485fd5b613fc78c613b1c565b9a506001600160401b038060208e01351115613fe1578586fd5b613ff18e60208f01358f01613b9f565b909b50995060408d0135811015614006578586fd5b6140168e60408f01358f01613b9f565b909950975060608d013581101561402b578586fd5b61403b8e60608f01358f01613b9f565b909750955060808d0135811015614050578485fd5b6140608e60808f01358f01613b9f565b909550935060a08d0135811015614075578283fd5b506140868d60a08e01358e01613b9f565b81935080925050509295989b509295989b9093969950565b600080604083850312156140b0578182fd5b6140b983613b1c565b946020939093013593505050565b600080600080606085870312156140dc578182fd5b6140e585613b1c565b93506020850135925060408501356001600160401b03811115614106578283fd5b61411287828801613b9f565b95989497509550505050565b600080600060608486031215614132578081fd5b61413b84613b1c565b95602085013595506040909401359392505050565b600080600080600060808688031215614167578283fd5b61417086613b1c565b9450602086013593506040860135925060608601356001600160401b03811115614198578182fd5b613ee788828901613b9f565b600080600080608085870312156141b9578182fd5b6141c285613b1c565b9350602085013592506040850135915060608501356001600160401b038111156141ea578182fd5b613e3587828801613be5565b60008060408385031215614208578182fd5b82356001600160401b038082111561421e578384fd5b818501915085601f830112614231578384fd5b81356020614241613b5383614f49565b82815281810190858301838502870184018b101561425d578889fd5b8896505b848710156142865761427281613b1c565b835260019690960195918301918301614261565b509650508601359250508082111561429c578283fd5b506142a985828601613b33565b9150509250929050565b6000602082840312156142c4578081fd5b5035919050565b600080604083850312156142dd578182fd5b82359150613c2d60208401613b1c565b600080604083850312156142ff578182fd5b50508035926020909101359150565b60006020828403121561431f578081fd5b8135611888816151c2565b60006020828403121561433b578081fd5b8151611888816151c2565b60008060208385031215614358578182fd5b82356001600160401b0381111561436d578283fd5b61437985828601613b9f565b90969095509350505050565b600060208284031215614396578081fd5b81356001600160401b038111156143ab578182fd5b8201601f810184136143bb578182fd5b6143ca84823560208401613ac5565b949350505050565b6000602082840312156143e3578081fd5b813561ffff81168114611888578182fd5b600060208284031215614405578081fd5b813563ffffffff81168114611888578182fd5b6000815180845260208085019450808401835b838110156144475781518752958201959082019060010161442b565b509495945050505050565b6000815180845261446a816020860160208601615021565b601f01601f19169290920160200192915050565b6000828483379101908152919050565b600082516144a0818460208701615021565b9190910192915050565b60007f416363657373436f6e74726f6c3a206163636f756e7420000000000000000000825283516144e2816017850160208801615021565b7001034b99036b4b9b9b4b733903937b6329607d1b6017918401918201528351614513816028840160208801615021565b01602801949350505050565b6001600160a01b0391909116815260200190565b6001600160a01b0386811682528516602082015260a06040820181905260009061455f90830186614418565b82810360608401526145718186614418565b905082810360808401526127d28185614452565b6001600160a01b03868116825285166020820152604081018490526060810183905260a06080820181905260009061171590830184614452565b6000602082526118886020830184614418565b6000604082526145e56040830185614418565b82810360208401526145f78185614418565b95945050505050565b901515815260200190565b90815260200190565b6000602082526118886020830184614452565b60208082526034908201527f455243313135353a207472616e7366657220746f206e6f6e20455243313135356040820152732932b1b2b4bb32b91034b6b83632b6b2b73a32b960611b606082015260800190565b60208082526022908201527f456e756d657261626c655365743a20696e646578206f7574206f6620626f756e604082015261647360f01b606082015260800190565b6020808252818101527f537472696e67733a20686578206c656e67746820696e73756666696369656e74604082015260600190565b60208082526028908201527f455243313135353a204552433131353552656365697665722072656a656374656040820152676420746f6b656e7360c01b606082015260800190565b60208082526014908201527314185d5cd8589b194e881b9bdd081c185d5cd95960621b604082015260600190565b6020808252602b908201527f455243313135353a2062616c616e636520717565727920666f7220746865207a60408201526a65726f206164647265737360a81b606082015260800190565b60208082526024908201527f455243313135353a206275726e20616d6f756e7420657863656564732062616c604082015263616e636560e01b606082015260800190565b60208082526010908201526f1d1e5c19481a59081a5cc8195e1a5cdd60821b604082015260600190565b6020808252602c908201527f455243313135355061757361626c653a20746f6b656e207472616e736665722060408201526b1dda1a5b19481c185d5cd95960a21b606082015260800190565b60208082526029908201527f455243313135353a2063616c6c6572206973206e6f74206f776e6572206e6f7260408201526808185c1c1c9bdd995960ba1b606082015260800190565b6020808252602c908201527f6e6f7420666f756e64206e6674747970652c206d696e74207175616c6974792060408201526b77697468206e66747479706560a01b606082015260800190565b60208082526010908201526f14185d5cd8589b194e881c185d5cd95960821b604082015260600190565b60208082526023908201527f74797065206973206e6f742065786973742c206d696e7420747970652066697260408201526239ba1760e91b606082015260800190565b60208082526025908201527f455243313135353a207472616e7366657220746f20746865207a65726f206164604082015264647265737360d81b606082015260800190565b60208082526032908201527f455243313135353a207472616e736665722063616c6c6572206973206e6f74206040820152711bdddb995c881b9bdc88185c1c1c9bdd995960721b606082015260800190565b6020808252602e908201527f496e697469616c697a61626c653a20636f6e747261637420697320616c72656160408201526d191e481a5b9a5d1a585b1a5e995960921b606082015260800190565b60208082526017908201527f7175616c697479206964206973206e6f74206578697374000000000000000000604082015260600190565b6020808252600f908201526e1a59081a5cc81b9bdd08195e1a5cdd608a1b604082015260600190565b60208082526023908201527f455243313135353a206275726e2066726f6d20746865207a65726f206164647260408201526265737360e81b606082015260800190565b60208082526038908201527f455243313135355072657365744d696e7465725061757365723a206d7573742060408201527f68617665206d696e74657220726f6c6520746f206d696e740000000000000000606082015260800190565b6020808252602a908201527f455243313135353a20696e73756666696369656e742062616c616e636520666f60408201526939103a3930b739b332b960b11b606082015260800190565b6020808252601290820152716272616e642069642069732065786973747360701b604082015260600190565b6020808252601a908201527f6d75737420737562746f6b656e2063616e2065786368616e6765000000000000604082015260600190565b602080825260119082015270030b6b7bab73a1034b9903737ba1018971607d1b604082015260600190565b6020808252600c908201526b07479706520696420697320360a41b604082015260600190565b6020808252603b908201527f455243313135355072657365744d696e7465725061757365723a206d7573742060408201527f686176652070617573657220726f6c6520746f20756e70617573650000000000606082015260800190565b60208082526018908201527f6964206973206e6f7420626c696e6420626f7820747970650000000000000000604082015260600190565b60208082526039908201527f455243313135355072657365744d696e7465725061757365723a206d7573742060408201527f686176652070617573657220726f6c6520746f20706175736500000000000000606082015260800190565b60208082526025908201527f6272616e64206973206e6f742065786973742c206d696e74206272616e64206660408201526434b939ba1760d91b606082015260800190565b60208082526029908201527f455243313135353a2073657474696e6720617070726f76616c20737461747573604082015268103337b91039b2b63360b91b606082015260800190565b60208082526029908201527f455243313135353a206163636f756e747320616e6420696473206c656e677468604082015268040dad2e6dac2e8c6d60bb1b606082015260800190565b60208082526028908201527f455243313135353a2069647320616e6420616d6f756e7473206c656e677468206040820152670dad2e6dac2e8c6d60c31b606082015260800190565b60208082526021908201527f455243313135353a206d696e7420746f20746865207a65726f206164647265736040820152607360f81b606082015260800190565b6020808252602f908201527f416363657373436f6e74726f6c3a2063616e206f6e6c792072656e6f756e636560408201526e103937b632b9903337b91039b2b63360891b606082015260800190565b61ffff91909116815260200190565b918252602082015260400190565b63ffffffff91909116815260200190565b6040518181016001600160401b0381118282101715614f4157614f41615102565b604052919050565b60006001600160401b03821115614f6257614f62615102565b5060209081020190565b600061ffff808316818516808303821115614f8957614f896150ec565b01949350505050565b60008219821115614fa557614fa56150ec565b500190565b600063ffffffff808316818516808303821115614f8957614f896150ec565b60006001600160401b03808316818516808303821115614f8957614f896150ec565b6000816000190483118215151615615005576150056150ec565b500290565b60008282101561501c5761501c6150ec565b500390565b60005b8381101561503c578181015183820152602001615024565b83811115610a295750506000910152565b60008161505c5761505c6150ec565b506000190190565b60028104600182168061507857607f821691505b6020821081141561509957634e487b7160e01b600052602260045260246000fd5b50919050565b60006000198214156150b3576150b36150ec565b5060010190565b60006001600160401b03808416806150e057634e487b7160e01b83526012600452602483fd5b92169190910692915050565b634e487b7160e01b600052601160045260246000fd5b634e487b7160e01b600052604160045260246000fd5b60e01c90565b600060443d101561512e5761161d565b600481823e6308c379a06151428251615118565b1461514c5761161d565b6040513d600319016004823e80513d6001600160401b03816024840111818411171561517b575050505061161d565b82840192508251915080821115615195575050505061161d565b503d830160208284010111156151ad5750505061161d565b601f01601f1916810160200160405291505090565b6001600160e01b0319811681146135ee57600080fdfe65d7a28e3265b37a6474929f336521b332c1681b933f6cb9f3376673440d862a9f2df0fed2c77648de5860a4cc508cd0818c85b8b8a1ab4ceeef8d981c8956a6a2646970667358221220edca97ad827c334e864a00381a81c47a49a04591c08c80b120769ccd444874a264736f6c63430008000033",
  "linkReferences": {},
  "deployedLinkReferences": {}
}