{
  "_format": "hh-sol-artifact-1",
  "contractName": "ViolasNft1155",
  "sourceName": "contracts/ViolasNft1155.sol",
  "abi": [
    {
      "anonymous": false,
      "inputs": [
        {
          "indexed": true,
          "internalType": "address",
          "name": "account",
          "type": "address"
        },
        {
          "indexed": true,
          "internalType": "address",
          "name": "operator",
          "type": "address"
        },
        {
          "indexed": false,
          "internalType": "bool",
          "name": "approved",
          "type": "bool"
        }
      ],
      "name": "ApprovalForAll",
      "type": "event"
    },
    {
      "anonymous": false,
      "inputs": [
        {
          "indexed": false,
          "internalType": "address",
          "name": "account",
          "type": "address"
        }
      ],
      "name": "Paused",
      "type": "event"
    },
    {
      "anonymous": false,
      "inputs": [
        {
          "indexed": true,
          "internalType": "bytes32",
          "name": "role",
          "type": "bytes32"
        },
        {
          "indexed": true,
          "internalType": "bytes32",
          "name": "previousAdminRole",
          "type": "bytes32"
        },
        {
          "indexed": true,
          "internalType": "bytes32",
          "name": "newAdminRole",
          "type": "bytes32"
        }
      ],
      "name": "RoleAdminChanged",
      "type": "event"
    },
    {
      "anonymous": false,
      "inputs": [
        {
          "indexed": true,
          "internalType": "bytes32",
          "name": "role",
          "type": "bytes32"
        },
        {
          "indexed": true,
          "internalType": "address",
          "name": "account",
          "type": "address"
        },
        {
          "indexed": true,
          "internalType": "address",
          "name": "sender",
          "type": "address"
        }
      ],
      "name": "RoleGranted",
      "type": "event"
    },
    {
      "anonymous": false,
      "inputs": [
        {
          "indexed": true,
          "internalType": "bytes32",
          "name": "role",
          "type": "bytes32"
        },
        {
          "indexed": true,
          "internalType": "address",
          "name": "account",
          "type": "address"
        },
        {
          "indexed": true,
          "internalType": "address",
          "name": "sender",
          "type": "address"
        }
      ],
      "name": "RoleRevoked",
      "type": "event"
    },
    {
      "anonymous": false,
      "inputs": [
        {
          "indexed": true,
          "internalType": "address",
          "name": "operator",
          "type": "address"
        },
        {
          "indexed": true,
          "internalType": "address",
          "name": "from",
          "type": "address"
        },
        {
          "indexed": true,
          "internalType": "address",
          "name": "to",
          "type": "address"
        },
        {
          "indexed": false,
          "internalType": "uint256[]",
          "name": "ids",
          "type": "uint256[]"
        },
        {
          "indexed": false,
          "internalType": "uint256[]",
          "name": "values",
          "type": "uint256[]"
        }
      ],
      "name": "TransferBatch",
      "type": "event"
    },
    {
      "anonymous": false,
      "inputs": [
        {
          "indexed": true,
          "internalType": "address",
          "name": "operator",
          "type": "address"
        },
        {
          "indexed": true,
          "internalType": "address",
          "name": "from",
          "type": "address"
        },
        {
          "indexed": true,
          "internalType": "address",
          "name": "to",
          "type": "address"
        },
        {
          "indexed": false,
          "internalType": "uint256",
          "name": "id",
          "type": "uint256"
        },
        {
          "indexed": false,
          "internalType": "uint256",
          "name": "value",
          "type": "uint256"
        }
      ],
      "name": "TransferSingle",
      "type": "event"
    },
    {
      "anonymous": false,
      "inputs": [
        {
          "indexed": false,
          "internalType": "string",
          "name": "value",
          "type": "string"
        },
        {
          "indexed": true,
          "internalType": "uint256",
          "name": "id",
          "type": "uint256"
        }
      ],
      "name": "URI",
      "type": "event"
    },
    {
      "anonymous": false,
      "inputs": [
        {
          "indexed": false,
          "internalType": "address",
          "name": "account",
          "type": "address"
        }
      ],
      "name": "Unpaused",
      "type": "event"
    },
    {
      "inputs": [],
      "name": "DEFAULT_ADMIN_ROLE",
      "outputs": [
        {
          "internalType": "bytes32",
          "name": "",
          "type": "bytes32"
        }
      ],
      "stateMutability": "view",
      "type": "function"
    },
    {
      "inputs": [],
      "name": "MINTER_ROLE",
      "outputs": [
        {
          "internalType": "bytes32",
          "name": "",
          "type": "bytes32"
        }
      ],
      "stateMutability": "view",
      "type": "function"
    },
    {
      "inputs": [],
      "name": "PAUSER_ROLE",
      "outputs": [
        {
          "internalType": "bytes32",
          "name": "",
          "type": "bytes32"
        }
      ],
      "stateMutability": "view",
      "type": "function"
    },
    {
      "inputs": [
        {
          "internalType": "address",
          "name": "account",
          "type": "address"
        },
        {
          "internalType": "uint256",
          "name": "id",
          "type": "uint256"
        }
      ],
      "name": "balanceOf",
      "outputs": [
        {
          "internalType": "uint256",
          "name": "",
          "type": "uint256"
        }
      ],
      "stateMutability": "view",
      "type": "function"
    },
    {
      "inputs": [
        {
          "internalType": "address[]",
          "name": "accounts",
          "type": "address[]"
        },
        {
          "internalType": "uint256[]",
          "name": "ids",
          "type": "uint256[]"
        }
      ],
      "name": "balanceOfBatch",
      "outputs": [
        {
          "internalType": "uint256[]",
          "name": "",
          "type": "uint256[]"
        }
      ],
      "stateMutability": "view",
      "type": "function"
    },
    {
      "inputs": [
        {
          "internalType": "address",
          "name": "account",
          "type": "address"
        },
        {
          "internalType": "uint256",
          "name": "id",
          "type": "uint256"
        },
        {
          "internalType": "uint256",
          "name": "value",
          "type": "uint256"
        }
      ],
      "name": "burn",
      "outputs": [],
      "stateMutability": "nonpayable",
      "type": "function"
    },
    {
      "inputs": [
        {
          "internalType": "address",
          "name": "account",
          "type": "address"
        },
        {
          "internalType": "uint256[]",
          "name": "ids",
          "type": "uint256[]"
        },
        {
          "internalType": "uint256[]",
          "name": "values",
          "type": "uint256[]"
        }
      ],
      "name": "burnBatch",
      "outputs": [],
      "stateMutability": "nonpayable",
      "type": "function"
    },
    {
      "inputs": [
        {
          "internalType": "bytes32",
          "name": "role",
          "type": "bytes32"
        }
      ],
      "name": "getRoleAdmin",
      "outputs": [
        {
          "internalType": "bytes32",
          "name": "",
          "type": "bytes32"
        }
      ],
      "stateMutability": "view",
      "type": "function"
    },
    {
      "inputs": [
        {
          "internalType": "bytes32",
          "name": "role",
          "type": "bytes32"
        },
        {
          "internalType": "uint256",
          "name": "index",
          "type": "uint256"
        }
      ],
      "name": "getRoleMember",
      "outputs": [
        {
          "internalType": "address",
          "name": "",
          "type": "address"
        }
      ],
      "stateMutability": "view",
      "type": "function"
    },
    {
      "inputs": [
        {
          "internalType": "bytes32",
          "name": "role",
          "type": "bytes32"
        }
      ],
      "name": "getRoleMemberCount",
      "outputs": [
        {
          "internalType": "uint256",
          "name": "",
          "type": "uint256"
        }
      ],
      "stateMutability": "view",
      "type": "function"
    },
    {
      "inputs": [
        {
          "internalType": "bytes32",
          "name": "role",
          "type": "bytes32"
        },
        {
          "internalType": "address",
          "name": "account",
          "type": "address"
        }
      ],
      "name": "grantRole",
      "outputs": [],
      "stateMutability": "nonpayable",
      "type": "function"
    },
    {
      "inputs": [
        {
          "internalType": "bytes32",
          "name": "role",
          "type": "bytes32"
        },
        {
          "internalType": "address",
          "name": "account",
          "type": "address"
        }
      ],
      "name": "hasRole",
      "outputs": [
        {
          "internalType": "bool",
          "name": "",
          "type": "bool"
        }
      ],
      "stateMutability": "view",
      "type": "function"
    },
    {
      "inputs": [
        {
          "internalType": "string",
          "name": "uri",
          "type": "string"
        }
      ],
      "name": "initialize",
      "outputs": [],
      "stateMutability": "nonpayable",
      "type": "function"
    },
    {
      "inputs": [
        {
          "internalType": "address",
          "name": "account",
          "type": "address"
        },
        {
          "internalType": "address",
          "name": "operator",
          "type": "address"
        }
      ],
      "name": "isApprovedForAll",
      "outputs": [
        {
          "internalType": "bool",
          "name": "",
          "type": "bool"
        }
      ],
      "stateMutability": "view",
      "type": "function"
    },
    {
      "inputs": [
        {
          "internalType": "address",
          "name": "to",
          "type": "address"
        },
        {
          "internalType": "uint256",
          "name": "id",
          "type": "uint256"
        },
        {
          "internalType": "uint256",
          "name": "amount",
          "type": "uint256"
        },
        {
          "internalType": "bytes",
          "name": "data",
          "type": "bytes"
        }
      ],
      "name": "mint",
      "outputs": [],
      "stateMutability": "nonpayable",
      "type": "function"
    },
    {
      "inputs": [
        {
          "internalType": "address",
          "name": "to",
          "type": "address"
        },
        {
          "internalType": "uint256[]",
          "name": "ids",
          "type": "uint256[]"
        },
        {
          "internalType": "uint256[]",
          "name": "amounts",
          "type": "uint256[]"
        },
        {
          "internalType": "bytes",
          "name": "data",
          "type": "bytes"
        }
      ],
      "name": "mintBatch",
      "outputs": [],
      "stateMutability": "nonpayable",
      "type": "function"
    },
    {
      "inputs": [],
      "name": "pause",
      "outputs": [],
      "stateMutability": "nonpayable",
      "type": "function"
    },
    {
      "inputs": [],
      "name": "paused",
      "outputs": [
        {
          "internalType": "bool",
          "name": "",
          "type": "bool"
        }
      ],
      "stateMutability": "view",
      "type": "function"
    },
    {
      "inputs": [
        {
          "internalType": "bytes32",
          "name": "role",
          "type": "bytes32"
        },
        {
          "internalType": "address",
          "name": "account",
          "type": "address"
        }
      ],
      "name": "renounceRole",
      "outputs": [],
      "stateMutability": "nonpayable",
      "type": "function"
    },
    {
      "inputs": [
        {
          "internalType": "bytes32",
          "name": "role",
          "type": "bytes32"
        },
        {
          "internalType": "address",
          "name": "account",
          "type": "address"
        }
      ],
      "name": "revokeRole",
      "outputs": [],
      "stateMutability": "nonpayable",
      "type": "function"
    },
    {
      "inputs": [
        {
          "internalType": "address",
          "name": "from",
          "type": "address"
        },
        {
          "internalType": "address",
          "name": "to",
          "type": "address"
        },
        {
          "internalType": "uint256[]",
          "name": "ids",
          "type": "uint256[]"
        },
        {
          "internalType": "uint256[]",
          "name": "amounts",
          "type": "uint256[]"
        },
        {
          "internalType": "bytes",
          "name": "data",
          "type": "bytes"
        }
      ],
      "name": "safeBatchTransferFrom",
      "outputs": [],
      "stateMutability": "nonpayable",
      "type": "function"
    },
    {
      "inputs": [
        {
          "internalType": "address",
          "name": "from",
          "type": "address"
        },
        {
          "internalType": "address",
          "name": "to",
          "type": "address"
        },
        {
          "internalType": "uint256",
          "name": "id",
          "type": "uint256"
        },
        {
          "internalType": "uint256",
          "name": "amount",
          "type": "uint256"
        },
        {
          "internalType": "bytes",
          "name": "data",
          "type": "bytes"
        }
      ],
      "name": "safeTransferFrom",
      "outputs": [],
      "stateMutability": "nonpayable",
      "type": "function"
    },
    {
      "inputs": [
        {
          "internalType": "address",
          "name": "operator",
          "type": "address"
        },
        {
          "internalType": "bool",
          "name": "approved",
          "type": "bool"
        }
      ],
      "name": "setApprovalForAll",
      "outputs": [],
      "stateMutability": "nonpayable",
      "type": "function"
    },
    {
      "inputs": [
        {
          "internalType": "bytes4",
          "name": "interfaceId",
          "type": "bytes4"
        }
      ],
      "name": "supportsInterface",
      "outputs": [
        {
          "internalType": "bool",
          "name": "",
          "type": "bool"
        }
      ],
      "stateMutability": "view",
      "type": "function"
    },
    {
      "inputs": [],
      "name": "tokenCount",
      "outputs": [
        {
          "internalType": "uint256",
          "name": "",
          "type": "uint256"
        }
      ],
      "stateMutability": "view",
      "type": "function"
    },
    {
      "inputs": [
        {
          "internalType": "uint256",
          "name": "id",
          "type": "uint256"
        }
      ],
      "name": "tokenExists",
      "outputs": [
        {
          "internalType": "bool",
          "name": "",
          "type": "bool"
        }
      ],
      "stateMutability": "view",
      "type": "function"
    },
    {
      "inputs": [
        {
          "internalType": "uint256",
          "name": "index",
          "type": "uint256"
        }
      ],
      "name": "tokenId",
      "outputs": [
        {
          "internalType": "uint256",
          "name": "",
          "type": "uint256"
        }
      ],
      "stateMutability": "view",
      "type": "function"
    },
    {
      "inputs": [
        {
          "internalType": "uint256",
          "name": "id",
          "type": "uint256"
        }
      ],
      "name": "tokenTotleAmount",
      "outputs": [
        {
          "internalType": "uint256",
          "name": "",
          "type": "uint256"
        }
      ],
      "stateMutability": "view",
      "type": "function"
    },
    {
      "inputs": [],
      "name": "unpause",
      "outputs": [],
      "stateMutability": "nonpayable",
      "type": "function"
    },
    {
      "inputs": [
        {
          "internalType": "uint256",
          "name": "",
          "type": "uint256"
        }
      ],
      "name": "uri",
      "outputs": [
        {
          "internalType": "string",
          "name": "",
          "type": "string"
        }
      ],
      "stateMutability": "view",
      "type": "function"
    }
  ],
  "bytecode": "0x608060405234801561001057600080fd5b506133ee806100206000396000f3fe608060405234801561001057600080fd5b50600436106101d85760003560e01c80637dcb0e5f11610104578063ca15c873116100a2578063e985e9c511610071578063e985e9c5146103ca578063f242432a146103dd578063f5298aca146103f0578063f62d188814610403576101d8565b8063ca15c87314610394578063d5391393146103a7578063d547741f146103af578063e63ab1e9146103c2576101d8565b806391d14854116100de57806391d148541461035e5780639f181b5e14610371578063a217fddf14610379578063a22cb46514610381576101d8565b80637dcb0e5f146103235780638456cb59146103365780639010d07c1461033e576101d8565b80632eb2c2d61161017c5780634e1273f41161014b5780634e1273f4146102d55780635c975abb146102f55780636b20c454146102fd578063731133e914610310576101d8565b80632eb2c2d6146102945780632f2ff15d146102a757806336568abe146102ba5780633f4ba83a146102cd576101d8565b80630e89341c116101b85780630e89341c146102395780631d0c9cf8146102595780631f7fdffa1461026c578063248a9ca314610281576101d8565b8062923f9e146101dd578062fdd58e1461020657806301ffc9a714610226575b600080fd5b6101f06101eb3660046127ef565b610416565b6040516101fd9190612aa2565b60405180910390f35b610219610214366004612685565b61042f565b6040516101fd9190612aad565b6101f061023436600461284a565b61048b565b61024c6102473660046127ef565b610496565b6040516101fd9190612ab6565b6102196102673660046127ef565b61052a565b61027f61027a3660046125b7565b61053d565b005b61021961028f3660046127ef565b610585565b61027f6102a2366004612440565b61059a565b61027f6102b5366004612807565b610803565b61027f6102c8366004612807565b61082a565b61027f61084c565b6102e86102e3366004612732565b61088c565b6040516101fd9190612a61565b6101f06109ab565b61027f61030b366004612547565b6109b6565b61027f61031e3660046126e0565b610a0b565b6102196103313660046127ef565b610a4d565b61027f610a60565b61035161034c366004612829565b610a9e565b6040516101fd91906129aa565b6101f061036c366004612807565b610abd565b610219610ae8565b610219610aef565b61027f61038f36600461264b565b610af4565b6102196103a23660046127ef565b610bc2565b610219610bd9565b61027f6103bd366004612807565b610beb565b610219610bf5565b6101f06103d836600461240e565b610c07565b61027f6103eb3660046124e5565b610c35565b61027f6103fe3660046126ae565b610dcf565b61027f610411366004612882565b610e24565b60008181526101c6602052604090205460ff165b919050565b60006001600160a01b0383166104605760405162461bcd60e51b815260040161045790612c0a565b60405180910390fd5b50600081815260c9602090815260408083206001600160a01b03861684529091529020545b92915050565b600061048582610ea3565b606060cb80546104a590613236565b80601f01602080910402602001604051908101604052809291908181526020018280546104d190613236565b801561051e5780601f106104f35761010080835404028352916020019161051e565b820191906000526020600020905b81548152906001019060200180831161050157829003601f168201915b50505050509050919050565b60009081526101c5602052604090205490565b61055760008051602061339983398151915261036c610ee3565b6105735760405162461bcd60e51b815260040161045790612e80565b61057f84848484610ee7565b50505050565b60009081526065602052604090206001015490565b81518351146105bb5760405162461bcd60e51b815260040161045790613073565b6001600160a01b0384166105e15760405162461bcd60e51b815260040161045790612d58565b6105e9610ee3565b6001600160a01b0316856001600160a01b0316148061060f575061060f856103d8610ee3565b61062b5760405162461bcd60e51b815260040161045790612d9d565b6000610635610ee3565b9050610645818787878787611070565b60005b845181101561079557600085828151811061067357634e487b7160e01b600052603260045260246000fd5b60200260200101519050600085838151811061069f57634e487b7160e01b600052603260045260246000fd5b602090810291909101810151600084815260c9835260408082206001600160a01b038e1683529093529190912054909150818110156106f05760405162461bcd60e51b815260040161045790612edd565b6106fa82826131dc565b60c9600085815260200190815260200160002060008c6001600160a01b03166001600160a01b03168152602001908152602001600020819055508160c9600085815260200190815260200160002060008b6001600160a01b03166001600160a01b03168152602001908152602001600020600082825461077a91906131a5565b925050819055505050508061078e90613271565b9050610648565b50846001600160a01b0316866001600160a01b0316826001600160a01b03167f4a39dc06d4c0dbc64b70af90fd698a233a518aa5d07e595d983b8c0526c8f7fb87876040516107e5929190612a74565b60405180910390a46107fb81878787878761127e565b505050505050565b61080d828261138c565b600082815260976020526040902061082590826113b0565b505050565b61083482826113c5565b60008281526097602052604090206108259082611407565b61086660008051602061337983398151915261036c610ee3565b6108825760405162461bcd60e51b815260040161045790612f27565b61088a61141c565b565b606081518351146108af5760405162461bcd60e51b81526004016104579061302a565b600083516001600160401b038111156108d857634e487b7160e01b600052604160045260246000fd5b604051908082528060200260200182016040528015610901578160200160208202803683370190505b50905060005b84518110156109a35761096885828151811061093357634e487b7160e01b600052603260045260246000fd5b602002602001015185838151811061095b57634e487b7160e01b600052603260045260246000fd5b602002602001015161042f565b82828151811061098857634e487b7160e01b600052603260045260246000fd5b602090810291909101015261099c81613271565b9050610907565b509392505050565b61012d5460ff165b90565b6109be610ee3565b6001600160a01b0316836001600160a01b031614806109e457506109e4836103d8610ee3565b610a005760405162461bcd60e51b815260040161045790612ce5565b61082583838361148b565b610a2560008051602061339983398151915261036c610ee3565b610a415760405162461bcd60e51b815260040161045790612e80565b61057f8484848461164c565b60009081526101c4602052604090205490565b610a7a60008051602061337983398151915261036c610ee3565b610a965760405162461bcd60e51b815260040161045790612f84565b61088a61172e565b6000828152609760205260408120610ab6908361178a565b9392505050565b60009182526065602090815260408084206001600160a01b0393909316845291905290205460ff1690565b6101c35490565b600081565b816001600160a01b0316610b06610ee3565b6001600160a01b03161415610b2d5760405162461bcd60e51b815260040161045790612fe1565b8060ca6000610b3a610ee3565b6001600160a01b03908116825260208083019390935260409182016000908120918716808252919093529120805460ff191692151592909217909155610b7e610ee3565b6001600160a01b03167f17307eab39ab6107e8899845ad3d59bd9653f200f220920489ca2b5937696c3183604051610bb69190612aa2565b60405180910390a35050565b600081815260976020526040812061048590611796565b60008051602061339983398151915281565b61083482826117a1565b60008051602061337983398151915281565b6001600160a01b03918216600090815260ca6020908152604080832093909416825291909152205460ff1690565b6001600160a01b038416610c5b5760405162461bcd60e51b815260040161045790612d58565b610c63610ee3565b6001600160a01b0316856001600160a01b03161480610c895750610c89856103d8610ee3565b610ca55760405162461bcd60e51b815260040161045790612ce5565b6000610caf610ee3565b9050610ccf818787610cc0886117c0565b610cc9886117c0565b87611070565b600084815260c9602090815260408083206001600160a01b038a16845290915290205483811015610d125760405162461bcd60e51b815260040161045790612edd565b610d1c84826131dc565b600086815260c9602090815260408083206001600160a01b038c81168552925280832093909355881681529081208054869290610d5a9084906131a5565b92505081905550856001600160a01b0316876001600160a01b0316836001600160a01b03167fc3d58168c5ae7397731d063d5bbf3d657854427343f4c083240f7aacaa2d0f628888604051610db092919061314b565b60405180910390a4610dc6828888888888611819565b50505050505050565b610dd7610ee3565b6001600160a01b0316836001600160a01b03161480610dfd5750610dfd836103d8610ee3565b610e195760405162461bcd60e51b815260040161045790612ce5565b6108258383836118ea565b600054610100900460ff1680610e3d575060005460ff16155b610e595760405162461bcd60e51b815260040161045790612def565b600054610100900460ff16158015610e84576000805460ff1961ff0019909116610100171660011790555b610e8d82611a07565b8015610e9f576000805461ff00191690555b5050565b60006001600160e01b03198216636cdb3d1360e11b1480610ed457506001600160e01b031982166303a24d0760e21b145b80610485575061048582611ab1565b3390565b6001600160a01b038416610f0d5760405162461bcd60e51b8152600401610457906130bb565b8151835114610f2e5760405162461bcd60e51b815260040161045790613073565b6000610f38610ee3565b9050610f4981600087878787611070565b60005b845181101561100157838181518110610f7557634e487b7160e01b600052603260045260246000fd5b602002602001015160c96000878481518110610fa157634e487b7160e01b600052603260045260246000fd5b602002602001015181526020019081526020016000206000886001600160a01b03166001600160a01b031681526020019081526020016000206000828254610fe991906131a5565b90915550819050610ff981613271565b915050610f4c565b50846001600160a01b031660006001600160a01b0316826001600160a01b03167f4a39dc06d4c0dbc64b70af90fd698a233a518aa5d07e595d983b8c0526c8f7fb8787604051611052929190612a74565b60405180910390a46110698160008787878761127e565b5050505050565b61107e868686868686611ad6565b6001600160a01b03851615801561109d57506001600160a01b03841615155b156111a15760005b835181101561119f5760008482815181106110d057634e487b7160e01b600052603260045260246000fd5b60209081029190910181015160008181526101c690925260409091205490915060ff1661113a576101c3805460009081526101c4602090815260408083208590558483526101c69091529020805460ff191660019081179091559054611135916131a5565b6101c3555b83828151811061115a57634e487b7160e01b600052603260045260246000fd5b60200260200101516101c56000838152602001908152602001600020600082825461118591906131a5565b90915550829150611197905081613271565b9150506110a5565b505b6001600160a01b038516158015906111c057506001600160a01b038416155b156107fb5760005b8351811015610dc65760008482815181106111f357634e487b7160e01b600052603260045260246000fd5b60209081029190910181015160008181526101c690925260409091205490915060ff1661126b5783828151811061123a57634e487b7160e01b600052603260045260246000fd5b60200260200101516101c56000838152602001908152602001600020600082825461126591906131a5565b90915550505b508061127681613271565b9150506111c8565b611290846001600160a01b0316611ae4565b156107fb5760405163bc197c8160e01b81526001600160a01b0385169063bc197c81906112c990899089908890889088906004016129be565b602060405180830381600087803b1580156112e357600080fd5b505af1925050508015611313575060408051601f3d908101601f1916820190925261131091810190612866565b60015b61135c5761131f6132be565b8061132a5750611344565b8060405162461bcd60e51b81526004016104579190612ab6565b60405162461bcd60e51b815260040161045790612ac9565b6001600160e01b0319811663bc197c8160e01b14610dc65760405162461bcd60e51b815260040161045790612b94565b61139582610585565b6113a6816113a1610ee3565b611aea565b6108258383611b4e565b6000610ab6836001600160a01b038416611bd5565b6113cd610ee3565b6001600160a01b0316816001600160a01b0316146113fd5760405162461bcd60e51b8152600401610457906130fc565b610e9f8282611c1f565b6000610ab6836001600160a01b038416611ca4565b6114246109ab565b6114405760405162461bcd60e51b815260040161045790612bdc565b61012d805460ff191690557f5db9ee0a495bf2e6ff9c91a7834c1ba4fdd244a5e8aa4e537bd38aeae4b073aa611474610ee3565b60405161148191906129aa565b60405180910390a1565b6001600160a01b0383166114b15760405162461bcd60e51b815260040161045790612e3d565b80518251146114d25760405162461bcd60e51b815260040161045790613073565b60006114dc610ee3565b90506114fc81856000868660405180602001604052806000815250611070565b60005b83518110156115ed57600084828151811061152a57634e487b7160e01b600052603260045260246000fd5b60200260200101519050600084838151811061155657634e487b7160e01b600052603260045260246000fd5b602090810291909101810151600084815260c9835260408082206001600160a01b038c1683529093529190912054909150818110156115a75760405162461bcd60e51b815260040161045790612c55565b6115b182826131dc565b600093845260c9602090815260408086206001600160a01b038c16875290915290932092909255508190506115e581613271565b9150506114ff565b5060006001600160a01b0316846001600160a01b0316826001600160a01b03167f4a39dc06d4c0dbc64b70af90fd698a233a518aa5d07e595d983b8c0526c8f7fb868660405161163e929190612a74565b60405180910390a450505050565b6001600160a01b0384166116725760405162461bcd60e51b8152600401610457906130bb565b600061167c610ee3565b905061168e81600087610cc0886117c0565b600084815260c9602090815260408083206001600160a01b0389168452909152812080548592906116c09084906131a5565b92505081905550846001600160a01b031660006001600160a01b0316826001600160a01b03167fc3d58168c5ae7397731d063d5bbf3d657854427343f4c083240f7aacaa2d0f62878760405161171792919061314b565b60405180910390a461106981600087878787611819565b6117366109ab565b156117535760405162461bcd60e51b815260040161045790612d2e565b61012d805460ff191660011790557f62e78cea01bee320cd4e420270b5ea74000d11b0c9f74754ebdbfc544b05a258611474610ee3565b6000610ab68383611dbb565b600061048582611e14565b6117aa82610585565b6117b6816113a1610ee3565b6108258383611c1f565b6040805160018082528183019092526060916000919060208083019080368337019050509050828160008151811061180857634e487b7160e01b600052603260045260246000fd5b602090810291909101015292915050565b61182b846001600160a01b0316611ae4565b156107fb5760405163f23a6e6160e01b81526001600160a01b0385169063f23a6e61906118649089908990889088908890600401612a1c565b602060405180830381600087803b15801561187e57600080fd5b505af19250505080156118ae575060408051601f3d908101601f191682019092526118ab91810190612866565b60015b6118ba5761131f6132be565b6001600160e01b0319811663f23a6e6160e01b14610dc65760405162461bcd60e51b815260040161045790612b94565b6001600160a01b0383166119105760405162461bcd60e51b815260040161045790612e3d565b600061191a610ee3565b905061194a8185600061192c876117c0565b611935876117c0565b60405180602001604052806000815250611070565b600083815260c9602090815260408083206001600160a01b03881684529091529020548281101561198d5760405162461bcd60e51b815260040161045790612c55565b61199783826131dc565b600085815260c9602090815260408083206001600160a01b03808b16808652919093528184209490945551919291908516907fc3d58168c5ae7397731d063d5bbf3d657854427343f4c083240f7aacaa2d0f62906119f8908990899061314b565b60405180910390a45050505050565b600054610100900460ff1680611a20575060005460ff16155b611a3c5760405162461bcd60e51b815260040161045790612def565b600054610100900460ff16158015611a67576000805460ff1961ff0019909116610100171660011790555b611a6f611e18565b611a77611e18565b611a7f611e18565b611a87611e18565b611a9082611e8d565b611a98611e18565b611aa0611ef6565b611aa8611e18565b610e8d82611f75565b60006001600160e01b03198216635a05180f60e01b148061048557506104858261201b565b6107fb868686868686612040565b3b151590565b611af48282610abd565b610e9f57611b0c816001600160a01b03166014612073565b611b17836020612073565b604051602001611b28929190612935565b60408051601f198184030181529082905262461bcd60e51b825261045791600401612ab6565b611b588282610abd565b610e9f5760008281526065602090815260408083206001600160a01b03851684529091529020805460ff19166001179055611b91610ee3565b6001600160a01b0316816001600160a01b0316837f2f8788117e7eff1d82e926ec794901d17c78024a50270940304540a733656f0d60405160405180910390a45050565b6000611be18383612224565b611c1757508154600181810184556000848152602080822090930184905584548482528286019093526040902091909155610485565b506000610485565b611c298282610abd565b15610e9f5760008281526065602090815260408083206001600160a01b03851684529091529020805460ff19169055611c60610ee3565b6001600160a01b0316816001600160a01b0316837ff6391f5c32d9c69d2a47ea670b442974b53935d1edc7fd64eb21e047a839171b60405160405180910390a45050565b60008181526001830160205260408120548015611db1576000611cc86001836131dc565b8554909150600090611cdc906001906131dc565b90506000866000018281548110611d0357634e487b7160e01b600052603260045260246000fd5b9060005260206000200154905080876000018481548110611d3457634e487b7160e01b600052603260045260246000fd5b600091825260208083209091019290925582815260018901909152604090208490558654879080611d7557634e487b7160e01b600052603160045260246000fd5b60019003818190600052602060002001600090559055866001016000878152602001908152602001600020600090556001945050505050610485565b6000915050610485565b81546000908210611dde5760405162461bcd60e51b815260040161045790612b1d565b826000018281548110611e0157634e487b7160e01b600052603260045260246000fd5b9060005260206000200154905092915050565b5490565b600054610100900460ff1680611e31575060005460ff16155b611e4d5760405162461bcd60e51b815260040161045790612def565b600054610100900460ff16158015611e78576000805460ff1961ff0019909116610100171660011790555b8015611e8a576000805461ff00191690555b50565b600054610100900460ff1680611ea6575060005460ff16155b611ec25760405162461bcd60e51b815260040161045790612def565b600054610100900460ff16158015611eed576000805460ff1961ff0019909116610100171660011790555b610e8d8261223c565b600054610100900460ff1680611f0f575060005460ff16155b611f2b5760405162461bcd60e51b815260040161045790612def565b600054610100900460ff16158015611f56576000805460ff1961ff0019909116610100171660011790555b61012d805460ff191690558015611e8a576000805461ff001916905550565b600054610100900460ff1680611f8e575060005460ff16155b611faa5760405162461bcd60e51b815260040161045790612def565b600054610100900460ff16158015611fd5576000805460ff1961ff0019909116610100171660011790555b611fe76000611fe2610ee3565b61224f565b612001600080516020613399833981519152611fe2610ee3565b610e8d600080516020613379833981519152611fe2610ee3565b60006001600160e01b03198216637965db0b60e01b1480610485575061048582612259565b61204e8686868686866107fb565b6120566109ab565b156107fb5760405162461bcd60e51b815260040161045790612c99565b606060006120828360026131bd565b61208d9060026131a5565b6001600160401b038111156120b257634e487b7160e01b600052604160045260246000fd5b6040519080825280601f01601f1916602001820160405280156120dc576020820181803683370190505b509050600360fc1b8160008151811061210557634e487b7160e01b600052603260045260246000fd5b60200101906001600160f81b031916908160001a905350600f60fb1b8160018151811061214257634e487b7160e01b600052603260045260246000fd5b60200101906001600160f81b031916908160001a90535060006121668460026131bd565b6121719060016131a5565b90505b6001811115612205576f181899199a1a9b1b9c1cb0b131b232b360811b85600f16601081106121b357634e487b7160e01b600052603260045260246000fd5b1a60f81b8282815181106121d757634e487b7160e01b600052603260045260246000fd5b60200101906001600160f81b031916908160001a90535060049490941c936121fe8161321f565b9050612174565b508315610ab65760405162461bcd60e51b815260040161045790612b5f565b60009081526001919091016020526040902054151590565b8051610e9f9060cb90602084019061227c565b61080d8282612272565b6001600160e01b031981166301ffc9a760e01b14919050565b610e9f8282611b4e565b82805461228890613236565b90600052602060002090601f0160209004810192826122aa57600085556122f0565b82601f106122c357805160ff19168380011785556122f0565b828001600101855582156122f0579182015b828111156122f05782518255916020019190600101906122d5565b506122fc929150612300565b5090565b5b808211156122fc5760008155600101612301565b60006001600160401b0383111561232e5761232e6132a2565b612341601f8401601f1916602001613159565b905082815283838301111561235557600080fd5b828260208301376000602084830101529392505050565b80356001600160a01b038116811461042a57600080fd5b600082601f830112612393578081fd5b813560206123a86123a383613182565b613159565b82815281810190858301838502870184018810156123c4578586fd5b855b858110156123e2578135845292840192908401906001016123c6565b5090979650505050505050565b600082601f8301126123ff578081fd5b610ab683833560208501612315565b60008060408385031215612420578182fd5b6124298361236c565b91506124376020840161236c565b90509250929050565b600080600080600060a08688031215612457578081fd5b6124608661236c565b945061246e6020870161236c565b935060408601356001600160401b0380821115612489578283fd5b61249589838a01612383565b945060608801359150808211156124aa578283fd5b6124b689838a01612383565b935060808801359150808211156124cb578283fd5b506124d8888289016123ef565b9150509295509295909350565b600080600080600060a086880312156124fc578081fd5b6125058661236c565b94506125136020870161236c565b9350604086013592506060860135915060808601356001600160401b0381111561253b578182fd5b6124d8888289016123ef565b60008060006060848603121561255b578283fd5b6125648461236c565b925060208401356001600160401b038082111561257f578384fd5b61258b87838801612383565b935060408601359150808211156125a0578283fd5b506125ad86828701612383565b9150509250925092565b600080600080608085870312156125cc578384fd5b6125d58561236c565b935060208501356001600160401b03808211156125f0578485fd5b6125fc88838901612383565b94506040870135915080821115612611578384fd5b61261d88838901612383565b93506060870135915080821115612632578283fd5b5061263f878288016123ef565b91505092959194509250565b6000806040838503121561265d578182fd5b6126668361236c565b91506020830135801515811461267a578182fd5b809150509250929050565b60008060408385031215612697578182fd5b6126a08361236c565b946020939093013593505050565b6000806000606084860312156126c2578081fd5b6126cb8461236c565b95602085013595506040909401359392505050565b600080600080608085870312156126f5578182fd5b6126fe8561236c565b9350602085013592506040850135915060608501356001600160401b03811115612726578182fd5b61263f878288016123ef565b60008060408385031215612744578182fd5b82356001600160401b038082111561275a578384fd5b818501915085601f83011261276d578384fd5b8135602061277d6123a383613182565b82815281810190858301838502870184018b1015612799578889fd5b8896505b848710156127c2576127ae8161236c565b83526001969096019591830191830161279d565b50965050860135925050808211156127d8578283fd5b506127e585828601612383565b9150509250929050565b600060208284031215612800578081fd5b5035919050565b60008060408385031215612819578182fd5b823591506124376020840161236c565b6000806040838503121561283b578182fd5b50508035926020909101359150565b60006020828403121561285b578081fd5b8135610ab681613362565b600060208284031215612877578081fd5b8151610ab681613362565b600060208284031215612893578081fd5b81356001600160401b038111156128a8578182fd5b8201601f810184136128b8578182fd5b6128c784823560208401612315565b949350505050565b6000815180845260208085019450808401835b838110156128fe578151875295820195908201906001016128e2565b509495945050505050565b600081518084526129218160208601602086016131f3565b601f01601f19169290920160200192915050565b60007f416363657373436f6e74726f6c3a206163636f756e74200000000000000000008252835161296d8160178501602088016131f3565b7001034b99036b4b9b9b4b733903937b6329607d1b601791840191820152835161299e8160288401602088016131f3565b01602801949350505050565b6001600160a01b0391909116815260200190565b6001600160a01b0386811682528516602082015260a0604082018190526000906129ea908301866128cf565b82810360608401526129fc81866128cf565b90508281036080840152612a108185612909565b98975050505050505050565b6001600160a01b03868116825285166020820152604081018490526060810183905260a060808201819052600090612a5690830184612909565b979650505050505050565b600060208252610ab660208301846128cf565b600060408252612a8760408301856128cf565b8281036020840152612a9981856128cf565b95945050505050565b901515815260200190565b90815260200190565b600060208252610ab66020830184612909565b60208082526034908201527f455243313135353a207472616e7366657220746f206e6f6e20455243313135356040820152732932b1b2b4bb32b91034b6b83632b6b2b73a32b960611b606082015260800190565b60208082526022908201527f456e756d657261626c655365743a20696e646578206f7574206f6620626f756e604082015261647360f01b606082015260800190565b6020808252818101527f537472696e67733a20686578206c656e67746820696e73756666696369656e74604082015260600190565b60208082526028908201527f455243313135353a204552433131353552656365697665722072656a656374656040820152676420746f6b656e7360c01b606082015260800190565b60208082526014908201527314185d5cd8589b194e881b9bdd081c185d5cd95960621b604082015260600190565b6020808252602b908201527f455243313135353a2062616c616e636520717565727920666f7220746865207a60408201526a65726f206164647265737360a81b606082015260800190565b60208082526024908201527f455243313135353a206275726e20616d6f756e7420657863656564732062616c604082015263616e636560e01b606082015260800190565b6020808252602c908201527f455243313135355061757361626c653a20746f6b656e207472616e736665722060408201526b1dda1a5b19481c185d5cd95960a21b606082015260800190565b60208082526029908201527f455243313135353a2063616c6c6572206973206e6f74206f776e6572206e6f7260408201526808185c1c1c9bdd995960ba1b606082015260800190565b60208082526010908201526f14185d5cd8589b194e881c185d5cd95960821b604082015260600190565b60208082526025908201527f455243313135353a207472616e7366657220746f20746865207a65726f206164604082015264647265737360d81b606082015260800190565b60208082526032908201527f455243313135353a207472616e736665722063616c6c6572206973206e6f74206040820152711bdddb995c881b9bdc88185c1c1c9bdd995960721b606082015260800190565b6020808252602e908201527f496e697469616c697a61626c653a20636f6e747261637420697320616c72656160408201526d191e481a5b9a5d1a585b1a5e995960921b606082015260800190565b60208082526023908201527f455243313135353a206275726e2066726f6d20746865207a65726f206164647260408201526265737360e81b606082015260800190565b60208082526038908201527f455243313135355072657365744d696e7465725061757365723a206d7573742060408201527f68617665206d696e74657220726f6c6520746f206d696e740000000000000000606082015260800190565b6020808252602a908201527f455243313135353a20696e73756666696369656e742062616c616e636520666f60408201526939103a3930b739b332b960b11b606082015260800190565b6020808252603b908201527f455243313135355072657365744d696e7465725061757365723a206d7573742060408201527f686176652070617573657220726f6c6520746f20756e70617573650000000000606082015260800190565b60208082526039908201527f455243313135355072657365744d696e7465725061757365723a206d7573742060408201527f686176652070617573657220726f6c6520746f20706175736500000000000000606082015260800190565b60208082526029908201527f455243313135353a2073657474696e6720617070726f76616c20737461747573604082015268103337b91039b2b63360b91b606082015260800190565b60208082526029908201527f455243313135353a206163636f756e747320616e6420696473206c656e677468604082015268040dad2e6dac2e8c6d60bb1b606082015260800190565b60208082526028908201527f455243313135353a2069647320616e6420616d6f756e7473206c656e677468206040820152670dad2e6dac2e8c6d60c31b606082015260800190565b60208082526021908201527f455243313135353a206d696e7420746f20746865207a65726f206164647265736040820152607360f81b606082015260800190565b6020808252602f908201527f416363657373436f6e74726f6c3a2063616e206f6e6c792072656e6f756e636560408201526e103937b632b9903337b91039b2b63360891b606082015260800190565b918252602082015260400190565b6040518181016001600160401b038111828210171561317a5761317a6132a2565b604052919050565b60006001600160401b0382111561319b5761319b6132a2565b5060209081020190565b600082198211156131b8576131b861328c565b500190565b60008160001904831182151516156131d7576131d761328c565b500290565b6000828210156131ee576131ee61328c565b500390565b60005b8381101561320e5781810151838201526020016131f6565b8381111561057f5750506000910152565b60008161322e5761322e61328c565b506000190190565b60028104600182168061324a57607f821691505b6020821081141561326b57634e487b7160e01b600052602260045260246000fd5b50919050565b60006000198214156132855761328561328c565b5060010190565b634e487b7160e01b600052601160045260246000fd5b634e487b7160e01b600052604160045260246000fd5b60e01c90565b600060443d10156132ce576109b3565b600481823e6308c379a06132e282516132b8565b146132ec576109b3565b6040513d600319016004823e80513d6001600160401b03816024840111818411171561331b57505050506109b3565b8284019250825191508082111561333557505050506109b3565b503d8301602082840101111561334d575050506109b3565b601f01601f1916810160200160405291505090565b6001600160e01b031981168114611e8a57600080fdfe65d7a28e3265b37a6474929f336521b332c1681b933f6cb9f3376673440d862a9f2df0fed2c77648de5860a4cc508cd0818c85b8b8a1ab4ceeef8d981c8956a6a26469706673582212206057b18ff79a55596a35dd10871bdafe4cf99a5e6cdc9932b3dbcdf3bfb937f764736f6c63430008000033",
  "linkReferences": {},
  "deployedLinkReferences": {}
}