{
  "_format": "hh-sol-artifact-1",
  "contractName": "ViolasNft721",
  "sourceName": "contracts/ViolasNft721.sol",
  "abi": [
    {
      "anonymous": false,
      "inputs": [
        {
          "indexed": true,
          "internalType": "address",
          "name": "owner",
          "type": "address"
        },
        {
          "indexed": true,
          "internalType": "address",
          "name": "approved",
          "type": "address"
        },
        {
          "indexed": true,
          "internalType": "uint256",
          "name": "tokenId",
          "type": "uint256"
        }
      ],
      "name": "Approval",
      "type": "event"
    },
    {
      "anonymous": false,
      "inputs": [
        {
          "indexed": true,
          "internalType": "address",
          "name": "owner",
          "type": "address"
        },
        {
          "indexed": true,
          "internalType": "address",
          "name": "operator",
          "type": "address"
        },
        {
          "indexed": false,
          "internalType": "bool",
          "name": "approved",
          "type": "bool"
        }
      ],
      "name": "ApprovalForAll",
      "type": "event"
    },
    {
      "anonymous": false,
      "inputs": [
        {
          "indexed": false,
          "internalType": "address",
          "name": "account",
          "type": "address"
        }
      ],
      "name": "Paused",
      "type": "event"
    },
    {
      "anonymous": false,
      "inputs": [
        {
          "indexed": true,
          "internalType": "bytes32",
          "name": "role",
          "type": "bytes32"
        },
        {
          "indexed": true,
          "internalType": "bytes32",
          "name": "previousAdminRole",
          "type": "bytes32"
        },
        {
          "indexed": true,
          "internalType": "bytes32",
          "name": "newAdminRole",
          "type": "bytes32"
        }
      ],
      "name": "RoleAdminChanged",
      "type": "event"
    },
    {
      "anonymous": false,
      "inputs": [
        {
          "indexed": true,
          "internalType": "bytes32",
          "name": "role",
          "type": "bytes32"
        },
        {
          "indexed": true,
          "internalType": "address",
          "name": "account",
          "type": "address"
        },
        {
          "indexed": true,
          "internalType": "address",
          "name": "sender",
          "type": "address"
        }
      ],
      "name": "RoleGranted",
      "type": "event"
    },
    {
      "anonymous": false,
      "inputs": [
        {
          "indexed": true,
          "internalType": "bytes32",
          "name": "role",
          "type": "bytes32"
        },
        {
          "indexed": true,
          "internalType": "address",
          "name": "account",
          "type": "address"
        },
        {
          "indexed": true,
          "internalType": "address",
          "name": "sender",
          "type": "address"
        }
      ],
      "name": "RoleRevoked",
      "type": "event"
    },
    {
      "anonymous": false,
      "inputs": [
        {
          "indexed": true,
          "internalType": "address",
          "name": "from",
          "type": "address"
        },
        {
          "indexed": true,
          "internalType": "address",
          "name": "to",
          "type": "address"
        },
        {
          "indexed": true,
          "internalType": "uint256",
          "name": "tokenId",
          "type": "uint256"
        }
      ],
      "name": "Transfer",
      "type": "event"
    },
    {
      "anonymous": false,
      "inputs": [
        {
          "indexed": false,
          "internalType": "address",
          "name": "account",
          "type": "address"
        }
      ],
      "name": "Unpaused",
      "type": "event"
    },
    {
      "inputs": [],
      "name": "DEFAULT_ADMIN_ROLE",
      "outputs": [
        {
          "internalType": "bytes32",
          "name": "",
          "type": "bytes32"
        }
      ],
      "stateMutability": "view",
      "type": "function"
    },
    {
      "inputs": [],
      "name": "MINTER_ROLE",
      "outputs": [
        {
          "internalType": "bytes32",
          "name": "",
          "type": "bytes32"
        }
      ],
      "stateMutability": "view",
      "type": "function"
    },
    {
      "inputs": [],
      "name": "PAUSER_ROLE",
      "outputs": [
        {
          "internalType": "bytes32",
          "name": "",
          "type": "bytes32"
        }
      ],
      "stateMutability": "view",
      "type": "function"
    },
    {
      "inputs": [
        {
          "internalType": "uint256",
          "name": "typeId",
          "type": "uint256"
        },
        {
          "internalType": "uint256",
          "name": "capacity",
          "type": "uint256"
        },
        {
          "internalType": "string",
          "name": "datas",
          "type": "string"
        }
      ],
      "name": "appendType",
      "outputs": [],
      "stateMutability": "nonpayable",
      "type": "function"
    },
    {
      "inputs": [
        {
          "internalType": "address",
          "name": "to",
          "type": "address"
        },
        {
          "internalType": "uint256",
          "name": "tokenId",
          "type": "uint256"
        }
      ],
      "name": "approve",
      "outputs": [],
      "stateMutability": "nonpayable",
      "type": "function"
    },
    {
      "inputs": [
        {
          "internalType": "address",
          "name": "owner",
          "type": "address"
        }
      ],
      "name": "balanceOf",
      "outputs": [
        {
          "internalType": "uint256",
          "name": "",
          "type": "uint256"
        }
      ],
      "stateMutability": "view",
      "type": "function"
    },
    {
      "inputs": [
        {
          "internalType": "uint256",
          "name": "tokenId",
          "type": "uint256"
        }
      ],
      "name": "burn",
      "outputs": [],
      "stateMutability": "nonpayable",
      "type": "function"
    },
    {
      "inputs": [],
      "name": "countOfType",
      "outputs": [
        {
          "internalType": "uint256",
          "name": "",
          "type": "uint256"
        }
      ],
      "stateMutability": "view",
      "type": "function"
    },
    {
      "inputs": [
        {
          "internalType": "uint256",
          "name": "tokenId",
          "type": "uint256"
        }
      ],
      "name": "getApproved",
      "outputs": [
        {
          "internalType": "address",
          "name": "",
          "type": "address"
        }
      ],
      "stateMutability": "view",
      "type": "function"
    },
    {
      "inputs": [
        {
          "internalType": "bytes32",
          "name": "role",
          "type": "bytes32"
        }
      ],
      "name": "getRoleAdmin",
      "outputs": [
        {
          "internalType": "bytes32",
          "name": "",
          "type": "bytes32"
        }
      ],
      "stateMutability": "view",
      "type": "function"
    },
    {
      "inputs": [
        {
          "internalType": "bytes32",
          "name": "role",
          "type": "bytes32"
        },
        {
          "internalType": "uint256",
          "name": "index",
          "type": "uint256"
        }
      ],
      "name": "getRoleMember",
      "outputs": [
        {
          "internalType": "address",
          "name": "",
          "type": "address"
        }
      ],
      "stateMutability": "view",
      "type": "function"
    },
    {
      "inputs": [
        {
          "internalType": "bytes32",
          "name": "role",
          "type": "bytes32"
        }
      ],
      "name": "getRoleMemberCount",
      "outputs": [
        {
          "internalType": "uint256",
          "name": "",
          "type": "uint256"
        }
      ],
      "stateMutability": "view",
      "type": "function"
    },
    {
      "inputs": [
        {
          "internalType": "bytes32",
          "name": "role",
          "type": "bytes32"
        },
        {
          "internalType": "address",
          "name": "account",
          "type": "address"
        }
      ],
      "name": "grantRole",
      "outputs": [],
      "stateMutability": "nonpayable",
      "type": "function"
    },
    {
      "inputs": [
        {
          "internalType": "bytes32",
          "name": "role",
          "type": "bytes32"
        },
        {
          "internalType": "address",
          "name": "account",
          "type": "address"
        }
      ],
      "name": "hasRole",
      "outputs": [
        {
          "internalType": "bool",
          "name": "",
          "type": "bool"
        }
      ],
      "stateMutability": "view",
      "type": "function"
    },
    {
      "inputs": [
        {
          "internalType": "uint256",
          "name": "typeId",
          "type": "uint256"
        },
        {
          "internalType": "uint256",
          "name": "count",
          "type": "uint256"
        }
      ],
      "name": "incrementTypeCapacity",
      "outputs": [],
      "stateMutability": "nonpayable",
      "type": "function"
    },
    {
      "inputs": [],
      "name": "indexStart",
      "outputs": [
        {
          "internalType": "uint256",
          "name": "",
          "type": "uint256"
        }
      ],
      "stateMutability": "view",
      "type": "function"
    },
    {
      "inputs": [
        {
          "internalType": "string",
          "name": "name",
          "type": "string"
        },
        {
          "internalType": "string",
          "name": "symbol",
          "type": "string"
        },
        {
          "internalType": "string",
          "name": "baseTokenURI",
          "type": "string"
        }
      ],
      "name": "initialize",
      "outputs": [],
      "stateMutability": "nonpayable",
      "type": "function"
    },
    {
      "inputs": [
        {
          "internalType": "address",
          "name": "owner",
          "type": "address"
        },
        {
          "internalType": "address",
          "name": "operator",
          "type": "address"
        }
      ],
      "name": "isApprovedForAll",
      "outputs": [
        {
          "internalType": "bool",
          "name": "",
          "type": "bool"
        }
      ],
      "stateMutability": "view",
      "type": "function"
    },
    {
      "inputs": [
        {
          "internalType": "uint256",
          "name": "typeId",
          "type": "uint256"
        }
      ],
      "name": "lockType",
      "outputs": [],
      "stateMutability": "nonpayable",
      "type": "function"
    },
    {
      "inputs": [
        {
          "internalType": "address",
          "name": "to",
          "type": "address"
        },
        {
          "internalType": "uint256",
          "name": "tokenId",
          "type": "uint256"
        },
        {
          "internalType": "uint256",
          "name": "typeId",
          "type": "uint256"
        }
      ],
      "name": "mint",
      "outputs": [],
      "stateMutability": "nonpayable",
      "type": "function"
    },
    {
      "inputs": [],
      "name": "name",
      "outputs": [
        {
          "internalType": "string",
          "name": "",
          "type": "string"
        }
      ],
      "stateMutability": "view",
      "type": "function"
    },
    {
      "inputs": [
        {
          "internalType": "uint256",
          "name": "tokenId",
          "type": "uint256"
        }
      ],
      "name": "ownerOf",
      "outputs": [
        {
          "internalType": "address",
          "name": "",
          "type": "address"
        }
      ],
      "stateMutability": "view",
      "type": "function"
    },
    {
      "inputs": [],
      "name": "pause",
      "outputs": [],
      "stateMutability": "nonpayable",
      "type": "function"
    },
    {
      "inputs": [],
      "name": "paused",
      "outputs": [
        {
          "internalType": "bool",
          "name": "",
          "type": "bool"
        }
      ],
      "stateMutability": "view",
      "type": "function"
    },
    {
      "inputs": [
        {
          "internalType": "bytes32",
          "name": "role",
          "type": "bytes32"
        },
        {
          "internalType": "address",
          "name": "account",
          "type": "address"
        }
      ],
      "name": "renounceRole",
      "outputs": [],
      "stateMutability": "nonpayable",
      "type": "function"
    },
    {
      "inputs": [
        {
          "internalType": "bytes32",
          "name": "role",
          "type": "bytes32"
        },
        {
          "internalType": "address",
          "name": "account",
          "type": "address"
        }
      ],
      "name": "revokeRole",
      "outputs": [],
      "stateMutability": "nonpayable",
      "type": "function"
    },
    {
      "inputs": [
        {
          "internalType": "address",
          "name": "from",
          "type": "address"
        },
        {
          "internalType": "address",
          "name": "to",
          "type": "address"
        },
        {
          "internalType": "uint256",
          "name": "tokenId",
          "type": "uint256"
        }
      ],
      "name": "safeTransferFrom",
      "outputs": [],
      "stateMutability": "nonpayable",
      "type": "function"
    },
    {
      "inputs": [
        {
          "internalType": "address",
          "name": "from",
          "type": "address"
        },
        {
          "internalType": "address",
          "name": "to",
          "type": "address"
        },
        {
          "internalType": "uint256",
          "name": "tokenId",
          "type": "uint256"
        },
        {
          "internalType": "bytes",
          "name": "_data",
          "type": "bytes"
        }
      ],
      "name": "safeTransferFrom",
      "outputs": [],
      "stateMutability": "nonpayable",
      "type": "function"
    },
    {
      "inputs": [
        {
          "internalType": "address",
          "name": "operator",
          "type": "address"
        },
        {
          "internalType": "bool",
          "name": "approved",
          "type": "bool"
        }
      ],
      "name": "setApprovalForAll",
      "outputs": [],
      "stateMutability": "nonpayable",
      "type": "function"
    },
    {
      "inputs": [
        {
          "internalType": "bytes4",
          "name": "interfaceId",
          "type": "bytes4"
        }
      ],
      "name": "supportsInterface",
      "outputs": [
        {
          "internalType": "bool",
          "name": "",
          "type": "bool"
        }
      ],
      "stateMutability": "view",
      "type": "function"
    },
    {
      "inputs": [],
      "name": "symbol",
      "outputs": [
        {
          "internalType": "string",
          "name": "",
          "type": "string"
        }
      ],
      "stateMutability": "view",
      "type": "function"
    },
    {
      "inputs": [
        {
          "internalType": "uint256",
          "name": "index",
          "type": "uint256"
        }
      ],
      "name": "tokenByIndex",
      "outputs": [
        {
          "internalType": "uint256",
          "name": "",
          "type": "uint256"
        }
      ],
      "stateMutability": "view",
      "type": "function"
    },
    {
      "inputs": [],
      "name": "tokenManager",
      "outputs": [
        {
          "internalType": "address",
          "name": "",
          "type": "address"
        }
      ],
      "stateMutability": "view",
      "type": "function"
    },
    {
      "inputs": [
        {
          "internalType": "address",
          "name": "owner",
          "type": "address"
        },
        {
          "internalType": "uint256",
          "name": "index",
          "type": "uint256"
        }
      ],
      "name": "tokenOfOwnerByIndex",
      "outputs": [
        {
          "internalType": "uint256",
          "name": "",
          "type": "uint256"
        }
      ],
      "stateMutability": "view",
      "type": "function"
    },
    {
      "inputs": [
        {
          "internalType": "uint256",
          "name": "tokenId",
          "type": "uint256"
        }
      ],
      "name": "tokenURI",
      "outputs": [
        {
          "internalType": "string",
          "name": "",
          "type": "string"
        }
      ],
      "stateMutability": "view",
      "type": "function"
    },
    {
      "inputs": [],
      "name": "totalSupply",
      "outputs": [
        {
          "internalType": "uint256",
          "name": "",
          "type": "uint256"
        }
      ],
      "stateMutability": "view",
      "type": "function"
    },
    {
      "inputs": [
        {
          "internalType": "address",
          "name": "from",
          "type": "address"
        },
        {
          "internalType": "address",
          "name": "to",
          "type": "address"
        },
        {
          "internalType": "uint256",
          "name": "tokenId",
          "type": "uint256"
        }
      ],
      "name": "transferFrom",
      "outputs": [],
      "stateMutability": "nonpayable",
      "type": "function"
    },
    {
      "inputs": [
        {
          "internalType": "uint256",
          "name": "index",
          "type": "uint256"
        }
      ],
      "name": "typeByIndex",
      "outputs": [
        {
          "internalType": "uint256",
          "name": "",
          "type": "uint256"
        }
      ],
      "stateMutability": "view",
      "type": "function"
    },
    {
      "inputs": [
        {
          "internalType": "uint256",
          "name": "typeId",
          "type": "uint256"
        }
      ],
      "name": "typeDatasOfType",
      "outputs": [
        {
          "internalType": "string",
          "name": "",
          "type": "string"
        }
      ],
      "stateMutability": "view",
      "type": "function"
    },
    {
      "inputs": [
        {
          "internalType": "uint256",
          "name": "typeId",
          "type": "uint256"
        }
      ],
      "name": "typeIsExists",
      "outputs": [
        {
          "internalType": "bool",
          "name": "",
          "type": "bool"
        }
      ],
      "stateMutability": "view",
      "type": "function"
    },
    {
      "inputs": [
        {
          "internalType": "uint256",
          "name": "typeId",
          "type": "uint256"
        }
      ],
      "name": "typeIsLocked",
      "outputs": [
        {
          "internalType": "bool",
          "name": "",
          "type": "bool"
        }
      ],
      "stateMutability": "view",
      "type": "function"
    },
    {
      "inputs": [
        {
          "internalType": "uint256",
          "name": "tokenId",
          "type": "uint256"
        }
      ],
      "name": "typeOfToken",
      "outputs": [
        {
          "internalType": "uint256",
          "name": "",
          "type": "uint256"
        }
      ],
      "stateMutability": "view",
      "type": "function"
    },
    {
      "inputs": [
        {
          "internalType": "uint256",
          "name": "typeId",
          "type": "uint256"
        }
      ],
      "name": "unlockType",
      "outputs": [],
      "stateMutability": "nonpayable",
      "type": "function"
    },
    {
      "inputs": [],
      "name": "unpause",
      "outputs": [],
      "stateMutability": "nonpayable",
      "type": "function"
    },
    {
      "inputs": [
        {
          "internalType": "address",
          "name": "manager",
          "type": "address"
        }
      ],
      "name": "updateTokenManager",
      "outputs": [],
      "stateMutability": "nonpayable",
      "type": "function"
    }
  ],
  "bytecode": "0x608060405234801561001057600080fd5b506137c7806100206000396000f3fe608060405234801561001057600080fd5b506004361061027f5760003560e01c80635c975abb1161015c578063a22cb465116100ce578063ce33c0c611610087578063ce33c0c61461053a578063d53913931461054d578063d547741f14610555578063e63ab1e914610568578063e985e9c514610570578063ea445595146105835761027f565b8063a22cb465146104c8578063a6487c53146104db578063b6eeeb22146104ee578063b88d4fde14610501578063c87b56dd14610514578063ca15c873146105275761027f565b806374a487381161012057806374a48738146104775780638456cb591461048a5780639010d07c1461049257806391d14854146104a557806395d89b41146104b8578063a217fddf146104c05761027f565b80635c975abb1461042e5780636352211e1461043657806368bcc3fd1461044957806370a082311461045c5780637363ee421461046f5761027f565b80632e643fa3116101f557806342842e0e116101b957806342842e0e146103bc57806342966c68146103cf5780634ed0181b146103e25780634f01e51b146103f55780634f6ccce7146104085780635b7852c91461041b5761027f565b80632e643fa3146103735780632f2ff15d1461037b5780632f745c591461038e57806336568abe146103a15780633f4ba83a146103b45761027f565b806310f33ee71161024757806310f33ee714610317578063156e29f61461032a57806318160ddd1461033d57806323b872dd14610345578063248a9ca3146103585780632a709b141461036b5761027f565b8063016c71bd1461028457806301ffc9a7146102ad57806306fdde03146102cd578063081812fc146102e2578063095ea7b314610302575b600080fd5b6102976102923660046129d6565b610596565b6040516102a49190612c94565b60405180910390f35b6102c06102bb366004612a31565b6105ac565b6040516102a49190612c89565b6102d56105bd565b6040516102a49190612c9d565b6102f56102f03660046129d6565b61064f565b6040516102a49190612c38565b61031561031036600461297b565b61069b565b005b6102c06103253660046129d6565b610733565b6103156103383660046129a4565b610749565b6102976107a5565b61031561035336600461288d565b6107ab565b6102976103663660046129d6565b6107e3565b6102f56107f8565b610297610808565b6103156103893660046129ee565b61080f565b61029761039c36600461297b565b610831565b6103156103af3660046129ee565b610883565b6103156108a5565b6103156103ca36600461288d565b6108e5565b6103156103dd3660046129d6565b610900565b6103156103f0366004612a10565b610933565b610315610403366004612841565b610a0d565b6102976104163660046129d6565b610aad565b6102976104293660046129d6565b610b08565b6102c0610b2c565b6102f56104443660046129d6565b610b36565b6103156104573660046129d6565b610b6b565b61029761046a366004612841565b610bb0565b610297610bf4565b6102c06104853660046129d6565b610bf9565b610315610c0f565b6102f56104a0366004612a10565b610c4d565b6102c06104b33660046129ee565b610c6c565b6102d5610c97565b610297610ca6565b6103156104d6366004612941565b610cab565b6103156104e9366004612a69565b610d79565b6103156104fc3660046129d6565b610dfc565b61031561050f3660046128c8565b610e3e565b6102d56105223660046129d6565b610e77565b6102976105353660046129d6565b610ef9565b610315610548366004612aed565b610f10565b610297611017565b6103156105633660046129ee565b61103b565b610297611045565b6102c061057e36600461285b565b611057565b6102d56105913660046129d6565b611085565b60008181526101cb60205260409020545b919050565b60006105b782611156565b92915050565b606060c980546105cc906136af565b80601f01602080910402602001604051908101604052809291908181526020018280546105f8906136af565b80156106455780601f1061061a57610100808354040283529160200191610645565b820191906000526020600020905b81548152906001019060200180831161062857829003601f168201915b5050505050905090565b600061065a8261117b565b61067f5760405162461bcd60e51b8152600401610676906132be565b60405180910390fd5b50600090815260cd60205260409020546001600160a01b031690565b60006106a682610b36565b9050806001600160a01b0316836001600160a01b031614156106da5760405162461bcd60e51b815260040161067690613436565b806001600160a01b03166106ec611198565b6001600160a01b0316148061070857506107088161057e611198565b6107245760405162461bcd60e51b815260040161067690613086565b61072e838361119c565b505050565b60009081526101c7602052604090205460ff1690565b6107757f9f2df0fed2c77648de5860a4cc508cd0818c85b8b8a1ab4ceeef8d981c8956a66104b3611198565b6107915760405162461bcd60e51b8152600401610676906131c4565b61079b83836111d7565b61072e82826111f1565b60fd5490565b6107bc6107b6611198565b826112bb565b6107d85760405162461bcd60e51b815260040161067690613477565b61072e838383611340565b60009081526065602052604090206001015490565b6101fc546001600160a01b031690565b6101c55490565b610819828261146d565b600082815260976020526040902061072e9082611491565b600061083c83610bb0565b821061085a5760405162461bcd60e51b815260040161067690612dca565b506001600160a01b0391909116600090815260fb60209081526040808320938352929052205490565b61088d82826114a6565b600082815260976020526040902061072e90826114e8565b6108bf6000805160206137728339815191526104b3611198565b6108db5760405162461bcd60e51b815260040161067690612f76565b6108e36114fd565b565b61072e83838360405180602001604052806000815250610e3e565b61090b6107b6611198565b6109275760405162461bcd60e51b81526004016106769061353d565b6109308161156c565b50565b61094060006104b3611198565b61095c5760405162461bcd60e51b81526004016106769061330a565b60008281526101c6602052604090205460ff1661098b5760405162461bcd60e51b815260040161067690612ecc565b610993610b2c565b156109b05760405162461bcd60e51b8152600401610676906133ed565b60008281526101c860205260409020546000196109cd838361360a565b11156109eb5760405162461bcd60e51b815260040161067690613514565b6109f5828261360a565b60009384526101c86020526040909320929092555050565b610a1a60006104b3611198565b610a365760405162461bcd60e51b81526004016106769061330a565b610a3e610b2c565b15610a5b5760405162461bcd60e51b8152600401610676906133ed565b6101fc546001600160a01b0382811691161415610a8a5760405162461bcd60e51b81526004016106769061320f565b6101fc80546001600160a01b0319166001600160a01b0392909216919091179055565b6000610ab76107a5565b8210610ad55760405162461bcd60e51b8152600401610676906134c8565b60fd8281548110610af657634e487b7160e01b600052603260045260246000fd5b90600052602060002001549050919050565b60006101c58281548110610af657634e487b7160e01b600052603260045260246000fd5b61015f5460ff1690565b600081815260cb60205260408120546001600160a01b0316806105b75760405162461bcd60e51b81526004016106769061312d565b610b7860006104b3611198565b610b945760405162461bcd60e51b81526004016106769061330a565b60009081526101c760205260409020805460ff19166001179055565b60006001600160a01b038216610bd85760405162461bcd60e51b8152600401610676906130e3565b506001600160a01b0316600090815260cc602052604090205490565b600090565b60009081526101c6602052604090205460ff1690565b610c296000805160206137728339815191526104b3611198565b610c455760405162461bcd60e51b815260040161067690612fc4565b6108e3611587565b6000828152609760205260408120610c6590836115e3565b9392505050565b60009182526065602090815260408084206001600160a01b0393909316845291905290205460ff1690565b606060ca80546105cc906136af565b600081565b610cb3611198565b6001600160a01b0316826001600160a01b03161415610ce45760405162461bcd60e51b815260040161067690612f3f565b8060ce6000610cf1611198565b6001600160a01b03908116825260208083019390935260409182016000908120918716808252919093529120805460ff191692151592909217909155610d35611198565b6001600160a01b03167f17307eab39ab6107e8899845ad3d59bd9653f200f220920489ca2b5937696c3183604051610d6d9190612c89565b60405180910390a35050565b600054610100900460ff1680610d92575060005460ff16155b610dae5760405162461bcd60e51b815260040161067690613176565b600054610100900460ff16158015610dd9576000805460ff1961ff0019909116610100171660011790555b610de48484846115ef565b8015610df6576000805461ff00191690555b50505050565b610e0960006104b3611198565b610e255760405162461bcd60e51b81526004016106769061330a565b60009081526101c760205260409020805460ff19169055565b610e4f610e49611198565b836112bb565b610e6b5760405162461bcd60e51b815260040161067690613477565b610df6848484846116a2565b6060610e828261117b565b610e9e5760405162461bcd60e51b81526004016106769061339e565b6000610ea86116d5565b90506000815111610ec85760405180602001604052806000815250610c65565b80610ed2846116e5565b604051602001610ee3929190612b94565b6040516020818303038152906040529392505050565b60008181526097602052604081206105b790611800565b610f1d60006104b3611198565b610f395760405162461bcd60e51b81526004016106769061330a565b60008481526101c6602052604090205460ff1615610f695760405162461bcd60e51b8152600401610676906135dc565b610f71610b2c565b15610f8e5760405162461bcd60e51b8152600401610676906133ed565b60008481526101c660209081526040808320805460ff199081166001179091556101c78352818420805490911690556101ca9091529020610fd0908383612688565b50506101c58054600181019091557f818f40e4590a6f2c3ec1caee0533b9960911937d8dd67c8f1447b1392a84f253018390555060009182526101c8602052604090912055565b7f9f2df0fed2c77648de5860a4cc508cd0818c85b8b8a1ab4ceeef8d981c8956a681565b61088d828261180b565b60008051602061377283398151915281565b6001600160a01b03918216600090815260ce6020908152604080832093909416825291909152205460ff1690565b60008181526101c6602052604090205460609060ff166110b75760405162461bcd60e51b81526004016106769061328e565b60008281526101ca6020526040902080546110d1906136af565b80601f01602080910402602001604051908101604052809291908181526020018280546110fd906136af565b801561114a5780601f1061111f5761010080835404028352916020019161114a565b820191906000526020600020905b81548152906001019060200180831161112d57829003601f168201915b50505050509050919050565b60006001600160e01b0319821663780e9d6360e01b14806105b757506105b78261182a565b600090815260cb60205260409020546001600160a01b0316151590565b3390565b6101fc546001600160a01b03166111bc576111b7828261186a565b6111d3565b6101fc546111d3906001600160a01b03168261186a565b5050565b6111d38282604051806020016040528060008152506118d8565b60008181526101c6602052604090205460ff166112205760405162461bcd60e51b81526004016106769061328e565b60008181526101c7602052604090205460ff16156112505760405162461bcd60e51b815260040161067690612cb0565b60008181526101c860209081526040808320546101c99092529091206112759061190b565b106112925760405162461bcd60e51b815260040161067690612e15565b60008281526101cb602090815260408083208490558383526101c990915290206111d39061190f565b60006112c68261117b565b6112e25760405162461bcd60e51b815260040161067690613010565b60006112ed83610b36565b9050806001600160a01b0316846001600160a01b031614806113285750836001600160a01b031661131d8461064f565b6001600160a01b0316145b8061133857506113388185611057565b949350505050565b826001600160a01b031661135382610b36565b6001600160a01b0316146113795760405162461bcd60e51b815260040161067690613355565b6001600160a01b03821661139f5760405162461bcd60e51b815260040161067690612efb565b6113aa838383611918565b6113b560008261119c565b6001600160a01b038316600090815260cc602052604081208054600192906113de908490613655565b90915550506001600160a01b038216600090815260cc6020526040812080546001929061140c90849061360a565b9091555050600081815260cb602052604080822080546001600160a01b0319166001600160a01b0386811691821790925591518493918716917fddf252ad1be2c89b69c2b068fc378daa952ba7f163c4a11628f55a4df523b3ef91a4505050565b611476826107e3565b61148781611482611198565b611923565b61072e8383611987565b6000610c65836001600160a01b038416611a0e565b6114ae611198565b6001600160a01b0316816001600160a01b0316146114de5760405162461bcd60e51b81526004016106769061358d565b6111d38282611a58565b6000610c65836001600160a01b038416611add565b611505610b2c565b6115215760405162461bcd60e51b815260040161067690612d9c565b61015f805460ff191690557f5db9ee0a495bf2e6ff9c91a7834c1ba4fdd244a5e8aa4e537bd38aeae4b073aa611555611198565b6040516115629190612c38565b60405180910390a1565b61157581611bf4565b60009081526101cb6020526040812055565b61158f610b2c565b156115ac5760405162461bcd60e51b81526004016106769061305c565b61015f805460ff191660011790557f62e78cea01bee320cd4e420270b5ea74000d11b0c9f74754ebdbfc544b05a258611555611198565b6000610c658383611c9b565b600054610100900460ff1680611608575060005460ff16155b6116245760405162461bcd60e51b815260040161067690613176565b600054610100900460ff1615801561164f576000805460ff1961ff0019909116610100171660011790555b611657611cf4565b61165f611cf4565b611667611cf4565b61166f611cf4565b6116798484611d68565b611681611cf4565b611689611cf4565b611691611e06565b611699611cf4565b610de482611e85565b6116ad848484611340565b6116b984848484611f90565b610df65760405162461bcd60e51b815260040161067690612e43565b60606101c380546105cc906136af565b60608161170a57506040805180820190915260018152600360fc1b60208201526105a7565b8160005b8115611734578061171e816136ea565b915061172d9050600a83613622565b915061170e565b60008167ffffffffffffffff81111561175d57634e487b7160e01b600052604160045260246000fd5b6040519080825280601f01601f191660200182016040528015611787576020820181803683370190505b5090505b84156113385761179c600183613655565b91506117a9600a86613705565b6117b490603061360a565b60f81b8183815181106117d757634e487b7160e01b600052603260045260246000fd5b60200101906001600160f81b031916908160001a9053506117f9600a86613622565b945061178b565b60006105b78261190b565b611814826107e3565b61182081611482611198565b61072e8383611a58565b60006001600160e01b031982166380ac58cd60e01b148061185b57506001600160e01b03198216635b5e139f60e01b145b806105b757506105b7826120ab565b600081815260cd6020526040902080546001600160a01b0319166001600160a01b038416908117909155819061189f82610b36565b6001600160a01b03167f8c5be1e5ebec7d5bd14f71427d1e84f3dd0314c0f7b2291e5b200ac8c7c3b92560405160405180910390a45050565b6118e283836120d0565b6118ef6000848484611f90565b61072e5760405162461bcd60e51b815260040161067690612e43565b5490565b80546001019055565b61072e8383836121af565b61192d8282610c6c565b6111d357611945816001600160a01b031660146121df565b6119508360206121df565b604051602001611961929190612bc3565b60408051601f198184030181529082905262461bcd60e51b825261067691600401612c9d565b6119918282610c6c565b6111d35760008281526065602090815260408083206001600160a01b03851684529091529020805460ff191660011790556119ca611198565b6001600160a01b0316816001600160a01b0316837f2f8788117e7eff1d82e926ec794901d17c78024a50270940304540a733656f0d60405160405180910390a45050565b6000611a1a8383612391565b611a50575081546001818101845560008481526020808220909301849055845484825282860190935260409020919091556105b7565b5060006105b7565b611a628282610c6c565b156111d35760008281526065602090815260408083206001600160a01b03851684529091529020805460ff19169055611a99611198565b6001600160a01b0316816001600160a01b0316837ff6391f5c32d9c69d2a47ea670b442974b53935d1edc7fd64eb21e047a839171b60405160405180910390a45050565b60008181526001830160205260408120548015611bea576000611b01600183613655565b8554909150600090611b1590600190613655565b90506000866000018281548110611b3c57634e487b7160e01b600052603260045260246000fd5b9060005260206000200154905080876000018481548110611b6d57634e487b7160e01b600052603260045260246000fd5b600091825260208083209091019290925582815260018901909152604090208490558654879080611bae57634e487b7160e01b600052603160045260246000fd5b600190038181906000526020600020016000905590558660010160008781526020019081526020016000206000905560019450505050506105b7565b60009150506105b7565b6000611bff82610b36565b9050611c0d81600084611918565b611c1860008361119c565b6001600160a01b038116600090815260cc60205260408120805460019290611c41908490613655565b9091555050600082815260cb602052604080822080546001600160a01b0319169055518391906001600160a01b038416907fddf252ad1be2c89b69c2b068fc378daa952ba7f163c4a11628f55a4df523b3ef908390a45050565b81546000908210611cbe5760405162461bcd60e51b815260040161067690612cda565b826000018281548110611ce157634e487b7160e01b600052603260045260246000fd5b9060005260206000200154905092915050565b600054610100900460ff1680611d0d575060005460ff16155b611d295760405162461bcd60e51b815260040161067690613176565b600054610100900460ff16158015611d54576000805460ff1961ff0019909116610100171660011790555b8015610930576000805461ff001916905550565b600054610100900460ff1680611d81575060005460ff16155b611d9d5760405162461bcd60e51b815260040161067690613176565b600054610100900460ff16158015611dc8576000805460ff1961ff0019909116610100171660011790555b8251611ddb9060c990602086019061270c565b508151611def9060ca90602085019061270c565b50801561072e576000805461ff0019169055505050565b600054610100900460ff1680611e1f575060005460ff16155b611e3b5760405162461bcd60e51b815260040161067690613176565b600054610100900460ff16158015611e66576000805460ff1961ff0019909116610100171660011790555b61015f805460ff191690558015610930576000805461ff001916905550565b600054610100900460ff1680611e9e575060005460ff16155b611eba5760405162461bcd60e51b815260040161067690613176565b600054610100900460ff16158015611ee5576000805460ff1961ff0019909116610100171660011790555b8151611ef9906101c390602085019061270c565b50611f0c6000611f07611198565b6123a9565b611f387f9f2df0fed2c77648de5860a4cc508cd0818c85b8b8a1ab4ceeef8d981c8956a6611f07611198565b611f52600080516020613772833981519152611f07611198565b611f5a611198565b6101fc80546001600160a01b0319166001600160a01b039290921691909117905580156111d3576000805461ff00191690555050565b6000611fa4846001600160a01b03166123b3565b156120a057836001600160a01b031663150b7a02611fc0611198565b8786866040518563ffffffff1660e01b8152600401611fe29493929190612c4c565b602060405180830381600087803b158015611ffc57600080fd5b505af192505050801561202c575060408051601f3d908101601f1916820190925261202991810190612a4d565b60015b612086573d80801561205a576040519150601f19603f3d011682016040523d82523d6000602084013e61205f565b606091505b50805161207e5760405162461bcd60e51b815260040161067690612e43565b805181602001fd5b6001600160e01b031916630a85bd0160e11b149050611338565b506001949350505050565b60006001600160e01b03198216635a05180f60e01b14806105b757506105b7826123b9565b6001600160a01b0382166120f65760405162461bcd60e51b815260040161067690613259565b6120ff8161117b565b1561211c5760405162461bcd60e51b815260040161067690612e95565b61212860008383611918565b6001600160a01b038216600090815260cc6020526040812080546001929061215190849061360a565b9091555050600081815260cb602052604080822080546001600160a01b0319166001600160a01b03861690811790915590518392907fddf252ad1be2c89b69c2b068fc378daa952ba7f163c4a11628f55a4df523b3ef908290a45050565b6121ba8383836123de565b6121c2610b2c565b1561072e5760405162461bcd60e51b815260040161067690612d51565b606060006121ee836002613636565b6121f990600261360a565b67ffffffffffffffff81111561221f57634e487b7160e01b600052604160045260246000fd5b6040519080825280601f01601f191660200182016040528015612249576020820181803683370190505b509050600360fc1b8160008151811061227257634e487b7160e01b600052603260045260246000fd5b60200101906001600160f81b031916908160001a905350600f60fb1b816001815181106122af57634e487b7160e01b600052603260045260246000fd5b60200101906001600160f81b031916908160001a90535060006122d3846002613636565b6122de90600161360a565b90505b6001811115612372576f181899199a1a9b1b9c1cb0b131b232b360811b85600f166010811061232057634e487b7160e01b600052603260045260246000fd5b1a60f81b82828151811061234457634e487b7160e01b600052603260045260246000fd5b60200101906001600160f81b031916908160001a90535060049490941c9361236b81613698565b90506122e1565b508315610c655760405162461bcd60e51b815260040161067690612d1c565b60009081526001919091016020526040902054151590565b6108198282612467565b3b151590565b60006001600160e01b03198216637965db0b60e01b14806105b757506105b782612471565b6123e983838361072e565b6001600160a01b038316612405576124008161248a565b612428565b816001600160a01b0316836001600160a01b0316146124285761242883826124ce565b6001600160a01b0382166124445761243f8161256b565b61072e565b826001600160a01b0316826001600160a01b03161461072e5761072e8282612644565b6111d38282611987565b6001600160e01b031981166301ffc9a760e01b14919050565b60fd8054600083815260fe60205260408120829055600182018355919091527f9346ac6dd7de6b96975fec380d4d994c4c12e6a8897544f22915316cc6cca2800155565b600060016124db84610bb0565b6124e59190613655565b600083815260fc6020526040902054909150808214612538576001600160a01b038416600090815260fb60209081526040808320858452825280832054848452818420819055835260fc90915290208190555b50600091825260fc602090815260408084208490556001600160a01b03909416835260fb81528383209183525290812055565b60fd5460009061257d90600190613655565b600083815260fe602052604081205460fd80549394509092849081106125b357634e487b7160e01b600052603260045260246000fd5b906000526020600020015490508060fd83815481106125e257634e487b7160e01b600052603260045260246000fd5b600091825260208083209091019290925582815260fe909152604080822084905585825281205560fd80548061262857634e487b7160e01b600052603160045260246000fd5b6001900381819060005260206000200160009055905550505050565b600061264f83610bb0565b6001600160a01b03909316600090815260fb60209081526040808320868452825280832085905593825260fc9052919091209190915550565b828054612694906136af565b90600052602060002090601f0160209004810192826126b657600085556126fc565b82601f106126cf5782800160ff198235161785556126fc565b828001600101855582156126fc579182015b828111156126fc5782358255916020019190600101906126e1565b50612708929150612780565b5090565b828054612718906136af565b90600052602060002090601f01602090048101928261273a57600085556126fc565b82601f1061275357805160ff19168380011785556126fc565b828001600101855582156126fc579182015b828111156126fc578251825591602001919060010190612765565b5b808211156127085760008155600101612781565b600067ffffffffffffffff808411156127b0576127b0613745565b604051601f8501601f19908116603f011681019082821181831017156127d8576127d8613745565b816040528093508581528686860111156127f157600080fd5b858560208301376000602087830101525050509392505050565b80356001600160a01b03811681146105a757600080fd5b600082601f830112612832578081fd5b610c6583833560208501612795565b600060208284031215612852578081fd5b610c658261280b565b6000806040838503121561286d578081fd5b6128768361280b565b91506128846020840161280b565b90509250929050565b6000806000606084860312156128a1578081fd5b6128aa8461280b565b92506128b86020850161280b565b9150604084013590509250925092565b600080600080608085870312156128dd578081fd5b6128e68561280b565b93506128f46020860161280b565b925060408501359150606085013567ffffffffffffffff811115612916578182fd5b8501601f81018713612926578182fd5b61293587823560208401612795565b91505092959194509250565b60008060408385031215612953578182fd5b61295c8361280b565b915060208301358015158114612970578182fd5b809150509250929050565b6000806040838503121561298d578182fd5b6129968361280b565b946020939093013593505050565b6000806000606084860312156129b8578283fd5b6129c18461280b565b95602085013595506040909401359392505050565b6000602082840312156129e7578081fd5b5035919050565b60008060408385031215612a00578182fd5b823591506128846020840161280b565b60008060408385031215612a22578182fd5b50508035926020909101359150565b600060208284031215612a42578081fd5b8135610c658161375b565b600060208284031215612a5e578081fd5b8151610c658161375b565b600080600060608486031215612a7d578081fd5b833567ffffffffffffffff80821115612a94578283fd5b612aa087838801612822565b94506020860135915080821115612ab5578283fd5b612ac187838801612822565b93506040860135915080821115612ad6578283fd5b50612ae386828701612822565b9150509250925092565b60008060008060608587031215612b02578182fd5b8435935060208501359250604085013567ffffffffffffffff80821115612b27578384fd5b818701915087601f830112612b3a578384fd5b813581811115612b48578485fd5b886020828501011115612b59578485fd5b95989497505060200194505050565b60008151808452612b8081602086016020860161366c565b601f01601f19169290920160200192915050565b60008351612ba681846020880161366c565b835190830190612bba81836020880161366c565b01949350505050565b60007f416363657373436f6e74726f6c3a206163636f756e742000000000000000000082528351612bfb81601785016020880161366c565b7001034b99036b4b9b9b4b733903937b6329607d1b6017918401918201528351612c2c81602884016020880161366c565b01602801949350505050565b6001600160a01b0391909116815260200190565b6001600160a01b0385811682528416602082015260408101839052608060608201819052600090612c7f90830184612b68565b9695505050505050565b901515815260200190565b90815260200190565b600060208252610c656020830184612b68565b60208082526010908201526f1d1e5c195259081a5cc81b1bd8dad95960821b604082015260600190565b60208082526022908201527f456e756d657261626c655365743a20696e646578206f7574206f6620626f756e604082015261647360f01b606082015260800190565b6020808252818101527f537472696e67733a20686578206c656e67746820696e73756666696369656e74604082015260600190565b6020808252602b908201527f4552433732315061757361626c653a20746f6b656e207472616e73666572207760408201526a1a1a5b19481c185d5cd95960aa1b606082015260800190565b60208082526014908201527314185d5cd8589b194e881b9bdd081c185d5cd95960621b604082015260600190565b6020808252602b908201527f455243373231456e756d657261626c653a206f776e657220696e646578206f7560408201526a74206f6620626f756e647360a81b606082015260800190565b60208082526014908201527374797065206973206d617820636170616369747960601b604082015260600190565b60208082526032908201527f4552433732313a207472616e7366657220746f206e6f6e20455243373231526560408201527131b2b4bb32b91034b6b83632b6b2b73a32b960711b606082015260800190565b6020808252601c908201527f4552433732313a20746f6b656e20616c7265616479206d696e74656400000000604082015260600190565b6020808252601590820152743a3cb832903237b2b9903737ba1032bc34b9ba399760591b604082015260600190565b60208082526024908201527f4552433732313a207472616e7366657220746f20746865207a65726f206164646040820152637265737360e01b606082015260800190565b60208082526019908201527f4552433732313a20617070726f766520746f2063616c6c657200000000000000604082015260600190565b6020808252602e908201527f56696f6c61734e66743732313a206d757374206861766520706175736572207260408201526d6f6c6520746f20756e706175736560901b606082015260800190565b6020808252602c908201527f56696f6c61734e66743732313a206d757374206861766520706175736572207260408201526b6f6c6520746f20706175736560a01b606082015260800190565b6020808252602c908201527f4552433732313a206f70657261746f7220717565727920666f72206e6f6e657860408201526b34b9ba32b73a103a37b5b2b760a11b606082015260800190565b60208082526010908201526f14185d5cd8589b194e881c185d5cd95960821b604082015260600190565b60208082526038908201527f4552433732313a20617070726f76652063616c6c6572206973206e6f74206f7760408201527f6e6572206e6f7220617070726f76656420666f7220616c6c0000000000000000606082015260800190565b6020808252602a908201527f4552433732313a2062616c616e636520717565727920666f7220746865207a65604082015269726f206164647265737360b01b606082015260800190565b60208082526029908201527f4552433732313a206f776e657220717565727920666f72206e6f6e657869737460408201526832b73a103a37b5b2b760b91b606082015260800190565b6020808252602e908201527f496e697469616c697a61626c653a20636f6e747261637420697320616c72656160408201526d191e481a5b9a5d1a585b1a5e995960921b606082015260800190565b6020808252602b908201527f56696f6c61734e66743732313a206d7573742068617665206d696e746572207260408201526a1bdb19481d1bc81b5a5b9d60aa1b606082015260800190565b6020808252602a908201527f56696f6c61734e66743732313a2074686973206d616e6167657220616c726561604082015269323c9032bc34b9ba399760b11b606082015260800190565b6020808252818101527f4552433732313a206d696e7420746f20746865207a65726f2061646472657373604082015260600190565b60208082526016908201527574797065496420646f6573206e6f742065786973747360501b604082015260600190565b6020808252602c908201527f4552433732313a20617070726f76656420717565727920666f72206e6f6e657860408201526b34b9ba32b73a103a37b5b2b760a11b606082015260800190565b6020808252602b908201527f56696f6c61734e66743732313a206d75737420686176652061646d696e20726f60408201526a1b19481d1bc819dc985b9d60aa1b606082015260800190565b60208082526029908201527f4552433732313a207472616e73666572206f6620746f6b656e2074686174206960408201526839903737ba1037bbb760b91b606082015260800190565b6020808252602f908201527f4552433732314d657461646174613a2055524920717565727920666f72206e6f60408201526e3732bc34b9ba32b73a103a37b5b2b760891b606082015260800190565b60208082526029908201527f56696f6c61734e66743732313a20746f6b656e207472616e73666572207768696040820152681b19481c185d5cd95960ba1b606082015260800190565b60208082526021908201527f4552433732313a20617070726f76616c20746f2063757272656e74206f776e656040820152603960f91b606082015260800190565b60208082526031908201527f4552433732313a207472616e736665722063616c6c6572206973206e6f74206f6040820152701ddb995c881b9bdc88185c1c1c9bdd9959607a1b606082015260800190565b6020808252602c908201527f455243373231456e756d657261626c653a20676c6f62616c20696e646578206f60408201526b7574206f6620626f756e647360a01b606082015260800190565b6020808252600f908201526e3b30b63ab29037bb32b9333637bb9760891b604082015260600190565b60208082526030908201527f4552433732314275726e61626c653a2063616c6c6572206973206e6f74206f7760408201526f1b995c881b9bdc88185c1c1c9bdd995960821b606082015260800190565b6020808252602f908201527f416363657373436f6e74726f6c3a2063616e206f6e6c792072656e6f756e636560408201526e103937b632b9903337b91039b2b63360891b606082015260800190565b6020808252601490820152733a3cb8329030b63932b0b23c9032bc34b9ba399760611b604082015260600190565b6000821982111561361d5761361d613719565b500190565b6000826136315761363161372f565b500490565b600081600019048311821515161561365057613650613719565b500290565b60008282101561366757613667613719565b500390565b60005b8381101561368757818101518382015260200161366f565b83811115610df65750506000910152565b6000816136a7576136a7613719565b506000190190565b6002810460018216806136c357607f821691505b602082108114156136e457634e487b7160e01b600052602260045260246000fd5b50919050565b60006000198214156136fe576136fe613719565b5060010190565b6000826137145761371461372f565b500690565b634e487b7160e01b600052601160045260246000fd5b634e487b7160e01b600052601260045260246000fd5b634e487b7160e01b600052604160045260246000fd5b6001600160e01b03198116811461093057600080fdfe65d7a28e3265b37a6474929f336521b332c1681b933f6cb9f3376673440d862aa26469706673582212208002d5e5c9e54e71a323ad01f1d111b8881d7f41e68ddb700620d62c20b0e2c764736f6c63430008010033",
  "linkReferences": {},
  "deployedLinkReferences": {}
}