{
  "_format": "hh-sol-artifact-1",
  "contractName": "ViolasNft721",
  "sourceName": "contracts/ViolasNft721.sol",
  "abi": [
    {
      "anonymous": false,
      "inputs": [
        {
          "indexed": true,
          "internalType": "address",
          "name": "owner",
          "type": "address"
        },
        {
          "indexed": true,
          "internalType": "address",
          "name": "approved",
          "type": "address"
        },
        {
          "indexed": true,
          "internalType": "uint256",
          "name": "tokenId",
          "type": "uint256"
        }
      ],
      "name": "Approval",
      "type": "event"
    },
    {
      "anonymous": false,
      "inputs": [
        {
          "indexed": true,
          "internalType": "address",
          "name": "owner",
          "type": "address"
        },
        {
          "indexed": true,
          "internalType": "address",
          "name": "operator",
          "type": "address"
        },
        {
          "indexed": false,
          "internalType": "bool",
          "name": "approved",
          "type": "bool"
        }
      ],
      "name": "ApprovalForAll",
      "type": "event"
    },
    {
      "anonymous": false,
      "inputs": [
        {
          "indexed": true,
          "internalType": "address",
          "name": "from",
          "type": "address"
        },
        {
          "indexed": true,
          "internalType": "address",
          "name": "to",
          "type": "address"
        },
        {
          "indexed": true,
          "internalType": "uint256",
          "name": "tokenId",
          "type": "uint256"
        }
      ],
      "name": "Transfer",
      "type": "event"
    },
    {
      "inputs": [
        {
          "internalType": "address",
          "name": "to",
          "type": "address"
        },
        {
          "internalType": "uint256",
          "name": "tokenId",
          "type": "uint256"
        }
      ],
      "name": "approve",
      "outputs": [],
      "stateMutability": "nonpayable",
      "type": "function"
    },
    {
      "inputs": [
        {
          "internalType": "address",
          "name": "owner",
          "type": "address"
        }
      ],
      "name": "balanceOf",
      "outputs": [
        {
          "internalType": "uint256",
          "name": "",
          "type": "uint256"
        }
      ],
      "stateMutability": "view",
      "type": "function"
    },
    {
      "inputs": [
        {
          "internalType": "uint256",
          "name": "tokenId",
          "type": "uint256"
        }
      ],
      "name": "getApproved",
      "outputs": [
        {
          "internalType": "address",
          "name": "",
          "type": "address"
        }
      ],
      "stateMutability": "view",
      "type": "function"
    },
    {
      "inputs": [],
      "name": "initialize",
      "outputs": [],
      "stateMutability": "nonpayable",
      "type": "function"
    },
    {
      "inputs": [
        {
          "internalType": "address",
          "name": "owner",
          "type": "address"
        },
        {
          "internalType": "address",
          "name": "operator",
          "type": "address"
        }
      ],
      "name": "isApprovedForAll",
      "outputs": [
        {
          "internalType": "bool",
          "name": "",
          "type": "bool"
        }
      ],
      "stateMutability": "view",
      "type": "function"
    },
    {
      "inputs": [],
      "name": "name",
      "outputs": [
        {
          "internalType": "string",
          "name": "",
          "type": "string"
        }
      ],
      "stateMutability": "view",
      "type": "function"
    },
    {
      "inputs": [
        {
          "internalType": "uint256",
          "name": "tokenId",
          "type": "uint256"
        }
      ],
      "name": "ownerOf",
      "outputs": [
        {
          "internalType": "address",
          "name": "",
          "type": "address"
        }
      ],
      "stateMutability": "view",
      "type": "function"
    },
    {
      "inputs": [
        {
          "internalType": "address",
          "name": "from",
          "type": "address"
        },
        {
          "internalType": "address",
          "name": "to",
          "type": "address"
        },
        {
          "internalType": "uint256",
          "name": "tokenId",
          "type": "uint256"
        }
      ],
      "name": "safeTransferFrom",
      "outputs": [],
      "stateMutability": "nonpayable",
      "type": "function"
    },
    {
      "inputs": [
        {
          "internalType": "address",
          "name": "from",
          "type": "address"
        },
        {
          "internalType": "address",
          "name": "to",
          "type": "address"
        },
        {
          "internalType": "uint256",
          "name": "tokenId",
          "type": "uint256"
        },
        {
          "internalType": "bytes",
          "name": "_data",
          "type": "bytes"
        }
      ],
      "name": "safeTransferFrom",
      "outputs": [],
      "stateMutability": "nonpayable",
      "type": "function"
    },
    {
      "inputs": [
        {
          "internalType": "address",
          "name": "operator",
          "type": "address"
        },
        {
          "internalType": "bool",
          "name": "approved",
          "type": "bool"
        }
      ],
      "name": "setApprovalForAll",
      "outputs": [],
      "stateMutability": "nonpayable",
      "type": "function"
    },
    {
      "inputs": [
        {
          "internalType": "bytes4",
          "name": "interfaceId",
          "type": "bytes4"
        }
      ],
      "name": "supportsInterface",
      "outputs": [
        {
          "internalType": "bool",
          "name": "",
          "type": "bool"
        }
      ],
      "stateMutability": "view",
      "type": "function"
    },
    {
      "inputs": [],
      "name": "symbol",
      "outputs": [
        {
          "internalType": "string",
          "name": "",
          "type": "string"
        }
      ],
      "stateMutability": "view",
      "type": "function"
    },
    {
      "inputs": [
        {
          "internalType": "uint256",
          "name": "tokenId",
          "type": "uint256"
        }
      ],
      "name": "tokenURI",
      "outputs": [
        {
          "internalType": "string",
          "name": "",
          "type": "string"
        }
      ],
      "stateMutability": "view",
      "type": "function"
    },
    {
      "inputs": [
        {
          "internalType": "address",
          "name": "from",
          "type": "address"
        },
        {
          "internalType": "address",
          "name": "to",
          "type": "address"
        },
        {
          "internalType": "uint256",
          "name": "tokenId",
          "type": "uint256"
        }
      ],
      "name": "transferFrom",
      "outputs": [],
      "stateMutability": "nonpayable",
      "type": "function"
    }
  ],
  "bytecode": "0x608060405234801561001057600080fd5b5061167e806100206000396000f3fe608060405234801561001057600080fd5b50600436106100ea5760003560e01c806370a082311161008c578063a22cb46511610066578063a22cb465146101cb578063b88d4fde146101de578063c87b56dd146101f1578063e985e9c514610204576100ea565b806370a082311461019b5780638129fc1c146101bb57806395d89b41146101c3576100ea565b8063095ea7b3116100c8578063095ea7b31461014d57806323b872dd1461016257806342842e0e146101755780636352211e14610188576100ea565b806301ffc9a7146100ef57806306fdde0314610118578063081812fc1461012d575b600080fd5b6101026100fd366004611027565b610217565b60405161010f9190611123565b60405180910390f35b61012061025f565b60405161010f919061112e565b61014061013b36600461105f565b6102f1565b60405161010f91906110d2565b61016061015b366004610ffe565b61033d565b005b610160610170366004610ebd565b6103d5565b610160610183366004610ebd565b61040d565b61014061019636600461105f565b610428565b6101ae6101a9366004610e71565b61045d565b60405161010f919061150e565b6101606104a1565b610120610563565b6101606101d9366004610fc4565b610572565b6101606101ec366004610ef8565b610640565b6101206101ff36600461105f565b61067f565b610102610212366004610e8b565b610702565b60006001600160e01b031982166380ac58cd60e01b148061024857506001600160e01b03198216635b5e139f60e01b145b80610257575061025782610730565b90505b919050565b60606065805461026e90611586565b80601f016020809104026020016040519081016040528092919081815260200182805461029a90611586565b80156102e75780601f106102bc576101008083540402835291602001916102e7565b820191906000526020600020905b8154815290600101906020018083116102ca57829003601f168201915b5050505050905090565b60006102fc82610749565b6103215760405162461bcd60e51b815260040161031890611398565b60405180910390fd5b506000908152606960205260409020546001600160a01b031690565b600061034882610428565b9050806001600160a01b0316836001600160a01b0316141561037c5760405162461bcd60e51b81526004016103189061147c565b806001600160a01b031661038e610766565b6001600160a01b031614806103aa57506103aa81610212610766565b6103c65760405162461bcd60e51b81526004016103189061125a565b6103d0838361076a565b505050565b6103e66103e0610766565b826107d8565b6104025760405162461bcd60e51b8152600401610318906114bd565b6103d083838361085d565b6103d083838360405180602001604052806000815250610640565b6000818152606760205260408120546001600160a01b0316806102575760405162461bcd60e51b815260040161031890611301565b60006001600160a01b0382166104855760405162461bcd60e51b8152600401610318906112b7565b506001600160a01b031660009081526068602052604090205490565b600054610100900460ff16806104ba575060005460ff16155b6104d65760405162461bcd60e51b81526004016103189061134a565b600054610100900460ff16158015610501576000805460ff1961ff0019909116610100171660011790555b61054e6040518060400160405280600d81526020016c76696f6c61732d74656137323160981b8152506040518060400160405280600681526020016574656137323160d01b81525061098a565b8015610560576000805461ff00191690555b50565b60606066805461026e90611586565b61057a610766565b6001600160a01b0316826001600160a01b031614156105ab5760405162461bcd60e51b8152600401610318906111d7565b80606a60006105b8610766565b6001600160a01b03908116825260208083019390935260409182016000908120918716808252919093529120805460ff1916921515929092179091556105fc610766565b6001600160a01b03167f17307eab39ab6107e8899845ad3d59bd9653f200f220920489ca2b5937696c31836040516106349190611123565b60405180910390a35050565b61065161064b610766565b836107d8565b61066d5760405162461bcd60e51b8152600401610318906114bd565b61067984848484610a1a565b50505050565b606061068a82610749565b6106a65760405162461bcd60e51b81526004016103189061142d565b60006106b0610a4d565b905060008151116106d057604051806020016040528060008152506106fb565b806106da84610a74565b6040516020016106eb9291906110a3565b6040516020818303038152906040525b9392505050565b6001600160a01b039182166000908152606a6020908152604080832093909416825291909152205460ff1690565b6001600160e01b031981166301ffc9a760e01b14919050565b6000908152606760205260409020546001600160a01b0316151590565b3390565b600081815260696020526040902080546001600160a01b0319166001600160a01b038416908117909155819061079f82610428565b6001600160a01b03167f8c5be1e5ebec7d5bd14f71427d1e84f3dd0314c0f7b2291e5b200ac8c7c3b92560405160405180910390a45050565b60006107e382610749565b6107ff5760405162461bcd60e51b81526004016103189061120e565b600061080a83610428565b9050806001600160a01b0316846001600160a01b031614806108455750836001600160a01b031661083a846102f1565b6001600160a01b0316145b8061085557506108558185610702565b949350505050565b826001600160a01b031661087082610428565b6001600160a01b0316146108965760405162461bcd60e51b8152600401610318906113e4565b6001600160a01b0382166108bc5760405162461bcd60e51b815260040161031890611193565b6108c78383836103d0565b6108d260008261076a565b6001600160a01b03831660009081526068602052604081208054600192906108fb908490611543565b90915550506001600160a01b0382166000908152606860205260408120805460019290610929908490611517565b909155505060008181526067602052604080822080546001600160a01b0319166001600160a01b0386811691821790925591518493918716917fddf252ad1be2c89b69c2b068fc378daa952ba7f163c4a11628f55a4df523b3ef91a4505050565b600054610100900460ff16806109a3575060005460ff16155b6109bf5760405162461bcd60e51b81526004016103189061134a565b600054610100900460ff161580156109ea576000805460ff1961ff0019909116610100171660011790555b6109f2610b8f565b6109fa610b8f565b610a048383610c02565b80156103d0576000805461ff0019169055505050565b610a2584848461085d565b610a3184848484610ca0565b6106795760405162461bcd60e51b815260040161031890611141565b60408051808201909152600d81526c746d642e76696f6c61732e696f60981b602082015290565b606081610a9957506040805180820190915260018152600360fc1b602082015261025a565b8160005b8115610ac35780610aad816115c1565b9150610abc9050600a8361152f565b9150610a9d565b60008167ffffffffffffffff811115610aec57634e487b7160e01b600052604160045260246000fd5b6040519080825280601f01601f191660200182016040528015610b16576020820181803683370190505b5090505b841561085557610b2b600183611543565b9150610b38600a866115dc565b610b43906030611517565b60f81b818381518110610b6657634e487b7160e01b600052603260045260246000fd5b60200101906001600160f81b031916908160001a905350610b88600a8661152f565b9450610b1a565b600054610100900460ff1680610ba8575060005460ff16155b610bc45760405162461bcd60e51b81526004016103189061134a565b600054610100900460ff1615801561054e576000805460ff1961ff0019909116610100171660011790558015610560576000805461ff001916905550565b600054610100900460ff1680610c1b575060005460ff16155b610c375760405162461bcd60e51b81526004016103189061134a565b600054610100900460ff16158015610c62576000805460ff1961ff0019909116610100171660011790555b8251610c75906065906020860190610dc1565b508151610c89906066906020850190610dc1565b5080156103d0576000805461ff0019169055505050565b6000610cb4846001600160a01b0316610dbb565b15610db057836001600160a01b031663150b7a02610cd0610766565b8786866040518563ffffffff1660e01b8152600401610cf294939291906110e6565b602060405180830381600087803b158015610d0c57600080fd5b505af1925050508015610d3c575060408051601f3d908101601f19168201909252610d3991810190611043565b60015b610d96573d808015610d6a576040519150601f19603f3d011682016040523d82523d6000602084013e610d6f565b606091505b508051610d8e5760405162461bcd60e51b815260040161031890611141565b805181602001fd5b6001600160e01b031916630a85bd0160e11b149050610855565b506001949350505050565b3b151590565b828054610dcd90611586565b90600052602060002090601f016020900481019282610def5760008555610e35565b82601f10610e0857805160ff1916838001178555610e35565b82800160010185558215610e35579182015b82811115610e35578251825591602001919060010190610e1a565b50610e41929150610e45565b5090565b5b80821115610e415760008155600101610e46565b80356001600160a01b038116811461025a57600080fd5b600060208284031215610e82578081fd5b6106fb82610e5a565b60008060408385031215610e9d578081fd5b610ea683610e5a565b9150610eb460208401610e5a565b90509250929050565b600080600060608486031215610ed1578081fd5b610eda84610e5a565b9250610ee860208501610e5a565b9150604084013590509250925092565b60008060008060808587031215610f0d578081fd5b610f1685610e5a565b93506020610f25818701610e5a565b935060408601359250606086013567ffffffffffffffff80821115610f48578384fd5b818801915088601f830112610f5b578384fd5b813581811115610f6d57610f6d61161c565b604051601f8201601f1916810185018381118282101715610f9057610f9061161c565b60405281815283820185018b1015610fa6578586fd5b81858501868301379081019093019390935250939692955090935050565b60008060408385031215610fd6578182fd5b610fdf83610e5a565b915060208301358015158114610ff3578182fd5b809150509250929050565b60008060408385031215611010578182fd5b61101983610e5a565b946020939093013593505050565b600060208284031215611038578081fd5b81356106fb81611632565b600060208284031215611054578081fd5b81516106fb81611632565b600060208284031215611070578081fd5b5035919050565b6000815180845261108f81602086016020860161155a565b601f01601f19169290920160200192915050565b600083516110b581846020880161155a565b8351908301906110c981836020880161155a565b01949350505050565b6001600160a01b0391909116815260200190565b6001600160a01b038581168252841660208201526040810183905260806060820181905260009061111990830184611077565b9695505050505050565b901515815260200190565b6000602082526106fb6020830184611077565b60208082526032908201527f4552433732313a207472616e7366657220746f206e6f6e20455243373231526560408201527131b2b4bb32b91034b6b83632b6b2b73a32b960711b606082015260800190565b60208082526024908201527f4552433732313a207472616e7366657220746f20746865207a65726f206164646040820152637265737360e01b606082015260800190565b60208082526019908201527f4552433732313a20617070726f766520746f2063616c6c657200000000000000604082015260600190565b6020808252602c908201527f4552433732313a206f70657261746f7220717565727920666f72206e6f6e657860408201526b34b9ba32b73a103a37b5b2b760a11b606082015260800190565b60208082526038908201527f4552433732313a20617070726f76652063616c6c6572206973206e6f74206f7760408201527f6e6572206e6f7220617070726f76656420666f7220616c6c0000000000000000606082015260800190565b6020808252602a908201527f4552433732313a2062616c616e636520717565727920666f7220746865207a65604082015269726f206164647265737360b01b606082015260800190565b60208082526029908201527f4552433732313a206f776e657220717565727920666f72206e6f6e657869737460408201526832b73a103a37b5b2b760b91b606082015260800190565b6020808252602e908201527f496e697469616c697a61626c653a20636f6e747261637420697320616c72656160408201526d191e481a5b9a5d1a585b1a5e995960921b606082015260800190565b6020808252602c908201527f4552433732313a20617070726f76656420717565727920666f72206e6f6e657860408201526b34b9ba32b73a103a37b5b2b760a11b606082015260800190565b60208082526029908201527f4552433732313a207472616e73666572206f6620746f6b656e2074686174206960408201526839903737ba1037bbb760b91b606082015260800190565b6020808252602f908201527f4552433732314d657461646174613a2055524920717565727920666f72206e6f60408201526e3732bc34b9ba32b73a103a37b5b2b760891b606082015260800190565b60208082526021908201527f4552433732313a20617070726f76616c20746f2063757272656e74206f776e656040820152603960f91b606082015260800190565b60208082526031908201527f4552433732313a207472616e736665722063616c6c6572206973206e6f74206f6040820152701ddb995c881b9bdc88185c1c1c9bdd9959607a1b606082015260800190565b90815260200190565b6000821982111561152a5761152a6115f0565b500190565b60008261153e5761153e611606565b500490565b600082821015611555576115556115f0565b500390565b60005b8381101561157557818101518382015260200161155d565b838111156106795750506000910152565b60028104600182168061159a57607f821691505b602082108114156115bb57634e487b7160e01b600052602260045260246000fd5b50919050565b60006000198214156115d5576115d56115f0565b5060010190565b6000826115eb576115eb611606565b500690565b634e487b7160e01b600052601160045260246000fd5b634e487b7160e01b600052601260045260246000fd5b634e487b7160e01b600052604160045260246000fd5b6001600160e01b03198116811461056057600080fdfea26469706673582212206707f74cc66b8636badc1e1d6da3838a597f725a9a437026aa31948966e7034664736f6c63430008000033",
  "linkReferences": {},
  "deployedLinkReferences": {}
}